{
  "_format": "hh-sol-artifact-1",
  "contractName": "DaoRewardContract",
  "sourceName": "contracts/DaoRewardContract.sol",
  "abi": [
    {
      "anonymous": false,
      "inputs": [
        {
          "indexed": true,
          "internalType": "address",
          "name": "account",
          "type": "address"
        },
        {
          "indexed": true,
          "internalType": "enum CommonEnums.FundType",
          "name": "fundType",
          "type": "uint8"
        }
      ],
      "name": "AccountAuthorizationRevoked",
      "type": "event"
    },
    {
      "anonymous": false,
      "inputs": [
        {
          "indexed": true,
          "internalType": "address",
          "name": "account",
          "type": "address"
        },
        {
          "indexed": false,
          "internalType": "enum CommonEnums.FundType",
          "name": "fundType",
          "type": "uint8"
        }
      ],
      "name": "AccountAuthorized",
      "type": "event"
    },
    {
      "anonymous": false,
      "inputs": [
        {
          "indexed": false,
          "internalType": "uint256",
          "name": "techRate",
          "type": "uint256"
        },
        {
          "indexed": false,
          "internalType": "uint256",
          "name": "operationRate",
          "type": "uint256"
        },
        {
          "indexed": false,
          "internalType": "uint256",
          "name": "veNectarRate",
          "type": "uint256"
        },
        {
          "indexed": false,
          "internalType": "uint256",
          "name": "nodeBonusRate",
          "type": "uint256"
        }
      ],
      "name": "FundRatesUpdated",
      "type": "event"
    },
    {
      "anonymous": false,
      "inputs": [
        {
          "indexed": true,
          "internalType": "address",
          "name": "sender",
          "type": "address"
        },
        {
          "indexed": false,
          "internalType": "uint256",
          "name": "_amount",
          "type": "uint256"
        },
        {
          "indexed": false,
          "internalType": "uint256",
          "name": "techAmount",
          "type": "uint256"
        },
        {
          "indexed": false,
          "internalType": "uint256",
          "name": "operationAmount",
          "type": "uint256"
        },
        {
          "indexed": false,
          "internalType": "uint256",
          "name": "veNectarAmount",
          "type": "uint256"
        },
        {
          "indexed": false,
          "internalType": "uint256",
          "name": "nodeBonusAmount",
          "type": "uint256"
        }
      ],
      "name": "FundsDeposited",
      "type": "event"
    },
    {
      "anonymous": false,
      "inputs": [
        {
          "indexed": true,
          "internalType": "enum CommonEnums.FundType",
          "name": "fromFundType",
          "type": "uint8"
        },
        {
          "indexed": true,
          "internalType": "enum CommonEnums.FundType",
          "name": "toFundType",
          "type": "uint8"
        },
        {
          "indexed": false,
          "internalType": "uint256",
          "name": "_amount",
          "type": "uint256"
        }
      ],
      "name": "FundsTransferred",
      "type": "event"
    },
    {
      "anonymous": false,
      "inputs": [
        {
          "indexed": false,
          "internalType": "uint8",
          "name": "version",
          "type": "uint8"
        }
      ],
      "name": "Initialized",
      "type": "event"
    },
    {
      "anonymous": false,
      "inputs": [
        {
          "indexed": true,
          "internalType": "address",
          "name": "sender",
          "type": "address"
        },
        {
          "indexed": true,
          "internalType": "string",
          "name": "period",
          "type": "string"
        },
        {
          "indexed": false,
          "internalType": "uint256",
          "name": "amount",
          "type": "uint256"
        }
      ],
      "name": "NodeBonusClaimed",
      "type": "event"
    },
    {
      "anonymous": false,
      "inputs": [
        {
          "indexed": true,
          "internalType": "address",
          "name": "account",
          "type": "address"
        },
        {
          "indexed": true,
          "internalType": "string",
          "name": "_period",
          "type": "string"
        },
        {
          "indexed": true,
          "internalType": "bytes32",
          "name": "merkleRoot",
          "type": "bytes32"
        }
      ],
      "name": "NodeBonusDistributed",
      "type": "event"
    },
    {
      "anonymous": false,
      "inputs": [
        {
          "indexed": true,
          "internalType": "address",
          "name": "previousOwner",
          "type": "address"
        },
        {
          "indexed": true,
          "internalType": "address",
          "name": "newOwner",
          "type": "address"
        }
      ],
      "name": "OwnershipTransferred",
      "type": "event"
    },
    {
      "inputs": [],
      "name": "PERCENT_MULTIPLIER",
      "outputs": [
        {
          "internalType": "uint256",
          "name": "",
          "type": "uint256"
        }
      ],
      "stateMutability": "view",
      "type": "function"
    },
    {
      "inputs": [],
      "name": "thsTokenAddress",
      "outputs": [
        {
          "internalType": "address",
          "name": "",
          "type": "address"
        }
      ],
      "stateMutability": "view",
      "type": "function"
    },
    {
      "inputs": [
        {
          "internalType": "enum CommonEnums.FundType",
          "name": "",
          "type": "uint8"
        },
        {
          "internalType": "address",
          "name": "",
          "type": "address"
        }
      ],
      "name": "authByTypeAndUser",
      "outputs": [
        {
          "internalType": "bool",
          "name": "",
          "type": "bool"
        }
      ],
      "stateMutability": "view",
      "type": "function"
    },
    {
      "inputs": [
        {
          "internalType": "address",
          "name": "account",
          "type": "address"
        },
        {
          "internalType": "enum CommonEnums.FundType",
          "name": "fundType",
          "type": "uint8"
        }
      ],
      "name": "authorizeToggle",
      "outputs": [],
      "stateMutability": "nonpayable",
      "type": "function"
    },
    {
      "inputs": [
        {
          "internalType": "string",
          "name": "_period",
          "type": "string"
        },
        {
          "internalType": "uint256",
          "name": "_amount",
          "type": "uint256"
        },
        {
          "internalType": "bytes32[]",
          "name": "_proof",
          "type": "bytes32[]"
        }
      ],
      "name": "claimNodeBonus",
      "outputs": [],
      "stateMutability": "nonpayable",
      "type": "function"
    },
    {
      "inputs": [
        {
          "internalType": "address",
          "name": "",
          "type": "address"
        },
        {
          "internalType": "string",
          "name": "",
          "type": "string"
        }
      ],
      "name": "claimedByUserAndPeriod",
      "outputs": [
        {
          "internalType": "uint256",
          "name": "",
          "type": "uint256"
        }
      ],
      "stateMutability": "view",
      "type": "function"
    },
    {
      "inputs": [
        {
          "internalType": "address",
          "name": "",
          "type": "address"
        },
        {
          "internalType": "uint256",
          "name": "",
          "type": "uint256"
        }
      ],
      "name": "claimedPeriodsByUser",
      "outputs": [
        {
          "internalType": "string",
          "name": "",
          "type": "string"
        }
      ],
      "stateMutability": "view",
      "type": "function"
    },
    {
      "inputs": [
        {
          "internalType": "uint256",
          "name": "_amount",
          "type": "uint256"
        }
      ],
      "name": "deposit",
      "outputs": [],
      "stateMutability": "nonpayable",
      "type": "function"
    },
    {
      "inputs": [],
      "name": "depositedTotal",
      "outputs": [
        {
          "internalType": "uint256",
          "name": "",
          "type": "uint256"
        }
      ],
      "stateMutability": "view",
      "type": "function"
    },
    {
      "inputs": [
        {
          "internalType": "string",
          "name": "_period",
          "type": "string"
        },
        {
          "internalType": "bytes32",
          "name": "_merkleRoot",
          "type": "bytes32"
        }
      ],
      "name": "distributeNodeBonus",
      "outputs": [],
      "stateMutability": "nonpayable",
      "type": "function"
    },
    {
      "inputs": [
        {
          "internalType": "enum CommonEnums.FundType",
          "name": "",
          "type": "uint8"
        }
      ],
      "name": "fundInfoByType",
      "outputs": [
        {
          "internalType": "uint256",
          "name": "rate",
          "type": "uint256"
        },
        {
          "internalType": "uint256",
          "name": "deposited",
          "type": "uint256"
        },
        {
          "internalType": "uint256",
          "name": "remaining",
          "type": "uint256"
        },
        {
          "internalType": "uint256",
          "name": "claimed",
          "type": "uint256"
        }
      ],
      "stateMutability": "view",
      "type": "function"
    },
    {
      "inputs": [
        {
          "internalType": "address",
          "name": "_user",
          "type": "address"
        },
        {
          "internalType": "string[]",
          "name": "_periods",
          "type": "string[]"
        }
      ],
      "name": "getClaimedAmountByPeriods",
      "outputs": [
        {
          "internalType": "uint256[]",
          "name": "claimed_",
          "type": "uint256[]"
        }
      ],
      "stateMutability": "view",
      "type": "function"
    },
    {
      "inputs": [],
      "name": "getDepositedNodeBoundTotal",
      "outputs": [
        {
          "internalType": "uint256",
          "name": "",
          "type": "uint256"
        }
      ],
      "stateMutability": "view",
      "type": "function"
    },
    {
      "inputs": [
        {
          "internalType": "address",
          "name": "_thsToken",
          "type": "address"
        }
      ],
      "name": "initialize",
      "outputs": [],
      "stateMutability": "nonpayable",
      "type": "function"
    },
    {
      "inputs": [
        {
          "internalType": "address",
          "name": "account",
          "type": "address"
        },
        {
          "internalType": "enum CommonEnums.FundType",
          "name": "fundType",
          "type": "uint8"
        }
      ],
      "name": "isAuthorized",
      "outputs": [
        {
          "internalType": "bool",
          "name": "",
          "type": "bool"
        }
      ],
      "stateMutability": "view",
      "type": "function"
    },
    {
      "inputs": [
        {
          "internalType": "string",
          "name": "",
          "type": "string"
        }
      ],
      "name": "merkleRootByPeriod",
      "outputs": [
        {
          "internalType": "bytes32",
          "name": "",
          "type": "bytes32"
        }
      ],
      "stateMutability": "view",
      "type": "function"
    },
    {
      "inputs": [],
      "name": "owner",
      "outputs": [
        {
          "internalType": "address",
          "name": "",
          "type": "address"
        }
      ],
      "stateMutability": "view",
      "type": "function"
    },
    {
      "inputs": [
        {
          "internalType": "uint256",
          "name": "",
          "type": "uint256"
        }
      ],
      "name": "periods",
      "outputs": [
        {
          "internalType": "string",
          "name": "",
          "type": "string"
        }
      ],
      "stateMutability": "view",
      "type": "function"
    },
    {
      "inputs": [],
      "name": "renounceOwnership",
      "outputs": [],
      "stateMutability": "nonpayable",
      "type": "function"
    },
    {
      "inputs": [
        {
          "internalType": "enum CommonEnums.FundType",
          "name": "_fromFundType",
          "type": "uint8"
        },
        {
          "internalType": "enum CommonEnums.FundType",
          "name": "_toFundType",
          "type": "uint8"
        },
        {
          "internalType": "uint256",
          "name": "_amount",
          "type": "uint256"
        }
      ],
      "name": "transferFunds",
      "outputs": [],
      "stateMutability": "nonpayable",
      "type": "function"
    },
    {
      "inputs": [
        {
          "internalType": "address",
          "name": "newOwner",
          "type": "address"
        }
      ],
      "name": "transferOwnership",
      "outputs": [],
      "stateMutability": "nonpayable",
      "type": "function"
    },
    {
      "inputs": [
        {
          "internalType": "uint256",
          "name": "techRate",
          "type": "uint256"
        },
        {
          "internalType": "uint256",
          "name": "operationRate",
          "type": "uint256"
        },
        {
          "internalType": "uint256",
          "name": "veNectarRate",
          "type": "uint256"
        },
        {
          "internalType": "uint256",
          "name": "nodeBonusRate",
          "type": "uint256"
        }
      ],
      "name": "updateFundRates",
      "outputs": [],
      "stateMutability": "nonpayable",
      "type": "function"
    }
  ],
  "bytecode": "0x608060405234801561001057600080fd5b50613c77806100206000396000f3fe608060405234801561001057600080fd5b50600436106101425760003560e01c8063ae5d6fb4116100b8578063dc35a8ed1161007c578063dc35a8ed14610363578063e054484a14610393578063e07d8f69146103c6578063e3aa6601146103e2578063ea4a1104146103fe578063f2fde38b1461042e57610142565b8063ae5d6fb4146102c1578063b6b55f25146102f1578063bb35b2a11461030d578063c4d66de81461032b578063ce96e8811461034757610142565b806363b815fa1161010a57806363b815fa146102115780636b6448711461022f5780637051cf281461024b578063715018a61461027b57806375c98a61146102855780638da5cb5b146102a357610142565b80630bc956dc146101475780630fc3221a146101655780632ec9fe871461019557806346cd1a01146101c55780634802fe2f146101f5575b600080fd5b61014f61044a565b60405161015c919061253a565b60405180910390f35b61017f600480360381019061017a919061270d565b610450565b60405161018c919061253a565b60405180910390f35b6101af60048036038101906101aa91906127c9565b61048b565b6040516101bc91906128e7565b60405180910390f35b6101df60048036038101906101da919061292e565b6105a4565b6040516101ec9190612989565b60405180910390f35b61020f600480360381019061020a9190612a26565b6105d3565b005b61021961092c565b604051610226919061253a565b60405180910390f35b61024960048036038101906102449190612ab6565b610932565b005b61026560048036038101906102609190612af6565b610b89565b6040516102729190612b58565b60405180910390f35b610283610bb7565b005b61028d610bcb565b60405161029a9190612b82565b60405180910390f35b6102ab610bf1565b6040516102b89190612b82565b60405180910390f35b6102db60048036038101906102d69190612b9d565b610c1b565b6040516102e89190612c65565b60405180910390f35b61030b60048036038101906103069190612c87565b610cd4565b005b6103156111dd565b604051610322919061253a565b60405180910390f35b61034560048036038101906103409190612cb4565b61121f565b005b610361600480360381019061035c9190612ce1565b6115de565b005b61037d60048036038101906103789190612ab6565b61178c565b60405161038a9190612989565b60405180910390f35b6103ad60048036038101906103a89190612d48565b611818565b6040516103bd9493929190612d75565b60405180910390f35b6103e060048036038101906103db9190612dba565b611848565b005b6103fc60048036038101906103f79190612e39565b611af2565b005b61041860048036038101906104139190612c87565b611c7e565b6040516104259190612c65565b60405180910390f35b61044860048036038101906104439190612cb4565b611d2a565b005b606d5481565b606960205281600052604060002081805160208101820180518482526020830160208501208183528095505050505050600091509150505481565b60608282905067ffffffffffffffff8111156104aa576104a96125e2565b5b6040519080825280602002602001820160405280156104d85781602001602082028036833780820191505090505b50905060005b8383905081101561059c57606960008673ffffffffffffffffffffffffffffffffffffffff1673ffffffffffffffffffffffffffffffffffffffff16815260200190815260200160002084848381811061053b5761053a612e95565b5b905060200281019061054d9190612ed3565b60405161055b929190612f66565b90815260200160405180910390205482828151811061057d5761057c612e95565b5b602002602001018181525050808061059490612fae565b9150506104de565b509392505050565b60656020528160005260406000206020528060005260406000206000915091509054906101000a900460ff1681565b6000606960003373ffffffffffffffffffffffffffffffffffffffff1673ffffffffffffffffffffffffffffffffffffffff168152602001908152602001600020856040516106229190613027565b90815260200160405180910390205414610671576040517f08c379a00000000000000000000000000000000000000000000000000000000081526004016106689061308a565b60405180910390fd5b60003385856040516020016106889392919061315f565b60405160208183030381529060405280519060200120905061070a838380806020026020016040519081016040528093929190818152602001838360200280828437600081840152601f19601f820116905080830192505050505050506067876040516106f59190613027565b90815260200160405180910390205483611dad565b610749576040517f08c379a0000000000000000000000000000000000000000000000000000000008152600401610740906131fa565b60405180910390fd5b6000606660006003808111156107625761076161321a565b5b60038111156107745761077361321a565b5b81526020019081526020016000209050848160020160008282546107989190613249565b92505081905550848160030160008282546107b3919061327d565b92505081905550606a60003373ffffffffffffffffffffffffffffffffffffffff1673ffffffffffffffffffffffffffffffffffffffff1681526020019081526020016000208690806001815401808255809150506001900390600052602060002001600090919091909150908051906020019061083292919061247e565b5084606960003373ffffffffffffffffffffffffffffffffffffffff1673ffffffffffffffffffffffffffffffffffffffff168152602001908152602001600020876040516108819190613027565b9081526020016040518091039020819055506108c0606b60009054906101000a900473ffffffffffffffffffffffffffffffffffffffff168633611dc4565b856040516108ce9190613027565b60405180910390203373ffffffffffffffffffffffffffffffffffffffff167ff36522adda7c428ac16e18fb3c8f381e46825d6ff86431a6fb7c3b4048c429748760405161091c919061253a565b60405180910390a3505050505050565b606c5481565b61093a611e22565b606560008260038111156109515761095061321a565b5b60038111156109635761096261321a565b5b815260200190815260200160002060008373ffffffffffffffffffffffffffffffffffffffff1673ffffffffffffffffffffffffffffffffffffffff16815260200190815260200160002060009054906101000a900460ff1615610aa1576000606560008360038111156109da576109d961321a565b5b60038111156109ec576109eb61321a565b5b815260200190815260200160002060008473ffffffffffffffffffffffffffffffffffffffff1673ffffffffffffffffffffffffffffffffffffffff16815260200190815260200160002060006101000a81548160ff0219169083151502179055508173ffffffffffffffffffffffffffffffffffffffff167f47baca7d610bf3e44b47b1e7f54aef59c84344d57ee1dc5d689189dc82e12f7b82604051610a94919061331b565b60405180910390a2610b85565b600160656000836003811115610aba57610ab961321a565b5b6003811115610acc57610acb61321a565b5b815260200190815260200160002060008473ffffffffffffffffffffffffffffffffffffffff1673ffffffffffffffffffffffffffffffffffffffff16815260200190815260200160002060006101000a81548160ff021916908315150217905550806003811115610b4157610b4061321a565b5b8273ffffffffffffffffffffffffffffffffffffffff167f3751627a4de2d3022604eec588329758e9c98818616c7c3f8d128c320e1d44aa60405160405180910390a35b5050565b6067818051602081018201805184825260208301602085012081835280955050505050506000915090505481565b610bbf611e22565b610bc96000611ea0565b565b606b60009054906101000a900473ffffffffffffffffffffffffffffffffffffffff1681565b6000603360009054906101000a900473ffffffffffffffffffffffffffffffffffffffff16905090565b606a6020528160005260406000208181548110610c3757600080fd5b90600052602060002001600091509150508054610c5390613365565b80601f0160208091040260200160405190810160405280929190818152602001828054610c7f90613365565b8015610ccc5780601f10610ca157610100808354040283529160200191610ccc565b820191906000526020600020905b815481529060010190602001808311610caf57829003601f168201915b505050505081565b60008111610d17576040517f08c379a0000000000000000000000000000000000000000000000000000000008152600401610d0e906133e2565b60405180910390fd5b6000610d7a606c54610d6c60666000806003811115610d3957610d3861321a565b5b6003811115610d4b57610d4a61321a565b5b81526020019081526020016000206000015485611f6690919063ffffffff16565b611f7c90919063ffffffff16565b90506000610de0606c54610dd26066600060016003811115610d9f57610d9e61321a565b5b6003811115610db157610db061321a565b5b81526020019081526020016000206000015486611f6690919063ffffffff16565b611f7c90919063ffffffff16565b90506000610e46606c54610e386066600060026003811115610e0557610e0461321a565b5b6003811115610e1757610e1661321a565b5b81526020019081526020016000206000015487611f6690919063ffffffff16565b611f7c90919063ffffffff16565b90506000610eab606c54610e9d60666000600380811115610e6a57610e6961321a565b5b6003811115610e7c57610e7b61321a565b5b81526020019081526020016000206000015488611f6690919063ffffffff16565b611f7c90919063ffffffff16565b9050610edb606b60009054906101000a900473ffffffffffffffffffffffffffffffffffffffff16333088611f92565b8360666000806003811115610ef357610ef261321a565b5b6003811115610f0557610f0461321a565b5b81526020019081526020016000206002016000828254610f25919061327d565b925050819055508360666000806003811115610f4457610f4361321a565b5b6003811115610f5657610f5561321a565b5b81526020019081526020016000206001016000828254610f76919061327d565b92505081905550826066600060016003811115610f9657610f9561321a565b5b6003811115610fa857610fa761321a565b5b81526020019081526020016000206002016000828254610fc8919061327d565b92505081905550826066600060016003811115610fe857610fe761321a565b5b6003811115610ffa57610ff961321a565b5b8152602001908152602001600020600101600082825461101a919061327d565b9250508190555081606660006002600381111561103a5761103961321a565b5b600381111561104c5761104b61321a565b5b8152602001908152602001600020600201600082825461106c919061327d565b9250508190555081606660006002600381111561108c5761108b61321a565b5b600381111561109e5761109d61321a565b5b815260200190815260200160002060010160008282546110be919061327d565b9250508190555080606660006003808111156110dd576110dc61321a565b5b60038111156110ef576110ee61321a565b5b8152602001908152602001600020600201600082825461110f919061327d565b92505081905550806066600060038081111561112e5761112d61321a565b5b60038111156111405761113f61321a565b5b81526020019081526020016000206001016000828254611160919061327d565b9250508190555084606d6000828254611179919061327d565b925050819055503373ffffffffffffffffffffffffffffffffffffffff167f8b2a8a40d6085c09e60236a8590eefafbd56ee1f8aeffc84ff567a2ddf44da8f86868686866040516111ce959493929190613402565b60405180910390a25050505050565b6000606660006003808111156111f6576111f561321a565b5b60038111156112085761120761321a565b5b815260200190815260200160002060010154905090565b60008060019054906101000a900460ff161590508080156112505750600160008054906101000a900460ff1660ff16105b8061127d575061125f306120cb565b15801561127c5750600160008054906101000a900460ff1660ff16145b5b6112bc576040517f08c379a00000000000000000000000000000000000000000000000000000000081526004016112b3906134c7565b60405180910390fd5b60016000806101000a81548160ff021916908360ff16021790555080156112f9576001600060016101000a81548160ff0219169083151502179055505b6113016120ee565b81606b60006101000a81548173ffffffffffffffffffffffffffffffffffffffff021916908373ffffffffffffffffffffffffffffffffffffffff16021790555060016065600080600381111561135b5761135a61321a565b5b600381111561136d5761136c61321a565b5b815260200190815260200160002060003373ffffffffffffffffffffffffffffffffffffffff1673ffffffffffffffffffffffffffffffffffffffff16815260200190815260200160002060006101000a81548160ff021916908315150217905550600160656000600160038111156113e9576113e861321a565b5b60038111156113fb576113fa61321a565b5b815260200190815260200160002060003373ffffffffffffffffffffffffffffffffffffffff1673ffffffffffffffffffffffffffffffffffffffff16815260200190815260200160002060006101000a81548160ff021916908315150217905550600160656000600260038111156114775761147661321a565b5b60038111156114895761148861321a565b5b815260200190815260200160002060003373ffffffffffffffffffffffffffffffffffffffff1673ffffffffffffffffffffffffffffffffffffffff16815260200190815260200160002060006101000a81548160ff0219169083151502179055506001606560006003808111156115045761150361321a565b5b60038111156115165761151561321a565b5b815260200190815260200160002060003373ffffffffffffffffffffffffffffffffffffffff1673ffffffffffffffffffffffffffffffffffffffff16815260200190815260200160002060006101000a81548160ff021916908315150217905550612710606c8190555080156115da5760008060016101000a81548160ff0219169083151502179055507f7f26b83ff96e1f2b6a682f133852f6798a09c465da95921460cefb384740249860016040516115d19190613539565b60405180910390a15b5050565b6115e6611e22565b606c54818385876115f7919061327d565b611601919061327d565b61160b919061327d565b1461164b576040517f08c379a0000000000000000000000000000000000000000000000000000000008152600401611642906135c6565b60405180910390fd5b83606660008060038111156116635761166261321a565b5b60038111156116755761167461321a565b5b8152602001908152602001600020600001819055508260666000600160038111156116a3576116a261321a565b5b60038111156116b5576116b461321a565b5b8152602001908152602001600020600001819055508160666000600260038111156116e3576116e261321a565b5b60038111156116f5576116f461321a565b5b81526020019081526020016000206000018190555080606660006003808111156117225761172161321a565b5b60038111156117345761173361321a565b5b8152602001908152602001600020600001819055507fc8505d72e075f09b362359fe2c2a8377bf12df5b00568c2bcfacb8db078cb0d38484848460405161177e9493929190612d75565b60405180910390a150505050565b6000606560008360038111156117a5576117a461321a565b5b60038111156117b7576117b661321a565b5b815260200190815260200160002060008473ffffffffffffffffffffffffffffffffffffffff1673ffffffffffffffffffffffffffffffffffffffff16815260200190815260200160002060009054906101000a900460ff16905092915050565b60666020528060005260406000206000915090508060000154908060010154908060020154908060030154905084565b82606560008260038111156118605761185f61321a565b5b60038111156118725761187161321a565b5b815260200190815260200160002060003373ffffffffffffffffffffffffffffffffffffffff1673ffffffffffffffffffffffffffffffffffffffff16815260200190815260200160002060009054906101000a900460ff1661190a576040517f08c379a000000000000000000000000000000000000000000000000000000000815260040161190190613632565b60405180910390fd5b82600381111561191d5761191c61321a565b5b8460038111156119305761192f61321a565b5b03611970576040517f08c379a0000000000000000000000000000000000000000000000000000000008152600401611967906136c4565b60405180910390fd5b606660008560038111156119875761198661321a565b5b60038111156119995761199861321a565b5b8152602001908152602001600020600201548211156119ed576040517f08c379a00000000000000000000000000000000000000000000000000000000081526004016119e490613730565b60405180910390fd5b8160666000866003811115611a0557611a0461321a565b5b6003811115611a1757611a1661321a565b5b81526020019081526020016000206002016000828254611a379190613249565b925050819055508160666000856003811115611a5657611a5561321a565b5b6003811115611a6857611a6761321a565b5b81526020019081526020016000206002016000828254611a88919061327d565b92505081905550826003811115611aa257611aa161321a565b5b846003811115611ab557611ab461321a565b5b7f1697418249e6b21917e2122513c267fce2d18792d1e43fbb04e175369205a15a84604051611ae4919061253a565b60405180910390a350505050565b600360656000826003811115611b0b57611b0a61321a565b5b6003811115611b1d57611b1c61321a565b5b815260200190815260200160002060003373ffffffffffffffffffffffffffffffffffffffff1673ffffffffffffffffffffffffffffffffffffffff16815260200190815260200160002060009054906101000a900460ff16611bb5576040517f08c379a0000000000000000000000000000000000000000000000000000000008152600401611bac90613632565b60405180910390fd5b816000801b14611bfc57606883908060018154018082558091505060019003906000526020600020016000909190919091509080519060200190611bfa92919061247e565b505b81606784604051611c0d9190613027565b9081526020016040518091039020819055508183604051611c2e9190613027565b60405180910390203373ffffffffffffffffffffffffffffffffffffffff167f4a1b406643b672c287206a88fa436307513385f074fccccdab8d4cf12894618460405160405180910390a4505050565b60688181548110611c8e57600080fd5b906000526020600020016000915090508054611ca990613365565b80601f0160208091040260200160405190810160405280929190818152602001828054611cd590613365565b8015611d225780601f10611cf757610100808354040283529160200191611d22565b820191906000526020600020905b815481529060010190602001808311611d0557829003601f168201915b505050505081565b611d32611e22565b600073ffffffffffffffffffffffffffffffffffffffff168173ffffffffffffffffffffffffffffffffffffffff1603611da1576040517f08c379a0000000000000000000000000000000000000000000000000000000008152600401611d98906137c2565b60405180910390fd5b611daa81611ea0565b50565b600082611dba8584612147565b1490509392505050565b6000820315611e1d578273ffffffffffffffffffffffffffffffffffffffff16600073ffffffffffffffffffffffffffffffffffffffff1603611e1057611e0b818361219d565b611e1c565b611e1b83828461229d565b5b5b505050565b611e2a6123d3565b73ffffffffffffffffffffffffffffffffffffffff16611e48610bf1565b73ffffffffffffffffffffffffffffffffffffffff1614611e9e576040517f08c379a0000000000000000000000000000000000000000000000000000000008152600401611e959061382e565b60405180910390fd5b565b6000603360009054906101000a900473ffffffffffffffffffffffffffffffffffffffff16905081603360006101000a81548173ffffffffffffffffffffffffffffffffffffffff021916908373ffffffffffffffffffffffffffffffffffffffff1602179055508173ffffffffffffffffffffffffffffffffffffffff168173ffffffffffffffffffffffffffffffffffffffff167f8be0079c531659141344cd1fd0a4f28419497f9722a3daafe3b4186f6b6457e060405160405180910390a35050565b60008183611f74919061384e565b905092915050565b60008183611f8a91906138d7565b905092915050565b6000808573ffffffffffffffffffffffffffffffffffffffff166323b872dd868686604051602401611fc693929190613908565b6040516020818303038152906040529060e01b6020820180517bffffffffffffffffffffffffffffffffffffffffffffffffffffffff83818316178352505050506040516120149190613986565b6000604051808303816000865af19150503d8060008114612051576040519150601f19603f3d011682016040523d82523d6000602084013e612056565b606091505b5091509150818015612084575060008151148061208357508080602001905181019061208291906139c9565b5b5b6120c3576040517f08c379a00000000000000000000000000000000000000000000000000000000081526004016120ba90613a68565b60405180910390fd5b505050505050565b6000808273ffffffffffffffffffffffffffffffffffffffff163b119050919050565b600060019054906101000a900460ff1661213d576040517f08c379a000000000000000000000000000000000000000000000000000000000815260040161213490613afa565b60405180910390fd5b6121456123db565b565b60008082905060005b84518110156121925761217d828683815181106121705761216f612e95565b5b602002602001015161243c565b9150808061218a90612fae565b915050612150565b508091505092915050565b60008273ffffffffffffffffffffffffffffffffffffffff1682600067ffffffffffffffff8111156121d2576121d16125e2565b5b6040519080825280601f01601f1916602001820160405280156122045781602001600182028036833780820191505090505b506040516122129190613986565b60006040518083038185875af1925050503d806000811461224f576040519150601f19603f3d011682016040523d82523d6000602084013e612254565b606091505b5050905080612298576040517f08c379a000000000000000000000000000000000000000000000000000000000815260040161228f90613b8c565b60405180910390fd5b505050565b6000808473ffffffffffffffffffffffffffffffffffffffff1663a9059cbb85856040516024016122cf929190613bac565b6040516020818303038152906040529060e01b6020820180517bffffffffffffffffffffffffffffffffffffffffffffffffffffffff838183161783525050505060405161231d9190613986565b6000604051808303816000865af19150503d806000811461235a576040519150601f19603f3d011682016040523d82523d6000602084013e61235f565b606091505b509150915081801561238d575060008151148061238c57508080602001905181019061238b91906139c9565b5b5b6123cc576040517f08c379a00000000000000000000000000000000000000000000000000000000081526004016123c390613c21565b60405180910390fd5b5050505050565b600033905090565b600060019054906101000a900460ff1661242a576040517f08c379a000000000000000000000000000000000000000000000000000000000815260040161242190613afa565b60405180910390fd5b61243a6124356123d3565b611ea0565b565b60008183106124545761244f8284612467565b61245f565b61245e8383612467565b5b905092915050565b600082600052816020526040600020905092915050565b82805461248a90613365565b90600052602060002090601f0160209004810192826124ac57600085556124f3565b82601f106124c557805160ff19168380011785556124f3565b828001600101855582156124f3579182015b828111156124f25782518255916020019190600101906124d7565b5b5090506125009190612504565b5090565b5b8082111561251d576000816000905550600101612505565b5090565b6000819050919050565b61253481612521565b82525050565b600060208201905061254f600083018461252b565b92915050565b6000604051905090565b600080fd5b600080fd5b600073ffffffffffffffffffffffffffffffffffffffff82169050919050565b600061259482612569565b9050919050565b6125a481612589565b81146125af57600080fd5b50565b6000813590506125c18161259b565b92915050565b600080fd5b600080fd5b6000601f19601f8301169050919050565b7f4e487b7100000000000000000000000000000000000000000000000000000000600052604160045260246000fd5b61261a826125d1565b810181811067ffffffffffffffff82111715612639576126386125e2565b5b80604052505050565b600061264c612555565b90506126588282612611565b919050565b600067ffffffffffffffff821115612678576126776125e2565b5b612681826125d1565b9050602081019050919050565b82818337600083830152505050565b60006126b06126ab8461265d565b612642565b9050828152602081018484840111156126cc576126cb6125cc565b5b6126d784828561268e565b509392505050565b600082601f8301126126f4576126f36125c7565b5b813561270484826020860161269d565b91505092915050565b600080604083850312156127245761272361255f565b5b6000612732858286016125b2565b925050602083013567ffffffffffffffff81111561275357612752612564565b5b61275f858286016126df565b9150509250929050565b600080fd5b600080fd5b60008083601f840112612789576127886125c7565b5b8235905067ffffffffffffffff8111156127a6576127a5612769565b5b6020830191508360208202830111156127c2576127c161276e565b5b9250929050565b6000806000604084860312156127e2576127e161255f565b5b60006127f0868287016125b2565b935050602084013567ffffffffffffffff81111561281157612810612564565b5b61281d86828701612773565b92509250509250925092565b600081519050919050565b600082825260208201905092915050565b6000819050602082019050919050565b61285e81612521565b82525050565b60006128708383612855565b60208301905092915050565b6000602082019050919050565b600061289482612829565b61289e8185612834565b93506128a983612845565b8060005b838110156128da5781516128c18882612864565b97506128cc8361287c565b9250506001810190506128ad565b5085935050505092915050565b600060208201905081810360008301526129018184612889565b905092915050565b6004811061291657600080fd5b50565b60008135905061292881612909565b92915050565b600080604083850312156129455761294461255f565b5b600061295385828601612919565b9250506020612964858286016125b2565b9150509250929050565b60008115159050919050565b6129838161296e565b82525050565b600060208201905061299e600083018461297a565b92915050565b6129ad81612521565b81146129b857600080fd5b50565b6000813590506129ca816129a4565b92915050565b60008083601f8401126129e6576129e56125c7565b5b8235905067ffffffffffffffff811115612a0357612a02612769565b5b602083019150836020820283011115612a1f57612a1e61276e565b5b9250929050565b60008060008060608587031215612a4057612a3f61255f565b5b600085013567ffffffffffffffff811115612a5e57612a5d612564565b5b612a6a878288016126df565b9450506020612a7b878288016129bb565b935050604085013567ffffffffffffffff811115612a9c57612a9b612564565b5b612aa8878288016129d0565b925092505092959194509250565b60008060408385031215612acd57612acc61255f565b5b6000612adb858286016125b2565b9250506020612aec85828601612919565b9150509250929050565b600060208284031215612b0c57612b0b61255f565b5b600082013567ffffffffffffffff811115612b2a57612b29612564565b5b612b36848285016126df565b91505092915050565b6000819050919050565b612b5281612b3f565b82525050565b6000602082019050612b6d6000830184612b49565b92915050565b612b7c81612589565b82525050565b6000602082019050612b976000830184612b73565b92915050565b60008060408385031215612bb457612bb361255f565b5b6000612bc2858286016125b2565b9250506020612bd3858286016129bb565b9150509250929050565b600081519050919050565b600082825260208201905092915050565b60005b83811015612c17578082015181840152602081019050612bfc565b83811115612c26576000848401525b50505050565b6000612c3782612bdd565b612c418185612be8565b9350612c51818560208601612bf9565b612c5a816125d1565b840191505092915050565b60006020820190508181036000830152612c7f8184612c2c565b905092915050565b600060208284031215612c9d57612c9c61255f565b5b6000612cab848285016129bb565b91505092915050565b600060208284031215612cca57612cc961255f565b5b6000612cd8848285016125b2565b91505092915050565b60008060008060808587031215612cfb57612cfa61255f565b5b6000612d09878288016129bb565b9450506020612d1a878288016129bb565b9350506040612d2b878288016129bb565b9250506060612d3c878288016129bb565b91505092959194509250565b600060208284031215612d5e57612d5d61255f565b5b6000612d6c84828501612919565b91505092915050565b6000608082019050612d8a600083018761252b565b612d97602083018661252b565b612da4604083018561252b565b612db1606083018461252b565b95945050505050565b600080600060608486031215612dd357612dd261255f565b5b6000612de186828701612919565b9350506020612df286828701612919565b9250506040612e03868287016129bb565b9150509250925092565b612e1681612b3f565b8114612e2157600080fd5b50565b600081359050612e3381612e0d565b92915050565b60008060408385031215612e5057612e4f61255f565b5b600083013567ffffffffffffffff811115612e6e57612e6d612564565b5b612e7a858286016126df565b9250506020612e8b85828601612e24565b9150509250929050565b7f4e487b7100000000000000000000000000000000000000000000000000000000600052603260045260246000fd5b600080fd5b600080fd5b600080fd5b60008083356001602003843603038112612ef057612eef612ec4565b5b80840192508235915067ffffffffffffffff821115612f1257612f11612ec9565b5b602083019250600182023603831315612f2e57612f2d612ece565b5b509250929050565b600081905092915050565b6000612f4d8385612f36565b9350612f5a83858461268e565b82840190509392505050565b6000612f73828486612f41565b91508190509392505050565b7f4e487b7100000000000000000000000000000000000000000000000000000000600052601160045260246000fd5b6000612fb982612521565b91507fffffffffffffffffffffffffffffffffffffffffffffffffffffffffffffffff8203612feb57612fea612f7f565b5b600182019050919050565b600061300182612bdd565b61300b8185612f36565b935061301b818560208601612bf9565b80840191505092915050565b60006130338284612ff6565b915081905092915050565b7f4e6f646520626f6e757320616c726561647920636c61696d6564000000000000600082015250565b6000613074601a83612be8565b915061307f8261303e565b602082019050919050565b600060208201905081810360008301526130a381613067565b9050919050565b60008160601b9050919050565b60006130c2826130aa565b9050919050565b60006130d4826130b7565b9050919050565b6130ec6130e782612589565b6130c9565b82525050565b7f5f00000000000000000000000000000000000000000000000000000000000000600082015250565b6000613128600183612f36565b9150613133826130f2565b600182019050919050565b6000819050919050565b61315961315482612521565b61313e565b82525050565b600061316b82866130db565b60148201915061317a8261311b565b91506131868285612ff6565b91506131918261311b565b915061319d8284613148565b602082019150819050949350505050565b7f496e76616c6964205f70726f6f66000000000000000000000000000000000000600082015250565b60006131e4600e83612be8565b91506131ef826131ae565b602082019050919050565b60006020820190508181036000830152613213816131d7565b9050919050565b7f4e487b7100000000000000000000000000000000000000000000000000000000600052602160045260246000fd5b600061325482612521565b915061325f83612521565b92508282101561327257613271612f7f565b5b828203905092915050565b600061328882612521565b915061329383612521565b9250827fffffffffffffffffffffffffffffffffffffffffffffffffffffffffffffffff038211156132c8576132c7612f7f565b5b828201905092915050565b600481106132e4576132e361321a565b5b50565b60008190506132f5826132d3565b919050565b6000613305826132e7565b9050919050565b613315816132fa565b82525050565b6000602082019050613330600083018461330c565b92915050565b7f4e487b7100000000000000000000000000000000000000000000000000000000600052602260045260246000fd5b6000600282049050600182168061337d57607f821691505b6020821081036133905761338f613336565b5b50919050565b7f636865636b20616d6f756e740000000000000000000000000000000000000000600082015250565b60006133cc600c83612be8565b91506133d782613396565b602082019050919050565b600060208201905081810360008301526133fb816133bf565b9050919050565b600060a082019050613417600083018861252b565b613424602083018761252b565b613431604083018661252b565b61343e606083018561252b565b61344b608083018461252b565b9695505050505050565b7f496e697469616c697a61626c653a20636f6e747261637420697320616c72656160008201527f647920696e697469616c697a6564000000000000000000000000000000000000602082015250565b60006134b1602e83612be8565b91506134bc82613455565b604082019050919050565b600060208201905081810360008301526134e0816134a4565b9050919050565b6000819050919050565b600060ff82169050919050565b6000819050919050565b600061352361351e613519846134e7565b6134fe565b6134f1565b9050919050565b61353381613508565b82525050565b600060208201905061354e600083018461352a565b92915050565b7f5261746573206d7573742073756d20757020746f2050455243454e545f4d554c60008201527f5449504c49455200000000000000000000000000000000000000000000000000602082015250565b60006135b0602783612be8565b91506135bb82613554565b604082019050919050565b600060208201905081810360008301526135df816135a3565b9050919050565b7f556e617574686f72697a656420726563697069656e7400000000000000000000600082015250565b600061361c601683612be8565b9150613627826135e6565b602082019050919050565b6000602082019050818103600083015261364b8161360f565b9050919050565b7f43616e6e6f74207472616e736665722077697468696e207468652073616d652060008201527f66756e6420747970650000000000000000000000000000000000000000000000602082015250565b60006136ae602983612be8565b91506136b982613652565b604082019050919050565b600060208201905081810360008301526136dd816136a1565b9050919050565b7f496e73756666696369656e742062616c616e6365000000000000000000000000600082015250565b600061371a601483612be8565b9150613725826136e4565b602082019050919050565b600060208201905081810360008301526137498161370d565b9050919050565b7f4f776e61626c653a206e6577206f776e657220697320746865207a65726f206160008201527f6464726573730000000000000000000000000000000000000000000000000000602082015250565b60006137ac602683612be8565b91506137b782613750565b604082019050919050565b600060208201905081810360008301526137db8161379f565b9050919050565b7f4f776e61626c653a2063616c6c6572206973206e6f7420746865206f776e6572600082015250565b6000613818602083612be8565b9150613823826137e2565b602082019050919050565b600060208201905081810360008301526138478161380b565b9050919050565b600061385982612521565b915061386483612521565b9250817fffffffffffffffffffffffffffffffffffffffffffffffffffffffffffffffff048311821515161561389d5761389c612f7f565b5b828202905092915050565b7f4e487b7100000000000000000000000000000000000000000000000000000000600052601260045260246000fd5b60006138e282612521565b91506138ed83612521565b9250826138fd576138fc6138a8565b5b828204905092915050565b600060608201905061391d6000830186612b73565b61392a6020830185612b73565b613937604083018461252b565b949350505050565b600081519050919050565b600081905092915050565b60006139608261393f565b61396a818561394a565b935061397a818560208601612bf9565b80840191505092915050565b60006139928284613955565b915081905092915050565b6139a68161296e565b81146139b157600080fd5b50565b6000815190506139c38161399d565b92915050565b6000602082840312156139df576139de61255f565b5b60006139ed848285016139b4565b91505092915050565b7f5472616e7366657248656c7065723a205452414e534645525f46524f4d5f464160008201527f494c454400000000000000000000000000000000000000000000000000000000602082015250565b6000613a52602483612be8565b9150613a5d826139f6565b604082019050919050565b60006020820190508181036000830152613a8181613a45565b9050919050565b7f496e697469616c697a61626c653a20636f6e7472616374206973206e6f74206960008201527f6e697469616c697a696e67000000000000000000000000000000000000000000602082015250565b6000613ae4602b83612be8565b9150613aef82613a88565b604082019050919050565b60006020820190508181036000830152613b1381613ad7565b9050919050565b7f5472616e7366657248656c7065723a204554485f5452414e534645525f46414960008201527f4c45440000000000000000000000000000000000000000000000000000000000602082015250565b6000613b76602383612be8565b9150613b8182613b1a565b604082019050919050565b60006020820190508181036000830152613ba581613b69565b9050919050565b6000604082019050613bc16000830185612b73565b613bce602083018461252b565b9392505050565b7f5472616e7366657248656c7065723a205452414e534645525f4641494c454400600082015250565b6000613c0b601f83612be8565b9150613c1682613bd5565b602082019050919050565b60006020820190508181036000830152613c3a81613bfe565b905091905056fea2646970667358221220904d0f103312a39165d374f36680df5f8400e12327ab4810a725d4d7a19aaa3f64736f6c634300080d0033",
  "linkReferences": {},
  "deployedLinkReferences": {}
}