{
  "_format": "hh-sol-artifact-1",
  "contractName": "PriceFeedGov",
  "sourceName": "contracts/PriceFeedGov.sol",
  "abi": [
    {
      "inputs": [],
      "stateMutability": "nonpayable",
      "type": "constructor"
    },
    {
      "inputs": [
        {
          "internalType": "address",
          "name": "",
          "type": "address"
        }
      ],
      "name": "isAdmin",
      "outputs": [
        {
          "internalType": "bool",
          "name": "",
          "type": "bool"
        }
      ],
      "stateMutability": "view",
      "type": "function"
    },
    {
      "inputs": [],
      "name": "owner",
      "outputs": [
        {
          "internalType": "address",
          "name": "",
          "type": "address"
        }
      ],
      "stateMutability": "view",
      "type": "function"
    },
    {
      "inputs": [
        {
          "internalType": "address",
          "name": "",
          "type": "address"
        }
      ],
      "name": "priceFeedBy",
      "outputs": [
        {
          "internalType": "address",
          "name": "",
          "type": "address"
        }
      ],
      "stateMutability": "view",
      "type": "function"
    },
    {
      "inputs": [
        {
          "internalType": "address",
          "name": "_account",
          "type": "address"
        },
        {
          "internalType": "bool",
          "name": "_isAdmin",
          "type": "bool"
        }
      ],
      "name": "setAdmin",
      "outputs": [],
      "stateMutability": "nonpayable",
      "type": "function"
    },
    {
      "inputs": [
        {
          "internalType": "address[]",
          "name": "_tokens",
          "type": "address[]"
        },
        {
          "internalType": "int256[]",
          "name": "_answers",
          "type": "int256[]"
        }
      ],
      "name": "setLatestAnswerBatch",
      "outputs": [],
      "stateMutability": "nonpayable",
      "type": "function"
    },
    {
      "inputs": [
        {
          "internalType": "address",
          "name": "_token",
          "type": "address"
        },
        {
          "internalType": "address",
          "name": "_priceFeed",
          "type": "address"
        }
      ],
      "name": "setPriceFeed",
      "outputs": [],
      "stateMutability": "nonpayable",
      "type": "function"
    }
  ],
  "bytecode": "0x608060405234801561001057600080fd5b50336000806101000a81548173ffffffffffffffffffffffffffffffffffffffff021916908373ffffffffffffffffffffffffffffffffffffffff16021790555060018060003373ffffffffffffffffffffffffffffffffffffffff1673ffffffffffffffffffffffffffffffffffffffff16815260200190815260200160002060006101000a81548160ff021916908315150217905550610c80806100b76000396000f3fe608060405234801561001057600080fd5b50600436106100625760003560e01c806324d7806c146100675780634b0bddd21461009757806374e1fd6a146100b357806376e11286146100cf5780638da5cb5b146100eb578063db0d7f6a14610109575b600080fd5b610081600480360381019061007c9190610618565b610139565b60405161008e9190610660565b60405180910390f35b6100b160048036038101906100ac91906106a7565b610159565b005b6100cd60048036038101906100c89190610939565b610242565b005b6100e960048036038101906100e491906109b1565b61043f565b005b6100f361054f565b6040516101009190610a00565b60405180910390f35b610123600480360381019061011e9190610618565b610573565b6040516101309190610a00565b60405180910390f35b60016020528060005260406000206000915054906101000a900460ff1681565b60008054906101000a900473ffffffffffffffffffffffffffffffffffffffff1673ffffffffffffffffffffffffffffffffffffffff163373ffffffffffffffffffffffffffffffffffffffff16146101e7576040517f08c379a00000000000000000000000000000000000000000000000000000000081526004016101de90610a78565b60405180910390fd5b80600160008473ffffffffffffffffffffffffffffffffffffffff1673ffffffffffffffffffffffffffffffffffffffff16815260200190815260200160002060006101000a81548160ff0219169083151502179055505050565b600160003373ffffffffffffffffffffffffffffffffffffffff1673ffffffffffffffffffffffffffffffffffffffff16815260200190815260200160002060009054906101000a900460ff166102ce576040517f08c379a00000000000000000000000000000000000000000000000000000000081526004016102c590610ae4565b60405180910390fd5b60008251905081518114610317576040517f08c379a000000000000000000000000000000000000000000000000000000000815260040161030e90610b50565b60405180910390fd5b60005b818110156104395760006002600086848151811061033b5761033a610b70565b5b602002602001015173ffffffffffffffffffffffffffffffffffffffff1673ffffffffffffffffffffffffffffffffffffffff16815260200190815260200160002060009054906101000a900473ffffffffffffffffffffffffffffffffffffffff1690508073ffffffffffffffffffffffffffffffffffffffff166304ea97b08584815181106103cf576103ce610b70565b5b60200260200101516040518263ffffffff1660e01b81526004016103f39190610bae565b600060405180830381600087803b15801561040d57600080fd5b505af1158015610421573d6000803e3d6000fd5b5050505050808061043190610c02565b91505061031a565b50505050565b60008054906101000a900473ffffffffffffffffffffffffffffffffffffffff1673ffffffffffffffffffffffffffffffffffffffff163373ffffffffffffffffffffffffffffffffffffffff16146104cd576040517f08c379a00000000000000000000000000000000000000000000000000000000081526004016104c490610a78565b60405180910390fd5b80600260008473ffffffffffffffffffffffffffffffffffffffff1673ffffffffffffffffffffffffffffffffffffffff16815260200190815260200160002060006101000a81548173ffffffffffffffffffffffffffffffffffffffff021916908373ffffffffffffffffffffffffffffffffffffffff1602179055505050565b60008054906101000a900473ffffffffffffffffffffffffffffffffffffffff1681565b60026020528060005260406000206000915054906101000a900473ffffffffffffffffffffffffffffffffffffffff1681565b6000604051905090565b600080fd5b600080fd5b600073ffffffffffffffffffffffffffffffffffffffff82169050919050565b60006105e5826105ba565b9050919050565b6105f5816105da565b811461060057600080fd5b50565b600081359050610612816105ec565b92915050565b60006020828403121561062e5761062d6105b0565b5b600061063c84828501610603565b91505092915050565b60008115159050919050565b61065a81610645565b82525050565b60006020820190506106756000830184610651565b92915050565b61068481610645565b811461068f57600080fd5b50565b6000813590506106a18161067b565b92915050565b600080604083850312156106be576106bd6105b0565b5b60006106cc85828601610603565b92505060206106dd85828601610692565b9150509250929050565b600080fd5b6000601f19601f8301169050919050565b7f4e487b7100000000000000000000000000000000000000000000000000000000600052604160045260246000fd5b610735826106ec565b810181811067ffffffffffffffff82111715610754576107536106fd565b5b80604052505050565b60006107676105a6565b9050610773828261072c565b919050565b600067ffffffffffffffff821115610793576107926106fd565b5b602082029050602081019050919050565b600080fd5b60006107bc6107b784610778565b61075d565b905080838252602082019050602084028301858111156107df576107de6107a4565b5b835b8181101561080857806107f48882610603565b8452602084019350506020810190506107e1565b5050509392505050565b600082601f830112610827576108266106e7565b5b81356108378482602086016107a9565b91505092915050565b600067ffffffffffffffff82111561085b5761085a6106fd565b5b602082029050602081019050919050565b6000819050919050565b61087f8161086c565b811461088a57600080fd5b50565b60008135905061089c81610876565b92915050565b60006108b56108b084610840565b61075d565b905080838252602082019050602084028301858111156108d8576108d76107a4565b5b835b8181101561090157806108ed888261088d565b8452602084019350506020810190506108da565b5050509392505050565b600082601f8301126109205761091f6106e7565b5b81356109308482602086016108a2565b91505092915050565b600080604083850312156109505761094f6105b0565b5b600083013567ffffffffffffffff81111561096e5761096d6105b5565b5b61097a85828601610812565b925050602083013567ffffffffffffffff81111561099b5761099a6105b5565b5b6109a78582860161090b565b9150509250929050565b600080604083850312156109c8576109c76105b0565b5b60006109d685828601610603565b92505060206109e785828601610603565b9150509250929050565b6109fa816105da565b82525050565b6000602082019050610a1560008301846109f1565b92915050565b600082825260208201905092915050565b7f5072696365466565643a20666f7262696464656e000000000000000000000000600082015250565b6000610a62601483610a1b565b9150610a6d82610a2c565b602082019050919050565b60006020820190508181036000830152610a9181610a55565b9050919050565b7f507269636546656564476f763a20666f7262696464656e000000000000000000600082015250565b6000610ace601783610a1b565b9150610ad982610a98565b602082019050919050565b60006020820190508181036000830152610afd81610ac1565b9050919050565b7f507269636546656564476f763a206c656e677468000000000000000000000000600082015250565b6000610b3a601483610a1b565b9150610b4582610b04565b602082019050919050565b60006020820190508181036000830152610b6981610b2d565b9050919050565b7f4e487b7100000000000000000000000000000000000000000000000000000000600052603260045260246000fd5b610ba88161086c565b82525050565b6000602082019050610bc36000830184610b9f565b92915050565b7f4e487b7100000000000000000000000000000000000000000000000000000000600052601160045260246000fd5b6000819050919050565b6000610c0d82610bf8565b91507fffffffffffffffffffffffffffffffffffffffffffffffffffffffffffffffff8203610c3f57610c3e610bc9565b5b60018201905091905056fea2646970667358221220768108be8cb682cbf88a5ae81c9d987aec3171f7e35597dfd9dbdab2f0358b0b64736f6c634300080d0033",
  "linkReferences": {},
  "deployedLinkReferences": {}
}