{
  "_format": "hh-sol-artifact-1",
  "contractName": "PriceFeed",
  "sourceName": "contracts/PriceFeed.sol",
  "abi": [
    {
      "inputs": [],
      "stateMutability": "nonpayable",
      "type": "constructor"
    },
    {
      "inputs": [],
      "name": "aggregator",
      "outputs": [
        {
          "internalType": "address",
          "name": "",
          "type": "address"
        }
      ],
      "stateMutability": "view",
      "type": "function"
    },
    {
      "inputs": [],
      "name": "answer",
      "outputs": [
        {
          "internalType": "int256",
          "name": "",
          "type": "int256"
        }
      ],
      "stateMutability": "view",
      "type": "function"
    },
    {
      "inputs": [
        {
          "internalType": "uint80",
          "name": "",
          "type": "uint80"
        }
      ],
      "name": "answers",
      "outputs": [
        {
          "internalType": "int256",
          "name": "",
          "type": "int256"
        }
      ],
      "stateMutability": "view",
      "type": "function"
    },
    {
      "inputs": [],
      "name": "decimals",
      "outputs": [
        {
          "internalType": "uint256",
          "name": "",
          "type": "uint256"
        }
      ],
      "stateMutability": "view",
      "type": "function"
    },
    {
      "inputs": [],
      "name": "description",
      "outputs": [
        {
          "internalType": "string",
          "name": "",
          "type": "string"
        }
      ],
      "stateMutability": "view",
      "type": "function"
    },
    {
      "inputs": [],
      "name": "getDecimals",
      "outputs": [
        {
          "internalType": "uint256",
          "name": "",
          "type": "uint256"
        }
      ],
      "stateMutability": "view",
      "type": "function"
    },
    {
      "inputs": [
        {
          "internalType": "uint80",
          "name": "_roundId",
          "type": "uint80"
        }
      ],
      "name": "getRoundData",
      "outputs": [
        {
          "internalType": "uint80",
          "name": "",
          "type": "uint80"
        },
        {
          "internalType": "int256",
          "name": "",
          "type": "int256"
        },
        {
          "internalType": "uint256",
          "name": "",
          "type": "uint256"
        },
        {
          "internalType": "uint256",
          "name": "",
          "type": "uint256"
        },
        {
          "internalType": "uint80",
          "name": "",
          "type": "uint80"
        }
      ],
      "stateMutability": "view",
      "type": "function"
    },
    {
      "inputs": [
        {
          "internalType": "address",
          "name": "",
          "type": "address"
        }
      ],
      "name": "isGov",
      "outputs": [
        {
          "internalType": "bool",
          "name": "",
          "type": "bool"
        }
      ],
      "stateMutability": "view",
      "type": "function"
    },
    {
      "inputs": [],
      "name": "latestAnswer",
      "outputs": [
        {
          "internalType": "int256",
          "name": "",
          "type": "int256"
        }
      ],
      "stateMutability": "view",
      "type": "function"
    },
    {
      "inputs": [],
      "name": "latestRound",
      "outputs": [
        {
          "internalType": "uint80",
          "name": "",
          "type": "uint80"
        }
      ],
      "stateMutability": "view",
      "type": "function"
    },
    {
      "inputs": [],
      "name": "owner",
      "outputs": [
        {
          "internalType": "address",
          "name": "",
          "type": "address"
        }
      ],
      "stateMutability": "view",
      "type": "function"
    },
    {
      "inputs": [],
      "name": "roundId",
      "outputs": [
        {
          "internalType": "uint80",
          "name": "",
          "type": "uint80"
        }
      ],
      "stateMutability": "view",
      "type": "function"
    },
    {
      "inputs": [
        {
          "internalType": "address",
          "name": "_account",
          "type": "address"
        },
        {
          "internalType": "bool",
          "name": "_isGov",
          "type": "bool"
        }
      ],
      "name": "setGov",
      "outputs": [],
      "stateMutability": "nonpayable",
      "type": "function"
    },
    {
      "inputs": [
        {
          "internalType": "int256",
          "name": "_answer",
          "type": "int256"
        }
      ],
      "name": "setLatestAnswer",
      "outputs": [],
      "stateMutability": "nonpayable",
      "type": "function"
    }
  ],
  "bytecode": "0x60806040526040518060400160405280600981526020017f5072696365466565640000000000000000000000000000000000000000000000815250600290805190602001906200005192919062000104565b50601e6004553480156200006457600080fd5b5033600560006101000a81548173ffffffffffffffffffffffffffffffffffffffff021916908373ffffffffffffffffffffffffffffffffffffffff1602179055506001600760003373ffffffffffffffffffffffffffffffffffffffff1673ffffffffffffffffffffffffffffffffffffffff16815260200190815260200160002060006101000a81548160ff02191690831515021790555062000218565b8280546200011290620001e3565b90600052602060002090601f01602090048101928262000136576000855562000182565b82601f106200015157805160ff191683800117855562000182565b8280016001018555821562000182579182015b828111156200018157825182559160200191906001019062000164565b5b50905062000191919062000195565b5090565b5b80821115620001b057600081600090555060010162000196565b5090565b7f4e487b7100000000000000000000000000000000000000000000000000000000600052602260045260246000fd5b60006002820490506001821680620001fc57607f821691505b602082108103620002125762000211620001b4565b5b50919050565b610bd180620002286000396000f3fe608060405234801561001057600080fd5b50600436106100ea5760003560e01c80637d295aa91161008c5780638da5cb5b116100665780638da5cb5b146102295780639a6fc8f514610247578063d06374e31461027b578063f0141d84146102ab576100ea565b80637d295aa9146101d157806385bb7d69146101ed5780638cd221c91461020b576100ea565b80634c295ca3116100c85780634c295ca31461014757806350d25bcd14610177578063668a0f02146101955780637284e416146101b3576100ea565b806304ea97b0146100ef578063245a7bfc1461010b578063313ce56714610129575b600080fd5b610109600480360381019061010491906106d7565b6102c9565b005b6101136103f7565b6040516101209190610745565b60405180910390f35b61013161041d565b60405161013e9190610779565b60405180910390f35b610161600480360381019061015c91906107d6565b610423565b60405161016e9190610812565b60405180910390f35b61017f61043b565b60405161018c9190610812565b60405180910390f35b61019d610444565b6040516101aa919061083c565b60405180910390f35b6101bb610464565b6040516101c891906108f0565b60405180910390f35b6101eb60048036038101906101e69190610976565b6104f2565b005b6101f56105dd565b6040516102029190610812565b60405180910390f35b6102136105e3565b604051610220919061083c565b60405180910390f35b6102316105ff565b60405161023e9190610745565b60405180910390f35b610261600480360381019061025c91906107d6565b610625565b6040516102729594939291906109b6565b60405180910390f35b61029560048036038101906102909190610a09565b610672565b6040516102a29190610a45565b60405180910390f35b6102b3610692565b6040516102c09190610779565b60405180910390f35b600760003373ffffffffffffffffffffffffffffffffffffffff1673ffffffffffffffffffffffffffffffffffffffff16815260200190815260200160002060009054906101000a900460ff16610355576040517f08c379a000000000000000000000000000000000000000000000000000000000815260040161034c90610aac565b60405180910390fd5b60018060009054906101000a900469ffffffffffffffffffff166103799190610afb565b600160006101000a81548169ffffffffffffffffffff021916908369ffffffffffffffffffff160217905550806000819055508060066000600160009054906101000a900469ffffffffffffffffffff1669ffffffffffffffffffff1669ffffffffffffffffffff1681526020019081526020016000208190555050565b600360009054906101000a900473ffffffffffffffffffffffffffffffffffffffff1681565b60045481565b60066020528060005260406000206000915090505481565b60008054905090565b6000600160009054906101000a900469ffffffffffffffffffff16905090565b6002805461047190610b6a565b80601f016020809104026020016040519081016040528092919081815260200182805461049d90610b6a565b80156104ea5780601f106104bf576101008083540402835291602001916104ea565b820191906000526020600020905b8154815290600101906020018083116104cd57829003601f168201915b505050505081565b600560009054906101000a900473ffffffffffffffffffffffffffffffffffffffff1673ffffffffffffffffffffffffffffffffffffffff163373ffffffffffffffffffffffffffffffffffffffff1614610582576040517f08c379a000000000000000000000000000000000000000000000000000000000815260040161057990610aac565b60405180910390fd5b80600760008473ffffffffffffffffffffffffffffffffffffffff1673ffffffffffffffffffffffffffffffffffffffff16815260200190815260200160002060006101000a81548160ff0219169083151502179055505050565b60005481565b600160009054906101000a900469ffffffffffffffffffff1681565b600560009054906101000a900473ffffffffffffffffffffffffffffffffffffffff1681565b600080600080600085600660008869ffffffffffffffffffff1669ffffffffffffffffffff1681526020019081526020016000205460008060009450945094509450945091939590929450565b60076020528060005260406000206000915054906101000a900460ff1681565b6000600454905090565b600080fd5b6000819050919050565b6106b4816106a1565b81146106bf57600080fd5b50565b6000813590506106d1816106ab565b92915050565b6000602082840312156106ed576106ec61069c565b5b60006106fb848285016106c2565b91505092915050565b600073ffffffffffffffffffffffffffffffffffffffff82169050919050565b600061072f82610704565b9050919050565b61073f81610724565b82525050565b600060208201905061075a6000830184610736565b92915050565b6000819050919050565b61077381610760565b82525050565b600060208201905061078e600083018461076a565b92915050565b600069ffffffffffffffffffff82169050919050565b6107b381610794565b81146107be57600080fd5b50565b6000813590506107d0816107aa565b92915050565b6000602082840312156107ec576107eb61069c565b5b60006107fa848285016107c1565b91505092915050565b61080c816106a1565b82525050565b60006020820190506108276000830184610803565b92915050565b61083681610794565b82525050565b6000602082019050610851600083018461082d565b92915050565b600081519050919050565b600082825260208201905092915050565b60005b83811015610891578082015181840152602081019050610876565b838111156108a0576000848401525b50505050565b6000601f19601f8301169050919050565b60006108c282610857565b6108cc8185610862565b93506108dc818560208601610873565b6108e5816108a6565b840191505092915050565b6000602082019050818103600083015261090a81846108b7565b905092915050565b61091b81610724565b811461092657600080fd5b50565b60008135905061093881610912565b92915050565b60008115159050919050565b6109538161093e565b811461095e57600080fd5b50565b6000813590506109708161094a565b92915050565b6000806040838503121561098d5761098c61069c565b5b600061099b85828601610929565b92505060206109ac85828601610961565b9150509250929050565b600060a0820190506109cb600083018861082d565b6109d86020830187610803565b6109e5604083018661076a565b6109f2606083018561076a565b6109ff608083018461082d565b9695505050505050565b600060208284031215610a1f57610a1e61069c565b5b6000610a2d84828501610929565b91505092915050565b610a3f8161093e565b82525050565b6000602082019050610a5a6000830184610a36565b92915050565b7f5072696365466565643a20666f7262696464656e000000000000000000000000600082015250565b6000610a96601483610862565b9150610aa182610a60565b602082019050919050565b60006020820190508181036000830152610ac581610a89565b9050919050565b7f4e487b7100000000000000000000000000000000000000000000000000000000600052601160045260246000fd5b6000610b0682610794565b9150610b1183610794565b92508269ffffffffffffffffffff03821115610b3057610b2f610acc565b5b828201905092915050565b7f4e487b7100000000000000000000000000000000000000000000000000000000600052602260045260246000fd5b60006002820490506001821680610b8257607f821691505b602082108103610b9557610b94610b3b565b5b5091905056fea264697066735822122076f44ddd023958c09b351fb1338600339322d425ea33cad5b3ff6f3005a114a964736f6c634300080d0033",
  "linkReferences": {},
  "deployedLinkReferences": {}
}