{
  "_format": "hh-sol-artifact-1",
  "contractName": "SignUpContract",
  "sourceName": "contracts/SignUpContract.sol",
  "abi": [
    {
      "anonymous": false,
      "inputs": [
        {
          "indexed": false,
          "internalType": "uint8",
          "name": "version",
          "type": "uint8"
        }
      ],
      "name": "Initialized",
      "type": "event"
    },
    {
      "anonymous": false,
      "inputs": [
        {
          "indexed": true,
          "internalType": "address",
          "name": "previousOwner",
          "type": "address"
        },
        {
          "indexed": true,
          "internalType": "address",
          "name": "newOwner",
          "type": "address"
        }
      ],
      "name": "OwnershipTransferred",
      "type": "event"
    },
    {
      "anonymous": false,
      "inputs": [
        {
          "indexed": false,
          "internalType": "address",
          "name": "register",
          "type": "address"
        },
        {
          "indexed": false,
          "internalType": "bytes4",
          "name": "slfeCode",
          "type": "bytes4"
        },
        {
          "indexed": false,
          "internalType": "address",
          "name": "inviter",
          "type": "address"
        }
      ],
      "name": "SignUp",
      "type": "event"
    },
    {
      "inputs": [
        {
          "internalType": "address",
          "name": "_register",
          "type": "address"
        },
        {
          "internalType": "bytes4",
          "name": "_inviterCode",
          "type": "bytes4"
        }
      ],
      "name": "addNodeUser",
      "outputs": [],
      "stateMutability": "nonpayable",
      "type": "function"
    },
    {
      "inputs": [
        {
          "internalType": "address",
          "name": "_register",
          "type": "address"
        },
        {
          "internalType": "bytes4",
          "name": "_inviterCode",
          "type": "bytes4"
        }
      ],
      "name": "addNotNodeUser",
      "outputs": [],
      "stateMutability": "nonpayable",
      "type": "function"
    },
    {
      "inputs": [
        {
          "internalType": "address",
          "name": "_user",
          "type": "address"
        },
        {
          "internalType": "enum CommonEnums.NodeLevel",
          "name": "_newLevel",
          "type": "uint8"
        }
      ],
      "name": "changeNodeLevel",
      "outputs": [],
      "stateMutability": "nonpayable",
      "type": "function"
    },
    {
      "inputs": [
        {
          "internalType": "address",
          "name": "_user",
          "type": "address"
        },
        {
          "internalType": "uint256",
          "name": "_startIndex",
          "type": "uint256"
        },
        {
          "internalType": "uint256",
          "name": "_pageSize",
          "type": "uint256"
        }
      ],
      "name": "getDirectsByAddress",
      "outputs": [
        {
          "internalType": "address[]",
          "name": "directs_",
          "type": "address[]"
        }
      ],
      "stateMutability": "view",
      "type": "function"
    },
    {
      "inputs": [
        {
          "internalType": "address",
          "name": "_user",
          "type": "address"
        },
        {
          "internalType": "enum CommonEnums.NodeLevel",
          "name": "_directNodeLevel",
          "type": "uint8"
        },
        {
          "internalType": "uint256",
          "name": "_startIndex",
          "type": "uint256"
        },
        {
          "internalType": "uint256",
          "name": "_pageSize",
          "type": "uint256"
        }
      ],
      "name": "getDirectsByAddressAndType",
      "outputs": [
        {
          "internalType": "address[]",
          "name": "directs_",
          "type": "address[]"
        }
      ],
      "stateMutability": "view",
      "type": "function"
    },
    {
      "inputs": [
        {
          "internalType": "address",
          "name": "_user",
          "type": "address"
        }
      ],
      "name": "getInviter",
      "outputs": [
        {
          "internalType": "address",
          "name": "_inviter",
          "type": "address"
        }
      ],
      "stateMutability": "view",
      "type": "function"
    },
    {
      "inputs": [
        {
          "internalType": "address",
          "name": "_addr",
          "type": "address"
        }
      ],
      "name": "getUserByAddress",
      "outputs": [
        {
          "internalType": "uint256",
          "name": "userType_",
          "type": "uint256"
        },
        {
          "internalType": "address",
          "name": "slfe_",
          "type": "address"
        },
        {
          "internalType": "bytes4",
          "name": "code_",
          "type": "bytes4"
        },
        {
          "internalType": "address",
          "name": "inviter_",
          "type": "address"
        },
        {
          "internalType": "bytes4",
          "name": "inviterCode_",
          "type": "bytes4"
        }
      ],
      "stateMutability": "view",
      "type": "function"
    },
    {
      "inputs": [
        {
          "internalType": "address[]",
          "name": "_addresses",
          "type": "address[]"
        }
      ],
      "name": "getUserNodeLevels",
      "outputs": [
        {
          "internalType": "enum CommonEnums.NodeLevel[]",
          "name": "levels_",
          "type": "uint8[]"
        }
      ],
      "stateMutability": "view",
      "type": "function"
    },
    {
      "inputs": [],
      "name": "initialize",
      "outputs": [],
      "stateMutability": "nonpayable",
      "type": "function"
    },
    {
      "inputs": [
        {
          "internalType": "address",
          "name": "_user",
          "type": "address"
        },
        {
          "internalType": "uint256",
          "name": "_count",
          "type": "uint256"
        }
      ],
      "name": "isSimpleNodeCountEnough",
      "outputs": [
        {
          "internalType": "bool",
          "name": "isEnough_",
          "type": "bool"
        },
        {
          "internalType": "uint256",
          "name": "realCount_",
          "type": "uint256"
        }
      ],
      "stateMutability": "view",
      "type": "function"
    },
    {
      "inputs": [],
      "name": "owner",
      "outputs": [
        {
          "internalType": "address",
          "name": "",
          "type": "address"
        }
      ],
      "stateMutability": "view",
      "type": "function"
    },
    {
      "inputs": [],
      "name": "prelaleContractAddr",
      "outputs": [
        {
          "internalType": "address",
          "name": "",
          "type": "address"
        }
      ],
      "stateMutability": "view",
      "type": "function"
    },
    {
      "inputs": [],
      "name": "renounceOwnership",
      "outputs": [],
      "stateMutability": "nonpayable",
      "type": "function"
    },
    {
      "inputs": [
        {
          "internalType": "address",
          "name": "_user",
          "type": "address"
        }
      ],
      "name": "resetUserNodeLevel",
      "outputs": [],
      "stateMutability": "nonpayable",
      "type": "function"
    },
    {
      "inputs": [
        {
          "internalType": "uint256[]",
          "name": "_types",
          "type": "uint256[]"
        },
        {
          "internalType": "address[]",
          "name": "_addresses",
          "type": "address[]"
        }
      ],
      "name": "setAddress",
      "outputs": [],
      "stateMutability": "nonpayable",
      "type": "function"
    },
    {
      "inputs": [
        {
          "components": [
            {
              "internalType": "enum CommonEnums.NodeLevel",
              "name": "nodeLevel",
              "type": "uint8"
            },
            {
              "internalType": "address",
              "name": "slfeAddress",
              "type": "address"
            },
            {
              "internalType": "bytes4",
              "name": "slfeCode",
              "type": "bytes4"
            },
            {
              "internalType": "address",
              "name": "inviter",
              "type": "address"
            },
            {
              "internalType": "bytes4",
              "name": "inviterCode",
              "type": "bytes4"
            }
          ],
          "internalType": "struct SignUpContract.UserInfo[]",
          "name": "_userInfos",
          "type": "tuple[]"
        }
      ],
      "name": "setUserInfo",
      "outputs": [],
      "stateMutability": "nonpayable",
      "type": "function"
    },
    {
      "inputs": [
        {
          "internalType": "bytes4",
          "name": "_inviterCode",
          "type": "bytes4"
        }
      ],
      "name": "signUp",
      "outputs": [],
      "stateMutability": "nonpayable",
      "type": "function"
    },
    {
      "inputs": [
        {
          "internalType": "address",
          "name": "newOwner",
          "type": "address"
        }
      ],
      "name": "transferOwnership",
      "outputs": [],
      "stateMutability": "nonpayable",
      "type": "function"
    },
    {
      "inputs": [
        {
          "internalType": "address",
          "name": "",
          "type": "address"
        }
      ],
      "name": "userByAddress",
      "outputs": [
        {
          "internalType": "enum CommonEnums.NodeLevel",
          "name": "nodeLevel",
          "type": "uint8"
        },
        {
          "internalType": "address",
          "name": "slfeAddress",
          "type": "address"
        },
        {
          "internalType": "bytes4",
          "name": "slfeCode",
          "type": "bytes4"
        },
        {
          "internalType": "address",
          "name": "inviter",
          "type": "address"
        },
        {
          "internalType": "bytes4",
          "name": "inviterCode",
          "type": "bytes4"
        }
      ],
      "stateMutability": "view",
      "type": "function"
    },
    {
      "inputs": [
        {
          "internalType": "bytes4",
          "name": "",
          "type": "bytes4"
        }
      ],
      "name": "userByInviteCode",
      "outputs": [
        {
          "internalType": "address",
          "name": "",
          "type": "address"
        }
      ],
      "stateMutability": "view",
      "type": "function"
    }
  ],
  "bytecode": "0x608060405234801561001057600080fd5b506140bf806100206000396000f3fe608060405234801561001057600080fd5b506004361061012c5760003560e01c80639f1aab8e116100ad578063cda8b8a311610071578063cda8b8a314610321578063ce422b6e14610352578063d216ce6f14610382578063f2fde38b146103b2578063fd2b37e7146103ce5761012c565b80639f1aab8e1461027f5780639f95943f1461029b578063ac5f470a146102cb578063ba41a592146102e7578063cba351ef146103035761012c565b8063715018a6116100f4578063715018a6146101e95780638129fc1c146101f35780638caf6d30146101fd5780638da5cb5b1461022d578063989e5ea91461024b5761012c565b80631527605b1461013157806344a56afd1461014d578063508a509f1461017d57806368bb9a101461019957806369c212f6146101b5575b600080fd5b61014b60048036038101906101469190612e91565b6103ea565b005b61016760048036038101906101629190613075565b6104ca565b60405161017491906131e4565b60405180910390f35b61019760048036038101906101929190613261565b6105ec565b005b6101b360048036038101906101ae91906132ae565b6109a0565b005b6101cf60048036038101906101ca91906132ee565b610a40565b6040516101e0959493929190613352565b60405180910390f35b6101f1610c65565b005b6101fb610c79565b005b610217600480360381019061021291906133f6565b610db7565b604051610224919061351b565b60405180910390f35b610235611071565b604051610242919061353d565b60405180910390f35b610265600480360381019061026091906132ee565b61109b565b604051610276959493929190613567565b60405180910390f35b610299600480360381019061029491906132ee565b611138565b005b6102b560048036038101906102b091906135ba565b61173d565b6040516102c2919061351b565b60405180910390f35b6102e560048036038101906102e091906136d0565b61198c565b005b61030160048036038101906102fc91906132ae565b611a7a565b005b61030b611b1a565b604051610318919061353d565b60405180910390f35b61033b60048036038101906103369190613748565b611b40565b6040516103499291906137a3565b60405180910390f35b61036c60048036038101906103679190612e91565b611f21565b604051610379919061353d565b60405180910390f35b61039c600480360381019061039791906132ee565b611f54565b6040516103a9919061353d565b60405180910390f35b6103cc60048036038101906103c791906132ee565b611fc0565b005b6103e860048036038101906103e391906137cc565b612043565b005b606760003373ffffffffffffffffffffffffffffffffffffffff1673ffffffffffffffffffffffffffffffffffffffff16815260200190815260200160002060000160019054906101000a900473ffffffffffffffffffffffffffffffffffffffff1673ffffffffffffffffffffffffffffffffffffffff16600073ffffffffffffffffffffffffffffffffffffffff16146104bb576040517f08c379a00000000000000000000000000000000000000000000000000000000081526004016104b290613869565b60405180910390fd5b6104c733826000612335565b50565b6060815167ffffffffffffffff8111156104e7576104e6612ed4565b5b6040519080825280602002602001820160405280156105155781602001602082028036833780820191505090505b50905060005b82518110156105e6576067600084838151811061053b5761053a613889565b5b602002602001015173ffffffffffffffffffffffffffffffffffffffff1673ffffffffffffffffffffffffffffffffffffffff16815260200190815260200160002060000160009054906101000a900460ff168282815181106105a1576105a0613889565b5b602002602001019060038111156105bb576105ba6130ea565b5b908160038111156105cf576105ce6130ea565b5b8152505080806105de906138e7565b91505061051b565b50919050565b6105f4612878565b60005b8282905081101561099b57600083838381811061061757610616613889565b5b905060a0020180360381019061062d91906139c0565b90508060676000836020015173ffffffffffffffffffffffffffffffffffffffff1673ffffffffffffffffffffffffffffffffffffffff16815260200190815260200160002060008201518160000160006101000a81548160ff0219169083600381111561069e5761069d6130ea565b5b021790555060208201518160000160016101000a81548173ffffffffffffffffffffffffffffffffffffffff021916908373ffffffffffffffffffffffffffffffffffffffff16021790555060408201518160000160156101000a81548163ffffffff021916908360e01c021790555060608201518160010160006101000a81548173ffffffffffffffffffffffffffffffffffffffff021916908373ffffffffffffffffffffffffffffffffffffffff16021790555060808201518160010160146101000a81548163ffffffff021916908360e01c021790555090505080602001516066600083604001517bffffffffffffffffffffffffffffffffffffffffffffffffffffffff19167bffffffffffffffffffffffffffffffffffffffffffffffffffffffff1916815260200190815260200160002060006101000a81548173ffffffffffffffffffffffffffffffffffffffff021916908373ffffffffffffffffffffffffffffffffffffffff1602179055507f1e33070f250b5aa53a7c4465ad26182331ac65e673b8769a13e92b129fc76f80816020015182604001518360600151604051610853939291906139ed565b60405180910390a1806060015173ffffffffffffffffffffffffffffffffffffffff16600073ffffffffffffffffffffffffffffffffffffffff16036108995750610988565b6108f2816020015160686000846060015173ffffffffffffffffffffffffffffffffffffffff1673ffffffffffffffffffffffffffffffffffffffff1681526020019081526020016000206128f690919063ffffffff16565b50610985816020015160696000846060015173ffffffffffffffffffffffffffffffffffffffff1673ffffffffffffffffffffffffffffffffffffffff168152602001908152602001600020600084600001516003811115610957576109566130ea565b5b6003811115610969576109686130ea565b5b81526020019081526020016000206128f690919063ffffffff16565b50505b8080610993906138e7565b9150506105f7565b505050565b606560009054906101000a900473ffffffffffffffffffffffffffffffffffffffff1673ffffffffffffffffffffffffffffffffffffffff163373ffffffffffffffffffffffffffffffffffffffff1614610a30576040517f08c379a0000000000000000000000000000000000000000000000000000000008152600401610a2790613a70565b60405180910390fd5b610a3c82826001612335565b5050565b600080600080600080606760008873ffffffffffffffffffffffffffffffffffffffff1673ffffffffffffffffffffffffffffffffffffffff1681526020019081526020016000206040518060a00160405290816000820160009054906101000a900460ff166003811115610ab857610ab76130ea565b5b6003811115610aca57610ac96130ea565b5b81526020016000820160019054906101000a900473ffffffffffffffffffffffffffffffffffffffff1673ffffffffffffffffffffffffffffffffffffffff1673ffffffffffffffffffffffffffffffffffffffff1681526020016000820160159054906101000a900460e01b7bffffffffffffffffffffffffffffffffffffffffffffffffffffffff19167bffffffffffffffffffffffffffffffffffffffffffffffffffffffff191681526020016001820160009054906101000a900473ffffffffffffffffffffffffffffffffffffffff1673ffffffffffffffffffffffffffffffffffffffff1673ffffffffffffffffffffffffffffffffffffffff1681526020016001820160149054906101000a900460e01b7bffffffffffffffffffffffffffffffffffffffffffffffffffffffff19167bffffffffffffffffffffffffffffffffffffffffffffffffffffffff191681525050905080600001516003811115610c3d57610c3c6130ea565b5b8160200151826040015183606001518460800151955095509550955095505091939590929450565b610c6d612878565b610c776000612926565b565b60008060019054906101000a900460ff16159050808015610caa5750600160008054906101000a900460ff1660ff16105b80610cd75750610cb9306129ec565b158015610cd65750600160008054906101000a900460ff1660ff16145b5b610d16576040517f08c379a0000000000000000000000000000000000000000000000000000000008152600401610d0d90613b02565b60405180910390fd5b60016000806101000a81548160ff021916908360ff1602179055508015610d53576001600060016101000a81548160ff0219169083151502179055505b610d5b612a0f565b8015610db45760008060016101000a81548160ff0219169083151502179055507f7f26b83ff96e1f2b6a682f133852f6798a09c465da95921460cefb38474024986001604051610dab9190613b74565b60405180910390a15b50565b60606064821115610dfd576040517f08c379a0000000000000000000000000000000000000000000000000000000008152600401610df490613bdb565b60405180910390fd5b6000610e7b606960008873ffffffffffffffffffffffffffffffffffffffff1673ffffffffffffffffffffffffffffffffffffffff1681526020019081526020016000206000876003811115610e5657610e556130ea565b5b6003811115610e6857610e676130ea565b5b8152602001908152602001600020612a68565b9050808410610ed657600067ffffffffffffffff811115610e9f57610e9e612ed4565b5b604051908082528060200260200182016040528015610ecd5781602001602082028036833780820191505090505b50915050611069565b6000610eeb8486612a7d90919063ffffffff16565b905081811115610ef9578190505b6000610f0e8683612a9390919063ffffffff16565b905060008167ffffffffffffffff811115610f2c57610f2b612ed4565b5b604051908082528060200260200182016040528015610f5a5781602001602082028036833780820191505090505b50905060005b8281101561106057611000610f7e828a612a7d90919063ffffffff16565b606960008d73ffffffffffffffffffffffffffffffffffffffff1673ffffffffffffffffffffffffffffffffffffffff16815260200190815260200160002060008c6003811115610fd257610fd16130ea565b5b6003811115610fe457610fe36130ea565b5b8152602001908152602001600020612aa990919063ffffffff16565b82828151811061101357611012613889565b5b602002602001019073ffffffffffffffffffffffffffffffffffffffff16908173ffffffffffffffffffffffffffffffffffffffff16815250508080611058906138e7565b915050610f60565b50809450505050505b949350505050565b6000603360009054906101000a900473ffffffffffffffffffffffffffffffffffffffff16905090565b60676020528060005260406000206000915090508060000160009054906101000a900460ff16908060000160019054906101000a900473ffffffffffffffffffffffffffffffffffffffff16908060000160159054906101000a900460e01b908060010160009054906101000a900473ffffffffffffffffffffffffffffffffffffffff16908060010160149054906101000a900460e01b905085565b6000606760008373ffffffffffffffffffffffffffffffffffffffff1673ffffffffffffffffffffffffffffffffffffffff168152602001908152602001600020905060038081111561118e5761118d6130ea565b5b8160000160009054906101000a900460ff1660038111156111b2576111b16130ea565b5b036111bd575061173a565b6000606860008473ffffffffffffffffffffffffffffffffffffffff1673ffffffffffffffffffffffffffffffffffffffff1681526020019081526020016000209050600361120b82612a68565b101561121857505061173a565b6000805b61122583612a68565b811015611735576000606760006112458487612aa990919063ffffffff16565b73ffffffffffffffffffffffffffffffffffffffff1673ffffffffffffffffffffffffffffffffffffffff1681526020019081526020016000206040518060a00160405290816000820160009054906101000a900460ff1660038111156112af576112ae6130ea565b5b60038111156112c1576112c06130ea565b5b81526020016000820160019054906101000a900473ffffffffffffffffffffffffffffffffffffffff1673ffffffffffffffffffffffffffffffffffffffff1673ffffffffffffffffffffffffffffffffffffffff1681526020016000820160159054906101000a900460e01b7bffffffffffffffffffffffffffffffffffffffffffffffffffffffff19167bffffffffffffffffffffffffffffffffffffffffffffffffffffffff191681526020016001820160009054906101000a900473ffffffffffffffffffffffffffffffffffffffff1673ffffffffffffffffffffffffffffffffffffffff1673ffffffffffffffffffffffffffffffffffffffff1681526020016001820160149054906101000a900460e01b7bffffffffffffffffffffffffffffffffffffffffffffffffffffffff19167bffffffffffffffffffffffffffffffffffffffffffffffffffffffff191681525050905060006003811115611431576114306130ea565b5b8560000160009054906101000a900460ff166003811115611455576114546130ea565b5b1480611499575080600001516003811115611473576114726130ea565b5b8560000160009054906101000a900460ff166003811115611497576114966130ea565b5b115b156114a45750611722565b6001836114b19190613bfb565b9250600383106117205761159a8560000160019054906101000a900473ffffffffffffffffffffffffffffffffffffffff16606960008860010160009054906101000a900473ffffffffffffffffffffffffffffffffffffffff1673ffffffffffffffffffffffffffffffffffffffff1673ffffffffffffffffffffffffffffffffffffffff16815260200190815260200160002060008860000160009054906101000a900460ff16600381111561156c5761156b6130ea565b5b600381111561157e5761157d6130ea565b5b8152602001908152602001600020612ac390919063ffffffff16565b50600160038111156115af576115ae6130ea565b5b8560000160009054906101000a900460ff1660038111156115d3576115d26130ea565b5b146115df5760036115e2565b60025b8560000160006101000a81548160ff02191690836003811115611608576116076130ea565b5b02179055506116ec8560000160019054906101000a900473ffffffffffffffffffffffffffffffffffffffff16606960008860010160009054906101000a900473ffffffffffffffffffffffffffffffffffffffff1673ffffffffffffffffffffffffffffffffffffffff1673ffffffffffffffffffffffffffffffffffffffff16815260200190815260200160002060008860000160009054906101000a900460ff1660038111156116be576116bd6130ea565b5b60038111156116d0576116cf6130ea565b5b81526020019081526020016000206128f690919063ffffffff16565b5061171a8560010160009054906101000a900473ffffffffffffffffffffffffffffffffffffffff16611138565b50611735565b505b808061172d906138e7565b91505061121c565b505050505b50565b60606064821115611783576040517f08c379a000000000000000000000000000000000000000000000000000000000815260040161177a90613bdb565b60405180910390fd5b60006117cc606860008773ffffffffffffffffffffffffffffffffffffffff1673ffffffffffffffffffffffffffffffffffffffff168152602001908152602001600020612a68565b905080841061182757600067ffffffffffffffff8111156117f0576117ef612ed4565b5b60405190808252806020026020018201604052801561181e5781602001602082028036833780820191505090505b50915050611985565b600061183c8486612a7d90919063ffffffff16565b90508181111561184a578190505b600061185f8683612a9390919063ffffffff16565b905060008167ffffffffffffffff81111561187d5761187c612ed4565b5b6040519080825280602002602001820160405280156118ab5781602001602082028036833780820191505090505b50905060005b8281101561197c5761191c6118cf828a612a7d90919063ffffffff16565b606860008c73ffffffffffffffffffffffffffffffffffffffff1673ffffffffffffffffffffffffffffffffffffffff168152602001908152602001600020612aa990919063ffffffff16565b82828151811061192f5761192e613889565b5b602002602001019073ffffffffffffffffffffffffffffffffffffffff16908173ffffffffffffffffffffffffffffffffffffffff16815250508080611974906138e7565b9150506118b1565b50809450505050505b9392505050565b611994612878565b80518251146119d8576040517f08c379a00000000000000000000000000000000000000000000000000000000081526004016119cf90613c9d565b60405180910390fd5b60005b8251811015611a755760018382815181106119f9576119f8613889565b5b602002602001015103611a6257818181518110611a1957611a18613889565b5b6020026020010151606560006101000a81548173ffffffffffffffffffffffffffffffffffffffff021916908373ffffffffffffffffffffffffffffffffffffffff1602179055505b8080611a6d906138e7565b9150506119db565b505050565b606560009054906101000a900473ffffffffffffffffffffffffffffffffffffffff1673ffffffffffffffffffffffffffffffffffffffff163373ffffffffffffffffffffffffffffffffffffffff1614611b0a576040517f08c379a0000000000000000000000000000000000000000000000000000000008152600401611b0190613a70565b60405180910390fd5b611b1682826000612335565b5050565b606560009054906101000a900473ffffffffffffffffffffffffffffffffffffffff1681565b6000806000606860008673ffffffffffffffffffffffffffffffffffffffff1673ffffffffffffffffffffffffffffffffffffffff16815260200190815260200160002090506000805b611b9383612a68565b811015611ddf57600060676000611bb38487612aa990919063ffffffff16565b73ffffffffffffffffffffffffffffffffffffffff1673ffffffffffffffffffffffffffffffffffffffff1681526020019081526020016000206040518060a00160405290816000820160009054906101000a900460ff166003811115611c1d57611c1c6130ea565b5b6003811115611c2f57611c2e6130ea565b5b81526020016000820160019054906101000a900473ffffffffffffffffffffffffffffffffffffffff1673ffffffffffffffffffffffffffffffffffffffff1673ffffffffffffffffffffffffffffffffffffffff1681526020016000820160159054906101000a900460e01b7bffffffffffffffffffffffffffffffffffffffffffffffffffffffff19167bffffffffffffffffffffffffffffffffffffffffffffffffffffffff191681526020016001820160009054906101000a900473ffffffffffffffffffffffffffffffffffffffff1673ffffffffffffffffffffffffffffffffffffffff1673ffffffffffffffffffffffffffffffffffffffff1681526020016001820160149054906101000a900460e01b7bffffffffffffffffffffffffffffffffffffffffffffffffffffffff19167bffffffffffffffffffffffffffffffffffffffffffffffffffffffff191681525050905080600001516003811115611da257611da16130ea565b5b60016003811115611db657611db56130ea565b5b10611dcb57600183611dc89190613bfb565b92505b508080611dd7906138e7565b915050611b8a565b50848110611df65760016000935093505050611f1a565b60005b611e0283612a68565b811015611f0f5760676000611e208386612aa990919063ffffffff16565b73ffffffffffffffffffffffffffffffffffffffff1673ffffffffffffffffffffffffffffffffffffffff16815260200190815260200160002060000160009054906101000a900460ff166003811115611e7d57611e7c6130ea565b5b60016003811115611e9157611e906130ea565b5b1115611efc576000611eac8388612a9390919063ffffffff16565b9050600080611ecd611ec78588612aa990919063ffffffff16565b84611b40565b915091508115611eea576001600097509750505050505050611f1a565b8085611ef69190613bfb565b94505050505b8080611f07906138e7565b915050611df9565b506000819350935050505b9250929050565b60666020528060005260406000206000915054906101000a900473ffffffffffffffffffffffffffffffffffffffff1681565b6000606760008373ffffffffffffffffffffffffffffffffffffffff1673ffffffffffffffffffffffffffffffffffffffff16815260200190815260200160002060010160009054906101000a900473ffffffffffffffffffffffffffffffffffffffff169050919050565b611fc8612878565b600073ffffffffffffffffffffffffffffffffffffffff168173ffffffffffffffffffffffffffffffffffffffff1603612037576040517f08c379a000000000000000000000000000000000000000000000000000000000815260040161202e90613d2f565b60405180910390fd5b61204081612926565b50565b61204b612878565b6000606760008473ffffffffffffffffffffffffffffffffffffffff1673ffffffffffffffffffffffffffffffffffffffff16815260200190815260200160002090508060010160009054906101000a900473ffffffffffffffffffffffffffffffffffffffff1673ffffffffffffffffffffffffffffffffffffffff16600073ffffffffffffffffffffffffffffffffffffffff16036120ec5750612331565b60018160000160009054906101000a900460ff166003811115612112576121116130ea565b5b836003811115612125576121246130ea565b5b61212f9190613d4f565b1461216f576040517f08c379a000000000000000000000000000000000000000000000000000000000815260040161216690613dcf565b60405180910390fd5b61222a83606960008460010160009054906101000a900473ffffffffffffffffffffffffffffffffffffffff1673ffffffffffffffffffffffffffffffffffffffff1673ffffffffffffffffffffffffffffffffffffffff16815260200190815260200160002060008460000160009054906101000a900460ff1660038111156121fc576121fb6130ea565b5b600381111561220e5761220d6130ea565b5b8152602001908152602001600020612ac390919063ffffffff16565b506122d583606960008460010160009054906101000a900473ffffffffffffffffffffffffffffffffffffffff1673ffffffffffffffffffffffffffffffffffffffff1673ffffffffffffffffffffffffffffffffffffffff16815260200190815260200160002060008560038111156122a7576122a66130ea565b5b60038111156122b9576122b86130ea565b5b81526020019081526020016000206128f690919063ffffffff16565b50818160000160006101000a81548160ff021916908360038111156122fd576122fc6130ea565b5b021790555061232f8160010160009054906101000a900473ffffffffffffffffffffffffffffffffffffffff16611138565b505b5050565b600073ffffffffffffffffffffffffffffffffffffffff168373ffffffffffffffffffffffffffffffffffffffff16036123a4576040517f08c379a000000000000000000000000000000000000000000000000000000000815260040161239b90613e3b565b60405180910390fd5b600060666000847bffffffffffffffffffffffffffffffffffffffffffffffffffffffff19167bffffffffffffffffffffffffffffffffffffffffffffffffffffffff1916815260200190815260200160002060009054906101000a900473ffffffffffffffffffffffffffffffffffffffff169050600060e01b7bffffffffffffffffffffffffffffffffffffffffffffffffffffffff1916837bffffffffffffffffffffffffffffffffffffffffffffffffffffffff1916146124d3578073ffffffffffffffffffffffffffffffffffffffff16600073ffffffffffffffffffffffffffffffffffffffff16036124d2576040517f08c379a00000000000000000000000000000000000000000000000000000000081526004016124c990613ea7565b60405180910390fd5b5b6000606760008673ffffffffffffffffffffffffffffffffffffffff1673ffffffffffffffffffffffffffffffffffffffff16815260200190815260200160002090508060000160019054906101000a900473ffffffffffffffffffffffffffffffffffffffff1673ffffffffffffffffffffffffffffffffffffffff16600073ffffffffffffffffffffffffffffffffffffffff1614612575575050612873565b828160000160006101000a81548160ff0219169083600381111561259c5761259b6130ea565b5b0217905550848160000160016101000a81548173ffffffffffffffffffffffffffffffffffffffff021916908373ffffffffffffffffffffffffffffffffffffffff1602179055506125ed85612af3565b8160000160156101000a81548163ffffffff021916908360e01c021790555084606660008360000160159054906101000a900460e01b7bffffffffffffffffffffffffffffffffffffffffffffffffffffffff19167bffffffffffffffffffffffffffffffffffffffffffffffffffffffff1916815260200190815260200160002060006101000a81548173ffffffffffffffffffffffffffffffffffffffff021916908373ffffffffffffffffffffffffffffffffffffffff1602179055508173ffffffffffffffffffffffffffffffffffffffff16600073ffffffffffffffffffffffffffffffffffffffff16036126e8575050612873565b818160010160006101000a81548173ffffffffffffffffffffffffffffffffffffffff021916908373ffffffffffffffffffffffffffffffffffffffff160217905550838160010160146101000a81548163ffffffff021916908360e01c021790555061279c85606860008573ffffffffffffffffffffffffffffffffffffffff1673ffffffffffffffffffffffffffffffffffffffff1681526020019081526020016000206128f690919063ffffffff16565b5061282385606960008573ffffffffffffffffffffffffffffffffffffffff1673ffffffffffffffffffffffffffffffffffffffff16815260200190815260200160002060008660038111156127f5576127f46130ea565b5b6003811115612807576128066130ea565b5b81526020019081526020016000206128f690919063ffffffff16565b507f1e33070f250b5aa53a7c4465ad26182331ac65e673b8769a13e92b129fc76f80858260000160159054906101000a900460e01b84604051612868939291906139ed565b60405180910390a150505b505050565b612880612bd9565b73ffffffffffffffffffffffffffffffffffffffff1661289e611071565b73ffffffffffffffffffffffffffffffffffffffff16146128f4576040517f08c379a00000000000000000000000000000000000000000000000000000000081526004016128eb90613f13565b60405180910390fd5b565b600061291e836000018373ffffffffffffffffffffffffffffffffffffffff1660001b612be1565b905092915050565b6000603360009054906101000a900473ffffffffffffffffffffffffffffffffffffffff16905081603360006101000a81548173ffffffffffffffffffffffffffffffffffffffff021916908373ffffffffffffffffffffffffffffffffffffffff1602179055508173ffffffffffffffffffffffffffffffffffffffff168173ffffffffffffffffffffffffffffffffffffffff167f8be0079c531659141344cd1fd0a4f28419497f9722a3daafe3b4186f6b6457e060405160405180910390a35050565b6000808273ffffffffffffffffffffffffffffffffffffffff163b119050919050565b600060019054906101000a900460ff16612a5e576040517f08c379a0000000000000000000000000000000000000000000000000000000008152600401612a5590613fa5565b60405180910390fd5b612a66612c51565b565b6000612a7682600001612cb2565b9050919050565b60008183612a8b9190613bfb565b905092915050565b60008183612aa19190613d4f565b905092915050565b6000612ab88360000183612cc3565b60001c905092915050565b6000612aeb836000018373ffffffffffffffffffffffffffffffffffffffff1660001b612cee565b905092915050565b60005b600115612bd3574282604051602001612b1092919061402e565b60405160208183030381529060405280519060200120905060666000827bffffffffffffffffffffffffffffffffffffffffffffffffffffffff19167bffffffffffffffffffffffffffffffffffffffffffffffffffffffff1916815260200190815260200160002060009054906101000a900473ffffffffffffffffffffffffffffffffffffffff1673ffffffffffffffffffffffffffffffffffffffff16600073ffffffffffffffffffffffffffffffffffffffff160315612bd457612af6565b5b919050565b600033905090565b6000612bed8383612e02565b612c46578260000182908060018154018082558091505060019003906000526020600020016000909190919091505582600001805490508360010160008481526020019081526020016000208190555060019050612c4b565b600090505b92915050565b600060019054906101000a900460ff16612ca0576040517f08c379a0000000000000000000000000000000000000000000000000000000008152600401612c9790613fa5565b60405180910390fd5b612cb0612cab612bd9565b612926565b565b600081600001805490509050919050565b6000826000018281548110612cdb57612cda613889565b5b9060005260206000200154905092915050565b60008083600101600084815260200190815260200160002054905060008114612df6576000600182612d209190613d4f565b9050600060018660000180549050612d389190613d4f565b9050818114612da7576000866000018281548110612d5957612d58613889565b5b9060005260206000200154905080876000018481548110612d7d57612d7c613889565b5b90600052602060002001819055508387600101600083815260200190815260200160002081905550505b85600001805480612dbb57612dba61405a565b5b600190038181906000526020600020016000905590558560010160008681526020019081526020016000206000905560019350505050612dfc565b60009150505b92915050565b600080836001016000848152602001908152602001600020541415905092915050565b6000604051905090565b600080fd5b600080fd5b60007fffffffff0000000000000000000000000000000000000000000000000000000082169050919050565b612e6e81612e39565b8114612e7957600080fd5b50565b600081359050612e8b81612e65565b92915050565b600060208284031215612ea757612ea6612e2f565b5b6000612eb584828501612e7c565b91505092915050565b600080fd5b6000601f19601f8301169050919050565b7f4e487b7100000000000000000000000000000000000000000000000000000000600052604160045260246000fd5b612f0c82612ec3565b810181811067ffffffffffffffff82111715612f2b57612f2a612ed4565b5b80604052505050565b6000612f3e612e25565b9050612f4a8282612f03565b919050565b600067ffffffffffffffff821115612f6a57612f69612ed4565b5b602082029050602081019050919050565b600080fd5b600073ffffffffffffffffffffffffffffffffffffffff82169050919050565b6000612fab82612f80565b9050919050565b612fbb81612fa0565b8114612fc657600080fd5b50565b600081359050612fd881612fb2565b92915050565b6000612ff1612fec84612f4f565b612f34565b9050808382526020820190506020840283018581111561301457613013612f7b565b5b835b8181101561303d57806130298882612fc9565b845260208401935050602081019050613016565b5050509392505050565b600082601f83011261305c5761305b612ebe565b5b813561306c848260208601612fde565b91505092915050565b60006020828403121561308b5761308a612e2f565b5b600082013567ffffffffffffffff8111156130a9576130a8612e34565b5b6130b584828501613047565b91505092915050565b600081519050919050565b600082825260208201905092915050565b6000819050602082019050919050565b7f4e487b7100000000000000000000000000000000000000000000000000000000600052602160045260246000fd5b6004811061312a576131296130ea565b5b50565b600081905061313b82613119565b919050565b600061314b8261312d565b9050919050565b61315b81613140565b82525050565b600061316d8383613152565b60208301905092915050565b6000602082019050919050565b6000613191826130be565b61319b81856130c9565b93506131a6836130da565b8060005b838110156131d75781516131be8882613161565b97506131c983613179565b9250506001810190506131aa565b5085935050505092915050565b600060208201905081810360008301526131fe8184613186565b905092915050565b600080fd5b60008083601f84011261322157613220612ebe565b5b8235905067ffffffffffffffff81111561323e5761323d613206565b5b6020830191508360a082028301111561325a57613259612f7b565b5b9250929050565b6000806020838503121561327857613277612e2f565b5b600083013567ffffffffffffffff81111561329657613295612e34565b5b6132a28582860161320b565b92509250509250929050565b600080604083850312156132c5576132c4612e2f565b5b60006132d385828601612fc9565b92505060206132e485828601612e7c565b9150509250929050565b60006020828403121561330457613303612e2f565b5b600061331284828501612fc9565b91505092915050565b6000819050919050565b61332e8161331b565b82525050565b61333d81612fa0565b82525050565b61334c81612e39565b82525050565b600060a0820190506133676000830188613325565b6133746020830187613334565b6133816040830186613343565b61338e6060830185613334565b61339b6080830184613343565b9695505050505050565b600481106133b257600080fd5b50565b6000813590506133c4816133a5565b92915050565b6133d38161331b565b81146133de57600080fd5b50565b6000813590506133f0816133ca565b92915050565b600080600080608085870312156134105761340f612e2f565b5b600061341e87828801612fc9565b945050602061342f878288016133b5565b9350506040613440878288016133e1565b9250506060613451878288016133e1565b91505092959194509250565b600081519050919050565b600082825260208201905092915050565b6000819050602082019050919050565b61349281612fa0565b82525050565b60006134a48383613489565b60208301905092915050565b6000602082019050919050565b60006134c88261345d565b6134d28185613468565b93506134dd83613479565b8060005b8381101561350e5781516134f58882613498565b9750613500836134b0565b9250506001810190506134e1565b5085935050505092915050565b6000602082019050818103600083015261353581846134bd565b905092915050565b60006020820190506135526000830184613334565b92915050565b61356181613140565b82525050565b600060a08201905061357c6000830188613558565b6135896020830187613334565b6135966040830186613343565b6135a36060830185613334565b6135b06080830184613343565b9695505050505050565b6000806000606084860312156135d3576135d2612e2f565b5b60006135e186828701612fc9565b93505060206135f2868287016133e1565b9250506040613603868287016133e1565b9150509250925092565b600067ffffffffffffffff82111561362857613627612ed4565b5b602082029050602081019050919050565b600061364c6136478461360d565b612f34565b9050808382526020820190506020840283018581111561366f5761366e612f7b565b5b835b81811015613698578061368488826133e1565b845260208401935050602081019050613671565b5050509392505050565b600082601f8301126136b7576136b6612ebe565b5b81356136c7848260208601613639565b91505092915050565b600080604083850312156136e7576136e6612e2f565b5b600083013567ffffffffffffffff81111561370557613704612e34565b5b613711858286016136a2565b925050602083013567ffffffffffffffff81111561373257613731612e34565b5b61373e85828601613047565b9150509250929050565b6000806040838503121561375f5761375e612e2f565b5b600061376d85828601612fc9565b925050602061377e858286016133e1565b9150509250929050565b60008115159050919050565b61379d81613788565b82525050565b60006040820190506137b86000830185613794565b6137c56020830184613325565b9392505050565b600080604083850312156137e3576137e2612e2f565b5b60006137f185828601612fc9565b9250506020613802858286016133b5565b9150509250929050565b600082825260208201905092915050565b7f616c7265616479207369676e5570000000000000000000000000000000000000600082015250565b6000613853600e8361380c565b915061385e8261381d565b602082019050919050565b6000602082019050818103600083015261388281613846565b9050919050565b7f4e487b7100000000000000000000000000000000000000000000000000000000600052603260045260246000fd5b7f4e487b7100000000000000000000000000000000000000000000000000000000600052601160045260246000fd5b60006138f28261331b565b91507fffffffffffffffffffffffffffffffffffffffffffffffffffffffffffffffff8203613924576139236138b8565b5b600182019050919050565b600080fd5b600060a0828403121561394a5761394961392f565b5b61395460a0612f34565b90506000613964848285016133b5565b600083015250602061397884828501612fc9565b602083015250604061398c84828501612e7c565b60408301525060606139a084828501612fc9565b60608301525060806139b484828501612e7c565b60808301525092915050565b600060a082840312156139d6576139d5612e2f565b5b60006139e484828501613934565b91505092915050565b6000606082019050613a026000830186613334565b613a0f6020830185613343565b613a1c6040830184613334565b949350505050565b7f6e6f207065726d69740000000000000000000000000000000000000000000000600082015250565b6000613a5a60098361380c565b9150613a6582613a24565b602082019050919050565b60006020820190508181036000830152613a8981613a4d565b9050919050565b7f496e697469616c697a61626c653a20636f6e747261637420697320616c72656160008201527f647920696e697469616c697a6564000000000000000000000000000000000000602082015250565b6000613aec602e8361380c565b9150613af782613a90565b604082019050919050565b60006020820190508181036000830152613b1b81613adf565b9050919050565b6000819050919050565b600060ff82169050919050565b6000819050919050565b6000613b5e613b59613b5484613b22565b613b39565b613b2c565b9050919050565b613b6e81613b43565b82525050565b6000602082019050613b896000830184613b65565b92915050565b7f5f7061676553697a650000000000000000000000000000000000000000000000600082015250565b6000613bc560098361380c565b9150613bd082613b8f565b602082019050919050565b60006020820190508181036000830152613bf481613bb8565b9050919050565b6000613c068261331b565b9150613c118361331b565b9250827fffffffffffffffffffffffffffffffffffffffffffffffffffffffffffffffff03821115613c4657613c456138b8565b5b828201905092915050565b7f6c656e677468206e6f74206d6174636800000000000000000000000000000000600082015250565b6000613c8760108361380c565b9150613c9282613c51565b602082019050919050565b60006020820190508181036000830152613cb681613c7a565b9050919050565b7f4f776e61626c653a206e6577206f776e657220697320746865207a65726f206160008201527f6464726573730000000000000000000000000000000000000000000000000000602082015250565b6000613d1960268361380c565b9150613d2482613cbd565b604082019050919050565b60006020820190508181036000830152613d4881613d0c565b9050919050565b6000613d5a8261331b565b9150613d658361331b565b925082821015613d7857613d776138b8565b5b828203905092915050565b7f6e646465206c6576656c00000000000000000000000000000000000000000000600082015250565b6000613db9600a8361380c565b9150613dc482613d83565b602082019050919050565b60006020820190508181036000830152613de881613dac565b9050919050565b7f696e76616c696420726567697374657220616464726573730000000000000000600082015250565b6000613e2560188361380c565b9150613e3082613def565b602082019050919050565b60006020820190508181036000830152613e5481613e18565b9050919050565b7f696e7669746572436f646520697320696e766c69640000000000000000000000600082015250565b6000613e9160158361380c565b9150613e9c82613e5b565b602082019050919050565b60006020820190508181036000830152613ec081613e84565b9050919050565b7f4f776e61626c653a2063616c6c6572206973206e6f7420746865206f776e6572600082015250565b6000613efd60208361380c565b9150613f0882613ec7565b602082019050919050565b60006020820190508181036000830152613f2c81613ef0565b9050919050565b7f496e697469616c697a61626c653a20636f6e7472616374206973206e6f74206960008201527f6e697469616c697a696e67000000000000000000000000000000000000000000602082015250565b6000613f8f602b8361380c565b9150613f9a82613f33565b604082019050919050565b60006020820190508181036000830152613fbe81613f82565b9050919050565b6000819050919050565b613fe0613fdb8261331b565b613fc5565b82525050565b60008160601b9050919050565b6000613ffe82613fe6565b9050919050565b600061401082613ff3565b9050919050565b61402861402382612fa0565b614005565b82525050565b600061403a8285613fcf565b60208201915061404a8284614017565b6014820191508190509392505050565b7f4e487b7100000000000000000000000000000000000000000000000000000000600052603160045260246000fdfea2646970667358221220a0b1601a046cfacd100997fcc74504ed12469845a90a4ecde0fed2af8d3e480564736f6c634300080d0033",
  "linkReferences": {},
  "deployedLinkReferences": {}
}