{
  "_format": "hh-sol-artifact-1",
  "contractName": "StakingContract",
  "sourceName": "contracts/Staking.sol",
  "abi": [
    {
      "inputs": [],
      "stateMutability": "nonpayable",
      "type": "constructor"
    },
    {
      "anonymous": false,
      "inputs": [
        {
          "indexed": false,
          "internalType": "uint8",
          "name": "version",
          "type": "uint8"
        }
      ],
      "name": "Initialized",
      "type": "event"
    },
    {
      "anonymous": false,
      "inputs": [
        {
          "indexed": true,
          "internalType": "address",
          "name": "previousOwner",
          "type": "address"
        },
        {
          "indexed": true,
          "internalType": "address",
          "name": "newOwner",
          "type": "address"
        }
      ],
      "name": "OwnershipTransferred",
      "type": "event"
    },
    {
      "anonymous": false,
      "inputs": [
        {
          "indexed": false,
          "internalType": "uint256",
          "name": "profit",
          "type": "uint256"
        }
      ],
      "name": "Rebase",
      "type": "event"
    },
    {
      "anonymous": false,
      "inputs": [
        {
          "indexed": false,
          "internalType": "uint256",
          "name": "amount",
          "type": "uint256"
        },
        {
          "indexed": false,
          "internalType": "address",
          "name": "receipt",
          "type": "address"
        },
        {
          "indexed": false,
          "internalType": "uint256",
          "name": "rebaseRateInfoId",
          "type": "uint256"
        },
        {
          "indexed": false,
          "internalType": "uint256",
          "name": "stakeBlocks",
          "type": "uint256"
        }
      ],
      "name": "StakeThsToken",
      "type": "event"
    },
    {
      "anonymous": false,
      "inputs": [
        {
          "indexed": false,
          "internalType": "uint256",
          "name": "firstStakeTime",
          "type": "uint256"
        },
        {
          "indexed": false,
          "internalType": "uint256",
          "name": "amount",
          "type": "uint256"
        }
      ],
      "name": "Unstake",
      "type": "event"
    },
    {
      "inputs": [],
      "name": "OneOpenToken",
      "outputs": [
        {
          "internalType": "uint256",
          "name": "",
          "type": "uint256"
        }
      ],
      "stateMutability": "view",
      "type": "function"
    },
    {
      "inputs": [],
      "name": "ThsToken",
      "outputs": [
        {
          "internalType": "address",
          "name": "",
          "type": "address"
        }
      ],
      "stateMutability": "view",
      "type": "function"
    },
    {
      "inputs": [
        {
          "internalType": "address",
          "name": "_receipt",
          "type": "address"
        },
        {
          "internalType": "uint256",
          "name": "_principalAmount",
          "type": "uint256"
        },
        {
          "internalType": "uint256",
          "name": "_principalType",
          "type": "uint256"
        }
      ],
      "name": "addStakeInfoByProxy",
      "outputs": [],
      "stateMutability": "nonpayable",
      "type": "function"
    },
    {
      "inputs": [],
      "name": "allRebaseEpochInfoList",
      "outputs": [
        {
          "components": [
            {
              "internalType": "uint256",
              "name": "rebaseRateInfoId",
              "type": "uint256"
            },
            {
              "internalType": "uint256",
              "name": "index",
              "type": "uint256"
            },
            {
              "internalType": "uint256",
              "name": "principalTotal",
              "type": "uint256"
            },
            {
              "internalType": "uint256",
              "name": "highRateRebasingAmountTotal",
              "type": "uint256"
            },
            {
              "internalType": "uint256",
              "name": "defaultRateRebasingAmountTotal",
              "type": "uint256"
            }
          ],
          "internalType": "struct StakingContract.RebaseEpochInfo[]",
          "name": "results_",
          "type": "tuple[]"
        }
      ],
      "stateMutability": "view",
      "type": "function"
    },
    {
      "inputs": [
        {
          "internalType": "uint256",
          "name": "_firstStakedTime",
          "type": "uint256"
        },
        {
          "internalType": "uint256",
          "name": "_targetRateInfoId",
          "type": "uint256"
        },
        {
          "internalType": "uint256",
          "name": "_stakeBlocks",
          "type": "uint256"
        }
      ],
      "name": "burnScTokenForHigherRebaseReward",
      "outputs": [],
      "stateMutability": "nonpayable",
      "type": "function"
    },
    {
      "inputs": [],
      "name": "contractBalance",
      "outputs": [
        {
          "internalType": "uint256",
          "name": "",
          "type": "uint256"
        }
      ],
      "stateMutability": "view",
      "type": "function"
    },
    {
      "inputs": [],
      "name": "defaultRebaseRateInfoId",
      "outputs": [
        {
          "internalType": "uint256",
          "name": "",
          "type": "uint256"
        }
      ],
      "stateMutability": "view",
      "type": "function"
    },
    {
      "inputs": [],
      "name": "epoch",
      "outputs": [
        {
          "internalType": "uint256",
          "name": "length",
          "type": "uint256"
        },
        {
          "internalType": "uint256",
          "name": "latestEndBlock",
          "type": "uint256"
        },
        {
          "internalType": "uint256",
          "name": "nextEndBlock",
          "type": "uint256"
        }
      ],
      "stateMutability": "view",
      "type": "function"
    },
    {
      "inputs": [
        {
          "internalType": "address",
          "name": "_staker",
          "type": "address"
        },
        {
          "internalType": "uint256",
          "name": "_firstStakedTime",
          "type": "uint256"
        }
      ],
      "name": "getCurrentRebasingAmount",
      "outputs": [
        {
          "internalType": "uint256",
          "name": "currentRebasingAmount_",
          "type": "uint256"
        },
        {
          "internalType": "uint256",
          "name": "principal_",
          "type": "uint256"
        },
        {
          "internalType": "uint256",
          "name": "reward_",
          "type": "uint256"
        }
      ],
      "stateMutability": "view",
      "type": "function"
    },
    {
      "inputs": [],
      "name": "getNextDistributeTotal",
      "outputs": [
        {
          "internalType": "uint256",
          "name": "distribute_",
          "type": "uint256"
        }
      ],
      "stateMutability": "view",
      "type": "function"
    },
    {
      "inputs": [
        {
          "internalType": "address",
          "name": "_staker",
          "type": "address"
        },
        {
          "internalType": "uint256",
          "name": "_start",
          "type": "uint256"
        },
        {
          "internalType": "uint256",
          "name": "_size",
          "type": "uint256"
        }
      ],
      "name": "getStakeInfoByPage",
      "outputs": [
        {
          "internalType": "uint256",
          "name": "resultSize_",
          "type": "uint256"
        },
        {
          "components": [
            {
              "internalType": "uint256",
              "name": "firstTimestamp",
              "type": "uint256"
            },
            {
              "internalType": "uint256",
              "name": "savedTimestamp",
              "type": "uint256"
            },
            {
              "internalType": "uint256",
              "name": "savedBlock",
              "type": "uint256"
            },
            {
              "internalType": "uint256",
              "name": "savedEpochBlock",
              "type": "uint256"
            },
            {
              "internalType": "uint256",
              "name": "minRebaseRateStartBlock",
              "type": "uint256"
            },
            {
              "internalType": "uint256",
              "name": "savedIndex",
              "type": "uint256"
            },
            {
              "internalType": "uint256",
              "name": "principalAmount",
              "type": "uint256"
            },
            {
              "internalType": "uint256",
              "name": "rebasingAmount",
              "type": "uint256"
            },
            {
              "internalType": "uint256",
              "name": "rebaseRateInfoId",
              "type": "uint256"
            },
            {
              "internalType": "uint256",
              "name": "principalType",
              "type": "uint256"
            }
          ],
          "internalType": "struct StakingContract.UserStakeInfo[]",
          "name": "resultArr_",
          "type": "tuple[]"
        },
        {
          "internalType": "uint256[]",
          "name": "nextRewardArray_",
          "type": "uint256[]"
        },
        {
          "internalType": "uint256[]",
          "name": "rateArray_",
          "type": "uint256[]"
        }
      ],
      "stateMutability": "view",
      "type": "function"
    },
    {
      "inputs": [
        {
          "internalType": "address",
          "name": "_staker",
          "type": "address"
        },
        {
          "internalType": "uint256",
          "name": "_index",
          "type": "uint256"
        }
      ],
      "name": "getStakeInfoByUserAndIndex",
      "outputs": [
        {
          "components": [
            {
              "internalType": "uint256",
              "name": "firstTimestamp",
              "type": "uint256"
            },
            {
              "internalType": "uint256",
              "name": "savedTimestamp",
              "type": "uint256"
            },
            {
              "internalType": "uint256",
              "name": "savedBlock",
              "type": "uint256"
            },
            {
              "internalType": "uint256",
              "name": "savedEpochBlock",
              "type": "uint256"
            },
            {
              "internalType": "uint256",
              "name": "minRebaseRateStartBlock",
              "type": "uint256"
            },
            {
              "internalType": "uint256",
              "name": "savedIndex",
              "type": "uint256"
            },
            {
              "internalType": "uint256",
              "name": "principalAmount",
              "type": "uint256"
            },
            {
              "internalType": "uint256",
              "name": "rebasingAmount",
              "type": "uint256"
            },
            {
              "internalType": "uint256",
              "name": "rebaseRateInfoId",
              "type": "uint256"
            },
            {
              "internalType": "uint256",
              "name": "principalType",
              "type": "uint256"
            }
          ],
          "internalType": "struct StakingContract.UserStakeInfo",
          "name": "stakerInfo_",
          "type": "tuple"
        }
      ],
      "stateMutability": "view",
      "type": "function"
    },
    {
      "inputs": [
        {
          "internalType": "address",
          "name": "_addr",
          "type": "address"
        }
      ],
      "name": "getStakingAmount",
      "outputs": [
        {
          "internalType": "uint256",
          "name": "stakingAmount_",
          "type": "uint256"
        }
      ],
      "stateMutability": "view",
      "type": "function"
    },
    {
      "inputs": [
        {
          "internalType": "address",
          "name": "_staker",
          "type": "address"
        }
      ],
      "name": "getUserSThsTokenTotal",
      "outputs": [
        {
          "internalType": "uint256",
          "name": "",
          "type": "uint256"
        }
      ],
      "stateMutability": "view",
      "type": "function"
    },
    {
      "inputs": [
        {
          "internalType": "uint256",
          "name": "_rateInfoId",
          "type": "uint256"
        }
      ],
      "name": "index",
      "outputs": [
        {
          "internalType": "uint256",
          "name": "",
          "type": "uint256"
        }
      ],
      "stateMutability": "view",
      "type": "function"
    },
    {
      "inputs": [
        {
          "internalType": "address",
          "name": "_thsToken",
          "type": "address"
        },
        {
          "internalType": "address",
          "name": "_sThsToken",
          "type": "address"
        },
        {
          "internalType": "address",
          "name": "_scTokenFarmForInvter",
          "type": "address"
        },
        {
          "internalType": "address",
          "name": "_scTokenFarmForStaker",
          "type": "address"
        },
        {
          "internalType": "address",
          "name": "_stakingRewardRelease",
          "type": "address"
        },
        {
          "internalType": "address",
          "name": "_treasury",
          "type": "address"
        },
        {
          "internalType": "address",
          "name": "_stakingConfig",
          "type": "address"
        },
        {
          "internalType": "address",
          "name": "_scTokenAddress",
          "type": "address"
        },
        {
          "internalType": "uint256",
          "name": "_epochLength",
          "type": "uint256"
        }
      ],
      "name": "initialize",
      "outputs": [],
      "stateMutability": "nonpayable",
      "type": "function"
    },
    {
      "inputs": [
        {
          "internalType": "address",
          "name": "_address",
          "type": "address"
        }
      ],
      "name": "isProxyAddress",
      "outputs": [
        {
          "internalType": "bool",
          "name": "",
          "type": "bool"
        }
      ],
      "stateMutability": "view",
      "type": "function"
    },
    {
      "inputs": [],
      "name": "isReservesEnoughToNextRebase",
      "outputs": [
        {
          "internalType": "uint256",
          "name": "reserves_",
          "type": "uint256"
        },
        {
          "internalType": "uint256",
          "name": "nextDistribute_",
          "type": "uint256"
        },
        {
          "internalType": "bool",
          "name": "isEnough_",
          "type": "bool"
        }
      ],
      "stateMutability": "view",
      "type": "function"
    },
    {
      "inputs": [],
      "name": "mintRewardOpen",
      "outputs": [
        {
          "internalType": "bool",
          "name": "",
          "type": "bool"
        }
      ],
      "stateMutability": "view",
      "type": "function"
    },
    {
      "inputs": [],
      "name": "owner",
      "outputs": [
        {
          "internalType": "address",
          "name": "",
          "type": "address"
        }
      ],
      "stateMutability": "view",
      "type": "function"
    },
    {
      "inputs": [],
      "name": "presaleRelease",
      "outputs": [
        {
          "internalType": "address",
          "name": "",
          "type": "address"
        }
      ],
      "stateMutability": "view",
      "type": "function"
    },
    {
      "inputs": [
        {
          "internalType": "address",
          "name": "",
          "type": "address"
        }
      ],
      "name": "principalByAddress",
      "outputs": [
        {
          "internalType": "uint256",
          "name": "",
          "type": "uint256"
        }
      ],
      "stateMutability": "view",
      "type": "function"
    },
    {
      "inputs": [
        {
          "internalType": "uint256",
          "name": "",
          "type": "uint256"
        },
        {
          "internalType": "uint256",
          "name": "",
          "type": "uint256"
        },
        {
          "internalType": "uint256",
          "name": "",
          "type": "uint256"
        }
      ],
      "name": "principalExpireInfoOf",
      "outputs": [
        {
          "internalType": "uint256",
          "name": "stakedIndex",
          "type": "uint256"
        },
        {
          "internalType": "uint256",
          "name": "expirePrincipal",
          "type": "uint256"
        }
      ],
      "stateMutability": "view",
      "type": "function"
    },
    {
      "inputs": [],
      "name": "rebase",
      "outputs": [],
      "stateMutability": "nonpayable",
      "type": "function"
    },
    {
      "inputs": [
        {
          "internalType": "uint256",
          "name": "",
          "type": "uint256"
        },
        {
          "internalType": "uint256",
          "name": "",
          "type": "uint256"
        }
      ],
      "name": "rebaseEpochHistoryInfoOf",
      "outputs": [
        {
          "internalType": "uint256",
          "name": "rebaseRateInfoId",
          "type": "uint256"
        },
        {
          "internalType": "uint256",
          "name": "index",
          "type": "uint256"
        },
        {
          "internalType": "uint256",
          "name": "principalTotal",
          "type": "uint256"
        },
        {
          "internalType": "uint256",
          "name": "highRateRebasingAmountTotal",
          "type": "uint256"
        },
        {
          "internalType": "uint256",
          "name": "defaultRateRebasingAmountTotal",
          "type": "uint256"
        }
      ],
      "stateMutability": "view",
      "type": "function"
    },
    {
      "inputs": [
        {
          "internalType": "uint256",
          "name": "",
          "type": "uint256"
        }
      ],
      "name": "rebaseEpochInfoOf",
      "outputs": [
        {
          "internalType": "uint256",
          "name": "rebaseRateInfoId",
          "type": "uint256"
        },
        {
          "internalType": "uint256",
          "name": "index",
          "type": "uint256"
        },
        {
          "internalType": "uint256",
          "name": "principalTotal",
          "type": "uint256"
        },
        {
          "internalType": "uint256",
          "name": "highRateRebasingAmountTotal",
          "type": "uint256"
        },
        {
          "internalType": "uint256",
          "name": "defaultRateRebasingAmountTotal",
          "type": "uint256"
        }
      ],
      "stateMutability": "view",
      "type": "function"
    },
    {
      "inputs": [],
      "name": "renounceOwnership",
      "outputs": [],
      "stateMutability": "nonpayable",
      "type": "function"
    },
    {
      "inputs": [],
      "name": "sThsToken",
      "outputs": [
        {
          "internalType": "address",
          "name": "",
          "type": "address"
        }
      ],
      "stateMutability": "view",
      "type": "function"
    },
    {
      "inputs": [],
      "name": "scTokenAddress",
      "outputs": [
        {
          "internalType": "address",
          "name": "",
          "type": "address"
        }
      ],
      "stateMutability": "view",
      "type": "function"
    },
    {
      "inputs": [],
      "name": "scTokenFarmForInvter",
      "outputs": [
        {
          "internalType": "address",
          "name": "",
          "type": "address"
        }
      ],
      "stateMutability": "view",
      "type": "function"
    },
    {
      "inputs": [],
      "name": "scTokenFarmForStaker",
      "outputs": [
        {
          "internalType": "address",
          "name": "",
          "type": "address"
        }
      ],
      "stateMutability": "view",
      "type": "function"
    },
    {
      "inputs": [
        {
          "internalType": "uint256[]",
          "name": "_types",
          "type": "uint256[]"
        },
        {
          "internalType": "address[]",
          "name": "_contracts",
          "type": "address[]"
        }
      ],
      "name": "setAddress",
      "outputs": [],
      "stateMutability": "nonpayable",
      "type": "function"
    },
    {
      "inputs": [
        {
          "internalType": "uint256[]",
          "name": "_types",
          "type": "uint256[]"
        },
        {
          "internalType": "bool[]",
          "name": "_flags",
          "type": "bool[]"
        }
      ],
      "name": "setBoolean",
      "outputs": [],
      "stateMutability": "nonpayable",
      "type": "function"
    },
    {
      "inputs": [
        {
          "internalType": "address",
          "name": "_address",
          "type": "address"
        }
      ],
      "name": "stakeProxyToggle",
      "outputs": [],
      "stateMutability": "nonpayable",
      "type": "function"
    },
    {
      "inputs": [
        {
          "internalType": "uint256",
          "name": "_amount",
          "type": "uint256"
        },
        {
          "internalType": "address",
          "name": "_receipt",
          "type": "address"
        },
        {
          "internalType": "uint256",
          "name": "_rebaseRateInfoId",
          "type": "uint256"
        },
        {
          "internalType": "uint256",
          "name": "_stakeBlocks",
          "type": "uint256"
        }
      ],
      "name": "stakeThsToken",
      "outputs": [],
      "stateMutability": "nonpayable",
      "type": "function"
    },
    {
      "inputs": [],
      "name": "stakingConfigContract",
      "outputs": [
        {
          "internalType": "address",
          "name": "",
          "type": "address"
        }
      ],
      "stateMutability": "view",
      "type": "function"
    },
    {
      "inputs": [],
      "name": "stakingRewardRelease",
      "outputs": [
        {
          "internalType": "address",
          "name": "",
          "type": "address"
        }
      ],
      "stateMutability": "view",
      "type": "function"
    },
    {
      "inputs": [],
      "name": "thsTokenFarmForInviter",
      "outputs": [
        {
          "internalType": "address",
          "name": "",
          "type": "address"
        }
      ],
      "stateMutability": "view",
      "type": "function"
    },
    {
      "inputs": [
        {
          "internalType": "address",
          "name": "newOwner",
          "type": "address"
        }
      ],
      "name": "transferOwnership",
      "outputs": [],
      "stateMutability": "nonpayable",
      "type": "function"
    },
    {
      "inputs": [],
      "name": "treasury",
      "outputs": [
        {
          "internalType": "address",
          "name": "",
          "type": "address"
        }
      ],
      "stateMutability": "view",
      "type": "function"
    },
    {
      "inputs": [
        {
          "internalType": "uint256",
          "name": "_firstStakeTime",
          "type": "uint256"
        }
      ],
      "name": "unstake",
      "outputs": [],
      "stateMutability": "nonpayable",
      "type": "function"
    },
    {
      "inputs": [
        {
          "internalType": "address",
          "name": "",
          "type": "address"
        },
        {
          "internalType": "uint256",
          "name": "",
          "type": "uint256"
        }
      ],
      "name": "userStakeInfoOf",
      "outputs": [
        {
          "internalType": "uint256",
          "name": "firstTimestamp",
          "type": "uint256"
        },
        {
          "internalType": "uint256",
          "name": "savedTimestamp",
          "type": "uint256"
        },
        {
          "internalType": "uint256",
          "name": "savedBlock",
          "type": "uint256"
        },
        {
          "internalType": "uint256",
          "name": "savedEpochBlock",
          "type": "uint256"
        },
        {
          "internalType": "uint256",
          "name": "minRebaseRateStartBlock",
          "type": "uint256"
        },
        {
          "internalType": "uint256",
          "name": "savedIndex",
          "type": "uint256"
        },
        {
          "internalType": "uint256",
          "name": "principalAmount",
          "type": "uint256"
        },
        {
          "internalType": "uint256",
          "name": "rebasingAmount",
          "type": "uint256"
        },
        {
          "internalType": "uint256",
          "name": "rebaseRateInfoId",
          "type": "uint256"
        },
        {
          "internalType": "uint256",
          "name": "principalType",
          "type": "uint256"
        }
      ],
      "stateMutability": "view",
      "type": "function"
    }
  ],
  "bytecode": "0x60806040523480156200001157600080fd5b506200001c62000022565b620000e4565b600054610100900460ff16156200008f5760405162461bcd60e51b815260206004820152602760248201527f496e697469616c697a61626c653a20636f6e747261637420697320696e697469604482015266616c697a696e6760c81b606482015260840160405180910390fd5b60005460ff9081161015620000e2576000805460ff191660ff9081179091556040519081527f7f26b83ff96e1f2b6a682f133852f6798a09c465da95921460cefb38474024989060200160405180910390a15b565b61433980620000f46000396000f3fe608060405234801561001057600080fd5b506004361061025e5760003560e01c80638b7afe2e11610146578063aea9e018116100c3578063cebb407411610087578063cebb4074146106eb578063d4e1a560146106f6578063df05116f146106fe578063e7ae2a5a14610711578063eab02ee014610719578063f2fde38b146107395761025e565b8063aea9e01814610685578063af14052c14610698578063b5fea3bb146106a0578063c7130dbf146106b3578063c9601f72146106c65761025e565b806398fb911c1161010a57806398fb911c146105f55780639d31d2c91461060a5780639d6b875614610617578063a636b40e1461062a578063ac5f470a146106725761025e565b80638b7afe2e146105a45780638bd18f79146105ac5780638da5cb5b146105bf5780638fc26901146105d0578063900cf0cf146105e35761025e565b80633fd21837116101df57806361d027b3116101a357806361d027b3146104ed5780636ae82b19146105005780636b8abc52146105135780636bc3490314610560578063715018a61461057357806374363daa1461057b5761025e565b80633fd21837146104615780634269c9bb146104815780635082aed5146104a457806352796c08146104b75780635d04145b146104da5761025e565b806326c233951161022657806326c23395146103875780632e17de78146103ec578063335932fc146103ff578063344dd6e41461042057806336a89c8d146104335761025e565b80630368fe991461026357806303d0de211461029357806312d39795146102a657806316a4c8e91461035f5780632129fbec14610372575b600080fd5b609a54610276906001600160a01b031681565b6040516001600160a01b0390911681526020015b60405180910390f35b609954610276906001600160a01b031681565b6103156102b4366004613c9a565b60aa60205281600052604060002060205280600052604060002060009150915050806000015490806001015490806002015490806003015490806004015490806005015490806006015490806007015490806008015490806009015490508a565b604080519a8b5260208b0199909952978901969096526060880194909452608087019290925260a086015260c085015260e08401526101008301526101208201526101400161028a565b60a054610276906001600160a01b031681565b610385610380366004613be0565b61074c565b005b6103c4610395366004613d96565b60a760205260009081526040902080546001820154600283015460038401546004909401549293919290919085565b604080519586526020860194909452928401919091526060830152608082015260a00161028a565b6103856103fa366004613d96565b610785565b61041261040d366004613d96565b6107ae565b60405190815260200161028a565b61038561042e366004613bfa565b6107c6565b610446610441366004613c9a565b610a46565b6040805193845260208401929092529082015260600161028a565b61047461046f366004613c9a565b610b4f565b60405161028a9190614130565b61049461048f366004613cc3565b610c15565b60405161028a949392919061413f565b609d54610276906001600160a01b031681565b6104ca6104c5366004613be0565b6111e2565b604051901515815260200161028a565b6103856104e8366004613dc6565b6111f5565b609e54610276906001600160a01b031681565b61038561050e366004613f30565b611266565b61054b610521366004613f30565b60a96020908152600093845260408085208252928452828420905282529020805460019091015482565b6040805192835260208301919091520161028a565b609c54610276906001600160a01b031681565b6103856114fb565b610412610589366004613be0565b6001600160a01b0316600090815260a6602052604090205490565b61041261150f565b6103856105ba366004613cc3565b611590565b6033546001600160a01b0316610276565b6103856105de366004613cf5565b611737565b60a35460a45460a55461044692919083565b6105fd611817565b60405161028a9190614044565b60ac546104ca9060ff1681565b609f54610276906001600160a01b031681565b6103c4610638366004613f0f565b60a8602090815260009283526040808420909152908252902080546001820154600283015460038401546004909401549293919290919085565b610385610680366004613cf5565b611a03565b609754610276906001600160a01b031681565b610385611c46565b6104126106ae366004613be0565b611c60565b609b54610276906001600160a01b031681565b6106ce611cff565b60408051938452602084019290925215159082015260600161028a565b610412633b9aca0081565b610412611da6565b609854610276906001600160a01b031681565b610412611eb2565b610412610727366004613be0565b60a66020526000908152604090205481565b610385610747366004613be0565b611ef7565b610754611f6d565b61075f60a182611fc7565b156107755761076f60a182611fec565b50610782565b61078060a182612001565b505b50565b61078d612016565b610795612070565b6107a13382600161229a565b5050506107826001606555565b600081815260a760205260409020600101545b919050565b600054610100900460ff16158080156107e65750600054600160ff909116105b806108005750303b158015610800575060005460ff166001145b6108685760405162461bcd60e51b815260206004820152602e60248201527f496e697469616c697a61626c653a20636f6e747261637420697320616c72656160448201526d191e481a5b9a5d1a585b1a5e995960921b60648201526084015b60405180910390fd5b6000805460ff19166001179055801561088b576000805461ff0019166101001790555b610893612634565b61089b612663565b6001600160a01b038a166108ae57600080fd5b609780546001600160a01b0319166001600160a01b038c81169190911790915589166108d957600080fd5b609880546001600160a01b03808c166001600160a01b031992831617909255609980548b8416908316179055609a80548a84169216919091179055861661091f57600080fd5b609b80546001600160a01b0319166001600160a01b0388811691909117909155851661094a57600080fd5b609e80546001600160a01b0319166001600160a01b0387811691909117909155841661097557600080fd5b609f80546001600160a01b0319166001600160a01b038681169190911790915583166109a057600080fd5b60a080546001600160a01b0319166001600160a01b0385161790556040805160608101825283815243602082018190529181016109dd8386612692565b9052805160a355602081015160a4556040015160a555508015610a3a576000805461ff0019169055604051600181527f7f26b83ff96e1f2b6a682f133852f6798a09c465da95921460cefb38474024989060200160405180910390a15b50505050505050505050565b6001600160a01b038216600090815260aa602090815260408083208484528252808320815161014081018352815481526001808301548286015260028084015483860152600380850154606080860191909152600480870154608080880191909152600588015460a080890191909152600689015460c0890152600789015460e089015260088901546101008901819052600990990154610120890152978b5260a78a52888b2089519889018a5280548952958601549988018a9052938501549787019790975290830154908501529301549282019290925260a454849384939291849182918291610b3c918c918c919061269e565b9199509750955050505050509250925092565b610b57613ac1565b6001600160a01b038316600090815260ab60205260408120610b799084612848565b6001600160a01b03909416600090815260aa6020908152604080832096835295815290859020855161014081018752815481526001820154928101929092526002810154958201959095526003850154606082015260048501546080820152600585015460a0820152600685015460c0820152600785015460e08201526008850154610100820152600990940154610120850152509192915050565b6000606080606060328510610c5d5760405162461bcd60e51b815260206004820152600e60248201526d73697a6520746f6f206c6172676560901b604482015260640161085f565b6040805160008082526020820190925290610c8e565b610c7b613ac1565b815260200190600190039081610c735790505b50604080516000808252602080830182815283850185526001600160a01b038d16835260ab90915292902092955093509150610cc990612854565b610cd657600093506111d9565b6001600160a01b038716600090815260ab60205260408120610d0490600190610cfe90612854565b9061285e565b905080871115610d485760405162461bcd60e51b815260206004820152600f60248201526e737461727420746f6f206c6172676560881b604482015260640161085f565b6000610d548888612692565b90506000828211610d655781610d67565b825b9050610d7e6001610d78838c61285e565b90612692565b609f549097506000906001600160a01b03166334c56f0c610d9d611eb2565b6040518263ffffffff1660e01b8152600401610dbb91815260200190565b60606040518083038186803b158015610dd357600080fd5b505afa158015610de7573d6000803e3d6000fd5b505050506040513d601f19601f82011682018060405250810190610e0b9190613f5b565b5091505060008867ffffffffffffffff811115610e3857634e487b7160e01b600052604160045260246000fd5b604051908082528060200260200182016040528015610e7157816020015b610e5e613ac1565b815260200190600190039081610e565790505b50905060008967ffffffffffffffff811115610e9d57634e487b7160e01b600052604160045260246000fd5b604051908082528060200260200182016040528015610ec6578160200160208202803683370190505b50905060008a67ffffffffffffffff811115610ef257634e487b7160e01b600052604160045260246000fd5b604051908082528060200260200182016040528015610f1b578160200160208202803683370190505b5090508d8d60005b8d8110156111c9576001600160a01b038316600090815260ab60205260408120610f4d9084612848565b6001600160a01b038516600090815260aa60209081526040808320848452825280832081516101408101835281548082526001830154948201949094526002820154928101929092526003810154606083015260048101546080830152600581015460a0830152600681015460c0830152600781015460e083015260088101546101008301526009015461012082015292935081908190610fef908990610a46565b925092509250828460e0018181525050838b878151811061102057634e487b7160e01b600052603260045260246000fd5b6020908102919091010152608084015160a5548110806110435750808560600151145b1561107a578c8a888151811061106957634e487b7160e01b600052603260045260246000fd5b602002602001018181525050611131565b609f54610100860151604051630d315bc360e21b815260048101919091526000916001600160a01b0316906334c56f0c9060240160606040518083038186803b1580156110c657600080fd5b505afa1580156110da573d6000803e3d6000fd5b505050506040513d601f19601f820116820180604052508101906110fe9190613f5b565b50915050808b898151811061112357634e487b7160e01b600052603260045260246000fd5b602002602001018181525050505b611178620f42406111728c8a8151811061115b57634e487b7160e01b600052603260045260246000fd5b60200260200101518761286a90919063ffffffff16565b90612876565b8b888151811061119857634e487b7160e01b600052603260045260246000fd5b60209081029190910101526111ae886001612692565b975050505050505080806111c1906142ae565b915050610f23565b50939a5091985096505050505050505b93509350935093565b60006111ef60a183611fc7565b92915050565b6111fd612016565b6000841161123c5760405162461bcd60e51b815260206004820152600c60248201526b18da1958dac8185b5bdd5b9d60a21b604482015260640161085f565b611244612070565b61125633848487888660016000612882565b6112606001606555565b50505050565b61126e612016565b611276612070565b33600090815260aa60209081526040808320868452909152902060068101546112e15760405162461bcd60e51b815260206004820152601a60248201527f7072696e636970616c416d6f756e74206e6f7420656e6f756768000000000000604482015260640161085f565b6112e9611eb2565b81600801541461133b5760405162461bcd60e51b815260206004820152601e60248201527f746865207072696e636970616c206973206e6f7420737570706f727465640000604482015260640161085f565b609f546040516339744bdb60e01b8152600481018590526001600160a01b03909116906339744bdb9060240160206040518083038186803b15801561137f57600080fd5b505afa158015611393573d6000803e3d6000fd5b505050506040513d601f19601f820116820180604052508101906113b79190613d7a565b6114035760405162461bcd60e51b815260206004820152601960248201527f696e76616c6964205f74617267657452617465496e666f496400000000000000604482015260640161085f565b609f5460405163a562ce4160e01b8152600481018490526001600160a01b039091169063a562ce419060240160206040518083038186803b15801561144757600080fd5b505afa15801561145b573d6000803e3d6000fd5b505050506040513d601f19601f8201168201806040525081019061147f9190613d7a565b6114c25760405162461bcd60e51b8152602060048201526014602482015273696e76616c6964205f7374616b65426c6f636b7360601b604482015260640161085f565b60006114d03386600061229a565b509150506114ea3333868460008860018960090154612882565b50506114f66001606555565b505050565b611503611f6d565b61150d6000612c64565b565b6097546040516370a0823160e01b81523060048201526000916001600160a01b0316906370a082319060240160206040518083038186803b15801561155357600080fd5b505afa158015611567573d6000803e3d6000fd5b505050506040513d601f19601f8201168201806040525081019061158b9190613dae565b905090565b61159b60a133611fc7565b6115d45760405162461bcd60e51b815260206004820152600a6024820152693832b936b4b9b9b4b7b760b11b604482015260640161085f565b600381106116145760405162461bcd60e51b815260206004820152600d60248201526c7072696e636970616c5479706560981b604482015260640161085f565b609f5460405163cbef110960e01b8152600160048201526000916001600160a01b03169063cbef11099060240160606040518083038186803b15801561165957600080fd5b505afa15801561166d573d6000803e3d6000fd5b505050506040513d601f19601f820116820180604052508101906116919190613f5b565b5050609f54604051639bcb300b60e01b8152600160048201529192506000916001600160a01b0390911690639bcb300b9060240160206040518083038186803b1580156116dd57600080fd5b505afa1580156116f1573d6000803e3d6000fd5b505050506040513d601f19601f820116820180604052508101906117159190613dae565b905061171f612070565b61173033868487888660008a612882565b5050505050565b61173f611f6d565b82811461177f5760405162461bcd60e51b815260206004820152600e60248201526d0e6d2f4ca40dcdee840dac2e8c6d60931b604482015260640161085f565b60005b818110156117305760008585838181106117ac57634e487b7160e01b600052603260045260246000fd5b90506020020135905060008484848181106117d757634e487b7160e01b600052603260045260246000fd5b90506020020160208101906117ec9190613d5e565b9050816118025760ac805460ff19168215151790555b5050808061180f906142ae565b915050611782565b6060600080609f60009054906101000a90046001600160a01b03166001600160a01b03166323272e716040518163ffffffff1660e01b815260040160006040518083038186803b15801561186a57600080fd5b505afa15801561187e573d6000803e3d6000fd5b505050506040513d6000823e601f3d908101601f191682016040526118a69190810190613e00565b915091508167ffffffffffffffff8111156118d157634e487b7160e01b600052604160045260246000fd5b60405190808252806020026020018201604052801561193457816020015b6119216040518060a0016040528060008152602001600081526020016000815260200160008152602001600081525090565b8152602001906001900390816118ef5790505b50925060005b828110156119fd57600082828151811061196457634e487b7160e01b600052603260045260246000fd5b6020026020010151905060a760008281526020019081526020016000206040518060a0016040529081600082015481526020016001820154815260200160028201548152602001600382015481526020016004820154815250508583815181106119de57634e487b7160e01b600052603260045260246000fd5b60200260200101819052505080806119f5906142ae565b91505061193a565b50505090565b611a0b611f6d565b828114611a4b5760405162461bcd60e51b815260206004820152600e60248201526d0e6d2f4ca40dcdee840dac2e8c6d60931b604482015260640161085f565b60005b81811015611730576000858583818110611a7857634e487b7160e01b600052603260045260246000fd5b9050602002013590506000848484818110611aa357634e487b7160e01b600052603260045260246000fd5b9050602002016020810190611ab89190613be0565b905081611adf57609780546001600160a01b0319166001600160a01b038316179055611c31565b8160011415611b0857609880546001600160a01b0319166001600160a01b038316179055611c31565b8160021415611b3157609980546001600160a01b0319166001600160a01b038316179055611c31565b8160031415611b5a57609a80546001600160a01b0319166001600160a01b038316179055611c31565b8160041415611b8357609b80546001600160a01b0319166001600160a01b038316179055611c31565b8160051415611b9157611c31565b8160061415611bba57609d80546001600160a01b0319166001600160a01b038316179055611c31565b8160071415611be357609e80546001600160a01b0319166001600160a01b038316179055611c31565b8160081415611c0c57609f80546001600160a01b0319166001600160a01b038316179055611c31565b8160091415611c315760a080546001600160a01b0319166001600160a01b0383161790555b50508080611c3e906142ae565b915050611a4e565b611c4e612016565b611c56612070565b61150d6001606555565b6001600160a01b038116600090815260ab602052604081208190611c8390612854565b905080611c945760009150506107c1565b6000805b82811015611cf7576001600160a01b038516600090815260ab60205260408120611cc29083612848565b90506000611cd08783610a46565b50909150611ce090508482612692565b935050508080611cef906142ae565b915050611c98565b509392505050565b600080600080609e60009054906101000a90046001600160a01b03166001600160a01b0316630c3513a86040518163ffffffff1660e01b815260040160206040518083038186803b158015611d5357600080fd5b505afa158015611d67573d6000803e3d6000fd5b505050506040513d601f19601f82011682018060405250810190611d8b9190613dae565b90506000611d97611da6565b91959194505083851192509050565b609f54604080516323272e7160e01b815290516000928392839283926001600160a01b0316916323272e719160048083019286929190829003018186803b158015611df057600080fd5b505afa158015611e04573d6000803e3d6000fd5b505050506040513d6000823e601f3d908101601f19168201604052611e2c9190810190613e00565b9150915060005b82811015611ea9576000828281518110611e5d57634e487b7160e01b600052603260045260246000fd5b602002602001015190506000806000806000611e7886612cb6565b94509450945094509450818a611e8e9190614214565b99505050505050508080611ea1906142ae565b915050611e33565b50919250505090565b609f54604080516373d7152d60e11b815290516000926001600160a01b03169163e7ae2a5a916004808301926020929190829003018186803b15801561155357600080fd5b611eff611f6d565b6001600160a01b038116611f645760405162461bcd60e51b815260206004820152602660248201527f4f776e61626c653a206e6577206f776e657220697320746865207a65726f206160448201526564647265737360d01b606482015260840161085f565b61078281612c64565b6033546001600160a01b0316331461150d5760405162461bcd60e51b815260206004820181905260248201527f4f776e61626c653a2063616c6c6572206973206e6f7420746865206f776e6572604482015260640161085f565b6001600160a01b038116600090815260018301602052604081205415155b9392505050565b6000611fe5836001600160a01b038416612eec565b6000611fe5836001600160a01b038416613009565b600260655414156120695760405162461bcd60e51b815260206004820152601f60248201527f5265656e7472616e637947756172643a207265656e7472616e742063616c6c00604482015260640161085f565b6002606555565b60a554431061150d57600080609f60009054906101000a90046001600160a01b03166001600160a01b03166323272e716040518163ffffffff1660e01b815260040160006040518083038186803b1580156120ca57600080fd5b505afa1580156120de573d6000803e3d6000fd5b505050506040513d6000823e601f3d908101601f191682016040526121069190810190613e00565b915091506000805b8381101561217057600083828151811061213857634e487b7160e01b600052603260045260246000fd5b60200260200101519050600061214d82613058565b90506121598185614214565b935050508080612168906142ae565b91505061210e565b50801561224157609e546040516335106f4960e11b8152306004820152602481018390526001600160a01b0390911690636a20de9290604401600060405180830381600087803b1580156121c357600080fd5b505af11580156121d7573d6000803e3d6000fd5b5050609854604051631a8c075760e11b815260048101859052600060248201526001600160a01b0390911692506335180eae9150604401600060405180830381600087803b15801561222857600080fd5b505af115801561223c573d6000803e3d6000fd5b505050505b60a5805460a481905560a354919060009061225d908490614214565b90915550506040518181527fafae32ce2847c13a56ab802c034c27d3c19f1d61be48c424c5df134145cd44d09060200160405180910390a1505050565b6001600160a01b038316600090815260ab60205260408120819081906122c090866132b7565b61230c5760405162461bcd60e51b815260206004820152601860248201527f696e76616c6964205f66697273745374616b656454696d650000000000000000604482015260640161085f565b6001600160a01b038616600090815260ab6020526040902061232e90866132cf565b506123398686610a46565b6001600160a01b038916600090815260aa602090815260408083208b845290915290209295509093509150826123b15760405162461bcd60e51b815260206004820152601960248201527f7374616b65642062616c616e6365206e6f7420656e6f75676800000000000000604482015260640161085f565b6001600160a01b038716600090815260a660205260409020548311156124105760405162461bcd60e51b81526020600482015260146024820152730e0e4d2dcc6d2e0c2d840dcdee840cadcdeeaced60631b604482015260640161085f565b600060068201819055600782018190556008820154815260a7602052604081206002810180549192869261244590849061426b565b909155505060a454600483015411612476578481600401600082825461246b919061426b565b909155506124909050565b8481600301600082825461248a919061426b565b90915550505b6004820154600383015481146125005760006124b984600301548361285e90919063ffffffff16565b6008850154600084815260a9602090815260408083208484528252808320858452909152812060010180549394509192899291906124f890849061426b565b909155505050505b8380881561256f57600985015461252d57609754612528906001600160a01b03168c896132db565b612556565b846009015460011480612544575084600901546002145b15612556576125538783614214565b91505b6125628b60008961333e565b61256c8782614214565b90505b6125798b83613531565b80156125e65760985460405163de637ff760e01b8152600481018390526001600160a01b038d811660248301529091169063de637ff790604401600060405180830381600087803b1580156125cd57600080fd5b505af11580156125e1573d6000803e3d6000fd5b505050505b604080518b8152602081018390527f9045c2ac9b2026de8075f2701bbdde882cd5e830b3b1ead9a15b22f2b5b93742910160405180910390a1505050505093509350939050565b6001606555565b600054610100900460ff1661265b5760405162461bcd60e51b815260040161085f906140e5565b61150d6135eb565b600054610100900460ff1661268a5760405162461bcd60e51b815260040161085f906140e5565b61150d61361b565b6000611fe58284614214565b6001600160a01b038416600090815260aa602090815260408083208684528252808320815161014081018352815481526001820154938101939093526002810154918301919091526003810154606083015260048101546080830152600581015460a08301819052600682015460c0840152600782015460e08401819052600883015461010085015260099092015461012084015283928392909180612753575060c09091015190935091506000905061283e565b6080830151606084015181148061276a5750888110155b15612789576127828460e001518560a001518a613642565b9250612812565b610100840151600090815260a8602090815260408083206080880151845290915281206001015460e086015160a08701519192916127c8919084613642565b9050600060a860006127d8611eb2565b815260200190815260200160002060008860800151815260200190815260200160002060010154905061280c82828d613642565b95505050505b600061282b8560c001518561285e90919063ffffffff16565b60c0909501519397509295509293505050505b9450945094915050565b6000611fe5838361365c565b60006111ef825490565b6000611fe5828461426b565b6000611fe5828461424c565b6000611fe5828461422c565b609f546040516339744bdb60e01b8152600481018890526001600160a01b03909116906339744bdb9060240160206040518083038186803b1580156128c657600080fd5b505afa1580156128da573d6000803e3d6000fd5b505050506040513d601f19601f820116820180604052508101906128fe9190613d7a565b61293f5760405162461bcd60e51b81526020600482015260126024820152711a5b9d985b1a59081c985d19525b999bd25960721b604482015260640161085f565b83156129d65760975461295d906001600160a01b0316893087613694565b84156129d65761296f8786600061333e565b609854604051631a8c075760e11b8152600481018790526001600160a01b038981166024830152909116906335180eae90604401600060405180830381600087803b1580156129bd57600080fd5b505af11580156129d1573d6000803e3d6000fd5b505050505b81156129ef576129ef88866129e9611eb2565b896136cc565b846129f957612c5a565b600086815260a7602052604090206001810154612a1e57633b9aca0060018201558681555b85816002016000828254612a329190614214565b909155505060a4546000612a468287612692565b9050612a50611eb2565b891415612a7e5760a360010154905087836004016000828254612a739190614214565b90915550612ada9050565b87836003016000828254612a929190614214565b9091555050600081815260a9602090815260408083208c84528252808320898452909152812060018101805491928b92612acd908490614214565b9091555050600184015490555b600042905060405180610140016040528082815260200182815260200143815260200160a3600101548152602001838152602001856001015481526020018a81526020018a81526020018b81526020018681525060aa60008d6001600160a01b03166001600160a01b031681526020019081526020016000206000838152602001908152602001600020600082015181600001556020820151816001015560408201518160020155606082015181600301556080820151816004015560a0820151816005015560c0820151816006015560e0820151816007015561010082015181600801556101208201518160090155905050612c048160ab60008e6001600160a01b03166001600160a01b031681526020019081526020016000206138e090919063ffffffff16565b50604080518981526001600160a01b038d1660208201529081018b9052606081018890527f65b77eb5399a4efa13d82db454c5e1217cf945af3029ec9dc0e1ee6525ebed1b9060800160405180910390a1505050505b5050505050505050565b603380546001600160a01b038381166001600160a01b0319831681179093556040519116919082907f8be0079c531659141344cd1fd0a4f28419497f9722a3daafe3b4186f6b6457e090600090a35050565b609f54604051630d315bc360e21b815260048101839052600091829182918291829182916001600160a01b03909116906334c56f0c9060240160606040518083038186803b158015612d0757600080fd5b505afa158015612d1b573d6000803e3d6000fd5b505050506040513d601f19601f82011682018060405250810190612d3f9190613f5b565b50609f54909250600091506001600160a01b03166334c56f0c612d60611eb2565b6040518263ffffffff1660e01b8152600401612d7e91815260200190565b60606040518083038186803b158015612d9657600080fd5b505afa158015612daa573d6000803e3d6000fd5b505050506040513d601f19601f82011682018060405250810190612dce9190613f5b565b5060008a815260a76020908152604091829020825160a0810184528154815260018201549281018390526002820154938101939093526003810154606084018190526004909101546080840181905293955091935090918291819080612e45612e3e620f42406111728b8761286a565b8590612692565b9250612e4f611eb2565b8f1415612e7857612e71612e6a620f42406111728b8661286a565b8390612692565b9050612eac565b612e8c612e6a620f42406111728c8661286a565b9050612ea9612ea2620f42406111728c8a61286a565b8790612692565b94505b612eb6858761285e565b99506000612ec4848661285e565b9050612ed0818c612692565b919e50949c50919a509098505050505050505091939590929450565b60008181526001830160205260408120548015612fff576000612f1060018361426b565b8554909150600090612f249060019061426b565b9050818114612fa5576000866000018281548110612f5257634e487b7160e01b600052603260045260246000fd5b9060005260206000200154905080876000018481548110612f8357634e487b7160e01b600052603260045260246000fd5b6000918252602080832090910192909255918252600188019052604090208390555b8554869080612fc457634e487b7160e01b600052603160045260246000fd5b6001900381819060005260206000200160009055905585600101600086815260200190815260200160002060009055600193505050506111ef565b60009150506111ef565b6000818152600183016020526040812054613050575081546001818101845560008481526020808220909301849055845484825282860190935260409020919091556111ef565b5060006111ef565b600081815260a76020526040812060018101546130795760009150506107c1565b6000613083611cff565b92505050808015613096575060ac5460ff165b156130ca5760008060008060006130ac89612cb6565b5060018b019390935560038a01919091556004890155975050505050505b6040805160a0810182528354815260018085015460208084019182526002808801548587019081526003808a0154606088019081526004808c015460808a0190815260008f815260a888528b81204382529097528a872099518a559651978901979097559151928701929092555190850155905192820192909255609f54835163908498a760e01b815293519293849384936001600160a01b039093169263908498a7928082019286929091829003018186803b15801561318a57600080fd5b505afa15801561319e573d6000803e3d6000fd5b505050506040513d6000823e601f3d908101601f191682016040526131c69190810190613e45565b92509250925060005b838110156132ac5760008382815181106131f957634e487b7160e01b600052603260045260246000fd5b60209081029190910181015160a554600090815260a9835260408082208d8352845280822083835284529081902081518083019092528054825260010154928101839052909250901561329757600061325f826020015183600001518b60010154613642565b905080896003016000828254613275919061426b565b92505081905550808960040160008282546132909190614214565b9091555050505b505080806132a4906142ae565b9150506131cf565b505050505050919050565b60008181526001830160205260408120541515611fe5565b6000611fe58383612eec565b6040516001600160a01b0383166024820152604481018290526114f690849063a9059cbb60e01b906064015b60408051601f198184030181529190526020810180516001600160e01b03166001600160e01b0319909316929092179091526138ec565b6001600160a01b038316600090815260a660205260409020548215613385576133678184612692565b6001600160a01b038516600090815260a660205260409020556133af565b81156133af57613395818361285e565b6001600160a01b038516600090815260a660205260409020555b6001600160a01b03808516600090815260a660205260409020546099549091161561343b576099546040516311b9425f60e01b81526001600160a01b03878116600483015260248201849052909116906311b9425f90604401600060405180830381600087803b15801561342257600080fd5b505af1158015613436573d6000803e3d6000fd5b505050505b609a546001600160a01b0316156134b357609a546040516311b9425f60e01b81526001600160a01b03878116600483015260248201849052909116906311b9425f90604401600060405180830381600087803b15801561349a57600080fd5b505af11580156134ae573d6000803e3d6000fd5b505050505b609d546001600160a01b03161561173057609d546040516311b9425f60e01b81526001600160a01b03878116600483015260248201849052909116906311b9425f90604401600060405180830381600087803b15801561351257600080fd5b505af1158015613526573d6000803e3d6000fd5b505050505050505050565b8061353b57610780565b609b546001600160a01b0316156135d457609b546040516309feb8f560e41b81526001600160a01b0384811660048301526024820184905290911690639feb8f5090604401600060405180830381600087803b15801561359a57600080fd5b505af11580156135ae573d6000803e3d6000fd5b5050609b546097546135cf93506001600160a01b03908116925016836132db565b610780565b609754610780906001600160a01b031683836132db565b600054610100900460ff166136125760405162461bcd60e51b815260040161085f906140e5565b61150d33612c64565b600054610100900460ff1661262d5760405162461bcd60e51b815260040161085f906140e5565b60008061365384611172878661286a565b95945050505050565b600082600001828154811061368157634e487b7160e01b600052603260045260246000fd5b9060005260206000200154905092915050565b6040516001600160a01b03808516602483015283166044820152606481018290526112609085906323b872dd60e01b90608401613307565b6136d4611eb2565b8110156137125760405162461bcd60e51b815260206004820152600c60248201526b18da1958dac81c985d19525960a21b604482015260640161085f565b61371a611eb2565b81141561372657611260565b8261373057611260565b808214156137745760405162461bcd60e51b81526020600482015260116024820152703930ba329031b7b73334b39032b93937b960791b604482015260640161085f565b609f54604051630d315bc360e21b815260048101849052600091829182916001600160a01b0316906334c56f0c9060240160606040518083038186803b1580156137bd57600080fd5b505afa1580156137d1573d6000803e3d6000fd5b505050506040513d601f19601f820116820180604052508101906137f59190613f5b565b609f54604051630d315bc360e21b8152600481018990529396509194509250600091829182916001600160a01b03909116906334c56f0c9060240160606040518083038186803b15801561384857600080fd5b505afa15801561385c573d6000803e3d6000fd5b505050506040513d601f19601f820116820180604052508101906138809190613f5b565b919450925090506000613893828661285e565b90508960006138b66103e8611172856138b086633b9aca0061286a565b9061286a565b60a0549091506138d1906001600160a01b03168e3084613694565b50505050505050505050505050565b6000611fe58383613009565b6000613941826040518060400160405280602081526020017f5361666545524332303a206c6f772d6c6576656c2063616c6c206661696c6564815250856001600160a01b03166139be9092919063ffffffff16565b8051909150156114f6578080602001905181019061395f9190613d7a565b6114f65760405162461bcd60e51b815260206004820152602a60248201527f5361666545524332303a204552433230206f7065726174696f6e20646964206e6044820152691bdd081cdd58d8d9595960b21b606482015260840161085f565b60606139cd84846000856139d5565b949350505050565b6060843b613a255760405162461bcd60e51b815260206004820152601d60248201527f416464726573733a2063616c6c20746f206e6f6e2d636f6e7472616374000000604482015260640161085f565b600080866001600160a01b03168587604051613a419190614028565b60006040518083038185875af1925050503d8060008114613a7e576040519150601f19603f3d011682016040523d82523d6000602084013e613a83565b606091505b50915091508115613a975791506139cd9050565b805115613aa75780518082602001fd5b8360405162461bcd60e51b815260040161085f91906140b2565b604051806101400160405280600081526020016000815260200160008152602001600081526020016000815260200160008152602001600081526020016000815260200160008152602001600081525090565b80356001600160a01b03811681146107c157600080fd5b60008083601f840112613b3c578182fd5b50813567ffffffffffffffff811115613b53578182fd5b6020830191508360208083028501011115613b6d57600080fd5b9250929050565b600082601f830112613b84578081fd5b81516020613b99613b94836141f0565b6141bf565b8281528181019085830183850287018401881015613bb5578586fd5b855b85811015613bd357815184529284019290840190600101613bb7565b5090979650505050505050565b600060208284031215613bf1578081fd5b611fe582613b14565b60008060008060008060008060006101208a8c031215613c18578485fd5b613c218a613b14565b9850613c2f60208b01613b14565b9750613c3d60408b01613b14565b9650613c4b60608b01613b14565b9550613c5960808b01613b14565b9450613c6760a08b01613b14565b9350613c7560c08b01613b14565b9250613c8360e08b01613b14565b91506101008a013590509295985092959850929598565b60008060408385031215613cac578182fd5b613cb583613b14565b946020939093013593505050565b600080600060608486031215613cd7578283fd5b613ce084613b14565b95602085013595506040909401359392505050565b60008060008060408587031215613d0a578384fd5b843567ffffffffffffffff80821115613d21578586fd5b613d2d88838901613b2b565b90965094506020870135915080821115613d45578384fd5b50613d5287828801613b2b565b95989497509550505050565b600060208284031215613d6f578081fd5b8135611fe5816142f5565b600060208284031215613d8b578081fd5b8151611fe5816142f5565b600060208284031215613da7578081fd5b5035919050565b600060208284031215613dbf578081fd5b5051919050565b60008060008060808587031215613ddb578182fd5b84359350613deb60208601613b14565b93969395505050506040820135916060013590565b60008060408385031215613e12578182fd5b82519150602083015167ffffffffffffffff811115613e2f578182fd5b613e3b85828601613b74565b9150509250929050565b600080600060608486031215613e59578081fd5b8351925060208085015167ffffffffffffffff80821115613e78578384fd5b613e8488838901613b74565b94506040870151915080821115613e99578384fd5b508501601f81018713613eaa578283fd5b8051613eb8613b94826141f0565b81815283810190838501858402850186018b1015613ed4578687fd5b8694505b83851015613eff578051613eeb816142f5565b835260019490940193918501918501613ed8565b5080955050505050509250925092565b60008060408385031215613f21578182fd5b50508035926020909101359150565b600080600060608486031215613f44578081fd5b505081359360208301359350604090920135919050565b600080600060608486031215613f6f578081fd5b8351925060208401519150604084015190509250925092565b6000815180845260208085019450808401835b83811015613fb757815187529582019590820190600101613f9b565b509495945050505050565b805182526020810151602083015260408101516040830152606081015160608301526080810151608083015260a081015160a083015260c081015160c083015260e081015160e08301526101008082015181840152506101208082015181840152505050565b6000825161403a818460208701614282565b9190910192915050565b602080825282518282018190526000919060409081850190868401855b828110156140a55781518051855286810151878601528581015186860152606080820151908601526080908101519085015260a09093019290850190600101614061565b5091979650505050505050565b60006020825282518060208401526140d1816040850160208701614282565b601f01601f19169190910160400192915050565b6020808252602b908201527f496e697469616c697a61626c653a20636f6e7472616374206973206e6f74206960408201526a6e697469616c697a696e6760a81b606082015260800190565b61014081016111ef8284613fc2565b600060808201868352602060808185015281875180845260a0860191508289019350845b8181101561418a57614176838651613fc2565b938301936101409290920191600101614163565b5050848103604086015261419e8188613f88565b9250505082810360608401526141b48185613f88565b979650505050505050565b604051601f8201601f1916810167ffffffffffffffff811182821017156141e8576141e86142df565b604052919050565b600067ffffffffffffffff82111561420a5761420a6142df565b5060209081020190565b60008219821115614227576142276142c9565b500190565b60008261424757634e487b7160e01b81526012600452602481fd5b500490565b6000816000190483118215151615614266576142666142c9565b500290565b60008282101561427d5761427d6142c9565b500390565b60005b8381101561429d578181015183820152602001614285565b838111156112605750506000910152565b60006000198214156142c2576142c26142c9565b5060010190565b634e487b7160e01b600052601160045260246000fd5b634e487b7160e01b600052604160045260246000fd5b801515811461078257600080fdfea26469706673582212207a359eecfd37dfc768b9cf04f04d1ed50e8acd3bd780823a330c3fed570b012664736f6c63430008020033",
  "linkReferences": {},
  "deployedLinkReferences": {}
}