{
  "_format": "hh-sol-artifact-1",
  "contractName": "TokenBatchTransfer",
  "sourceName": "contracts/mocks/TokenBatchTransfer.sol",
  "abi": [
    {
      "anonymous": false,
      "inputs": [
        {
          "indexed": false,
          "internalType": "uint8",
          "name": "version",
          "type": "uint8"
        }
      ],
      "name": "Initialized",
      "type": "event"
    },
    {
      "anonymous": false,
      "inputs": [
        {
          "indexed": true,
          "internalType": "address",
          "name": "previousOwner",
          "type": "address"
        },
        {
          "indexed": true,
          "internalType": "address",
          "name": "newOwner",
          "type": "address"
        }
      ],
      "name": "OwnershipTransferred",
      "type": "event"
    },
    {
      "inputs": [
        {
          "internalType": "address",
          "name": "tokenAddress",
          "type": "address"
        },
        {
          "internalType": "address[]",
          "name": "users",
          "type": "address[]"
        },
        {
          "internalType": "uint256[]",
          "name": "amounts",
          "type": "uint256[]"
        }
      ],
      "name": "batchTransfer",
      "outputs": [],
      "stateMutability": "nonpayable",
      "type": "function"
    },
    {
      "inputs": [
        {
          "internalType": "address",
          "name": "tokenAddress",
          "type": "address"
        },
        {
          "internalType": "address[]",
          "name": "users",
          "type": "address[]"
        },
        {
          "internalType": "uint256[]",
          "name": "amounts",
          "type": "uint256[]"
        }
      ],
      "name": "batchTransferFromSender",
      "outputs": [],
      "stateMutability": "nonpayable",
      "type": "function"
    },
    {
      "inputs": [
        {
          "internalType": "address",
          "name": "tokenAddress",
          "type": "address"
        },
        {
          "internalType": "uint256",
          "name": "amount",
          "type": "uint256"
        },
        {
          "internalType": "address[]",
          "name": "users",
          "type": "address[]"
        }
      ],
      "name": "batchTransferSameAmount",
      "outputs": [],
      "stateMutability": "nonpayable",
      "type": "function"
    },
    {
      "inputs": [],
      "name": "initialize",
      "outputs": [],
      "stateMutability": "nonpayable",
      "type": "function"
    },
    {
      "inputs": [],
      "name": "owner",
      "outputs": [
        {
          "internalType": "address",
          "name": "",
          "type": "address"
        }
      ],
      "stateMutability": "view",
      "type": "function"
    },
    {
      "inputs": [],
      "name": "renounceOwnership",
      "outputs": [],
      "stateMutability": "nonpayable",
      "type": "function"
    },
    {
      "inputs": [
        {
          "internalType": "address",
          "name": "newOwner",
          "type": "address"
        }
      ],
      "name": "transferOwnership",
      "outputs": [],
      "stateMutability": "nonpayable",
      "type": "function"
    },
    {
      "inputs": [
        {
          "internalType": "address",
          "name": "_token",
          "type": "address"
        },
        {
          "internalType": "uint256",
          "name": "_amount",
          "type": "uint256"
        },
        {
          "internalType": "address",
          "name": "_to",
          "type": "address"
        }
      ],
      "name": "withdrawToken",
      "outputs": [],
      "stateMutability": "nonpayable",
      "type": "function"
    }
  ],
  "bytecode": "0x608060405234801561001057600080fd5b50611a3f806100206000396000f3fe608060405234801561001057600080fd5b50600436106100885760003560e01c80638da5cb5b1161005b5780638da5cb5b146100d9578063c34724b2146100f7578063ce7ae78e14610113578063f2fde38b1461012f57610088565b80631239ec8c1461008d5780633ccdbb28146100a9578063715018a6146100c55780638129fc1c146100cf575b600080fd5b6100a760048036038101906100a29190611038565b61014b565b005b6100c360048036038101906100be91906110c3565b61020b565b005b6100cd610233565b005b6100d7610247565b005b6100e161038d565b6040516100ee9190611125565b60405180910390f35b610111600480360381019061010c9190611140565b6103b7565b005b61012d60048036038101906101289190611038565b6104a0565b005b610149600480360381019061014491906111af565b610559565b005b6101536105dc565b61015b61065a565b805182511461019f576040517f08c379a000000000000000000000000000000000000000000000000000000000815260040161019690611239565b60405180910390fd5b60005b82518110156101fd576101ea848483815181106101c2576101c1611259565b5b60200260200101518484815181106101dd576101dc611259565b5b60200260200101516106a9565b80806101f5906112b7565b9150506101a2565b506102066107df565b505050565b6102136105dc565b61021b61065a565b6102268383836107e9565b61022e6107df565b505050565b61023b6105dc565b61024560006108de565b565b60008060019054906101000a900460ff161590508080156102785750600160008054906101000a900460ff1660ff16105b806102a55750610287306109a4565b1580156102a45750600160008054906101000a900460ff1660ff16145b5b6102e4576040517f08c379a00000000000000000000000000000000000000000000000000000000081526004016102db90611371565b60405180910390fd5b60016000806101000a81548160ff021916908360ff1602179055508015610321576001600060016101000a81548160ff0219169083151502179055505b6103296109c7565b610331610a20565b801561038a5760008060016101000a81548160ff0219169083151502179055507f7f26b83ff96e1f2b6a682f133852f6798a09c465da95921460cefb3847402498600160405161038191906113e3565b60405180910390a15b50565b6000603360009054906101000a900473ffffffffffffffffffffffffffffffffffffffff16905090565b6103bf6105dc565b6103c761065a565b600081511161040b576040517f08c379a00000000000000000000000000000000000000000000000000000000081526004016104029061144a565b60405180910390fd5b6000821161044e576040517f08c379a0000000000000000000000000000000000000000000000000000000008152600401610445906114b6565b60405180910390fd5b60005b81518110156104925761047f848484848151811061047257610471611259565b5b60200260200101516107e9565b808061048a906112b7565b915050610451565b5061049b6107df565b505050565b6104a861065a565b80518251146104ec576040517f08c379a00000000000000000000000000000000000000000000000000000000081526004016104e390611239565b60405180910390fd5b60005b825181101561054b5761053884338584815181106105105761050f611259565b5b602002602001015185858151811061052b5761052a611259565b5b6020026020010151610a79565b8080610543906112b7565b9150506104ef565b506105546107df565b505050565b6105616105dc565b600073ffffffffffffffffffffffffffffffffffffffff168173ffffffffffffffffffffffffffffffffffffffff16036105d0576040517f08c379a00000000000000000000000000000000000000000000000000000000081526004016105c790611548565b60405180910390fd5b6105d9816108de565b50565b6105e4610bb2565b73ffffffffffffffffffffffffffffffffffffffff1661060261038d565b73ffffffffffffffffffffffffffffffffffffffff1614610658576040517f08c379a000000000000000000000000000000000000000000000000000000000815260040161064f906115b4565b60405180910390fd5b565b60026065540361069f576040517f08c379a000000000000000000000000000000000000000000000000000000000815260040161069690611620565b60405180910390fd5b6002606581905550565b6000808473ffffffffffffffffffffffffffffffffffffffff1663a9059cbb85856040516024016106db92919061164f565b6040516020818303038152906040529060e01b6020820180517bffffffffffffffffffffffffffffffffffffffffffffffffffffffff838183161783525050505060405161072991906116f2565b6000604051808303816000865af19150503d8060008114610766576040519150601f19603f3d011682016040523d82523d6000602084013e61076b565b606091505b509150915081801561079957506000815114806107985750808060200190518101906107979190611741565b5b5b6107d8576040517f08c379a00000000000000000000000000000000000000000000000000000000081526004016107cf906117ba565b60405180910390fd5b5050505050565b6001606581905550565b8273ffffffffffffffffffffffffffffffffffffffff16600073ffffffffffffffffffffffffffffffffffffffff160361084057600080831161082c574761082e565b825b905061083a8282610bba565b506108d9565b60008083116108c8578373ffffffffffffffffffffffffffffffffffffffff166370a08231306040518263ffffffff1660e01b81526004016108829190611125565b602060405180830381865afa15801561089f573d6000803e3d6000fd5b505050506040513d601f19601f820116820180604052508101906108c391906117ef565b6108ca565b825b90506108d78483836106a9565b505b505050565b6000603360009054906101000a900473ffffffffffffffffffffffffffffffffffffffff16905081603360006101000a81548173ffffffffffffffffffffffffffffffffffffffff021916908373ffffffffffffffffffffffffffffffffffffffff1602179055508173ffffffffffffffffffffffffffffffffffffffff168173ffffffffffffffffffffffffffffffffffffffff167f8be0079c531659141344cd1fd0a4f28419497f9722a3daafe3b4186f6b6457e060405160405180910390a35050565b6000808273ffffffffffffffffffffffffffffffffffffffff163b119050919050565b600060019054906101000a900460ff16610a16576040517f08c379a0000000000000000000000000000000000000000000000000000000008152600401610a0d9061188e565b60405180910390fd5b610a1e610cba565b565b600060019054906101000a900460ff16610a6f576040517f08c379a0000000000000000000000000000000000000000000000000000000008152600401610a669061188e565b60405180910390fd5b610a77610d1b565b565b6000808573ffffffffffffffffffffffffffffffffffffffff166323b872dd868686604051602401610aad939291906118ae565b6040516020818303038152906040529060e01b6020820180517bffffffffffffffffffffffffffffffffffffffffffffffffffffffff8381831617835250505050604051610afb91906116f2565b6000604051808303816000865af19150503d8060008114610b38576040519150601f19603f3d011682016040523d82523d6000602084013e610b3d565b606091505b5091509150818015610b6b5750600081511480610b6a575080806020019051810190610b699190611741565b5b5b610baa576040517f08c379a0000000000000000000000000000000000000000000000000000000008152600401610ba190611957565b60405180910390fd5b505050505050565b600033905090565b60008273ffffffffffffffffffffffffffffffffffffffff1682600067ffffffffffffffff811115610bef57610bee610dfc565b5b6040519080825280601f01601f191660200182016040528015610c215781602001600182028036833780820191505090505b50604051610c2f91906116f2565b60006040518083038185875af1925050503d8060008114610c6c576040519150601f19603f3d011682016040523d82523d6000602084013e610c71565b606091505b5050905080610cb5576040517f08c379a0000000000000000000000000000000000000000000000000000000008152600401610cac906119e9565b60405180910390fd5b505050565b600060019054906101000a900460ff16610d09576040517f08c379a0000000000000000000000000000000000000000000000000000000008152600401610d009061188e565b60405180910390fd5b610d19610d14610bb2565b6108de565b565b600060019054906101000a900460ff16610d6a576040517f08c379a0000000000000000000000000000000000000000000000000000000008152600401610d619061188e565b60405180910390fd5b6001606581905550565b6000604051905090565b600080fd5b600080fd5b600073ffffffffffffffffffffffffffffffffffffffff82169050919050565b6000610db382610d88565b9050919050565b610dc381610da8565b8114610dce57600080fd5b50565b600081359050610de081610dba565b92915050565b600080fd5b6000601f19601f8301169050919050565b7f4e487b7100000000000000000000000000000000000000000000000000000000600052604160045260246000fd5b610e3482610deb565b810181811067ffffffffffffffff82111715610e5357610e52610dfc565b5b80604052505050565b6000610e66610d74565b9050610e728282610e2b565b919050565b600067ffffffffffffffff821115610e9257610e91610dfc565b5b602082029050602081019050919050565b600080fd5b6000610ebb610eb684610e77565b610e5c565b90508083825260208201905060208402830185811115610ede57610edd610ea3565b5b835b81811015610f075780610ef38882610dd1565b845260208401935050602081019050610ee0565b5050509392505050565b600082601f830112610f2657610f25610de6565b5b8135610f36848260208601610ea8565b91505092915050565b600067ffffffffffffffff821115610f5a57610f59610dfc565b5b602082029050602081019050919050565b6000819050919050565b610f7e81610f6b565b8114610f8957600080fd5b50565b600081359050610f9b81610f75565b92915050565b6000610fb4610faf84610f3f565b610e5c565b90508083825260208201905060208402830185811115610fd757610fd6610ea3565b5b835b818110156110005780610fec8882610f8c565b845260208401935050602081019050610fd9565b5050509392505050565b600082601f83011261101f5761101e610de6565b5b813561102f848260208601610fa1565b91505092915050565b60008060006060848603121561105157611050610d7e565b5b600061105f86828701610dd1565b935050602084013567ffffffffffffffff8111156110805761107f610d83565b5b61108c86828701610f11565b925050604084013567ffffffffffffffff8111156110ad576110ac610d83565b5b6110b98682870161100a565b9150509250925092565b6000806000606084860312156110dc576110db610d7e565b5b60006110ea86828701610dd1565b93505060206110fb86828701610f8c565b925050604061110c86828701610dd1565b9150509250925092565b61111f81610da8565b82525050565b600060208201905061113a6000830184611116565b92915050565b60008060006060848603121561115957611158610d7e565b5b600061116786828701610dd1565b935050602061117886828701610f8c565b925050604084013567ffffffffffffffff81111561119957611198610d83565b5b6111a586828701610f11565b9150509250925092565b6000602082840312156111c5576111c4610d7e565b5b60006111d384828501610dd1565b91505092915050565b600082825260208201905092915050565b7f496e76616c696420696e70757400000000000000000000000000000000000000600082015250565b6000611223600d836111dc565b915061122e826111ed565b602082019050919050565b6000602082019050818103600083015261125281611216565b9050919050565b7f4e487b7100000000000000000000000000000000000000000000000000000000600052603260045260246000fd5b7f4e487b7100000000000000000000000000000000000000000000000000000000600052601160045260246000fd5b60006112c282610f6b565b91507fffffffffffffffffffffffffffffffffffffffffffffffffffffffffffffffff82036112f4576112f3611288565b5b600182019050919050565b7f496e697469616c697a61626c653a20636f6e747261637420697320616c72656160008201527f647920696e697469616c697a6564000000000000000000000000000000000000602082015250565b600061135b602e836111dc565b9150611366826112ff565b604082019050919050565b6000602082019050818103600083015261138a8161134e565b9050919050565b6000819050919050565b600060ff82169050919050565b6000819050919050565b60006113cd6113c86113c384611391565b6113a8565b61139b565b9050919050565b6113dd816113b2565b82525050565b60006020820190506113f860008301846113d4565b92915050565b7f757365727320656d707479000000000000000000000000000000000000000000600082015250565b6000611434600b836111dc565b915061143f826113fe565b602082019050919050565b6000602082019050818103600083015261146381611427565b9050919050565b7f636865636b20616d6f756e740000000000000000000000000000000000000000600082015250565b60006114a0600c836111dc565b91506114ab8261146a565b602082019050919050565b600060208201905081810360008301526114cf81611493565b9050919050565b7f4f776e61626c653a206e6577206f776e657220697320746865207a65726f206160008201527f6464726573730000000000000000000000000000000000000000000000000000602082015250565b60006115326026836111dc565b915061153d826114d6565b604082019050919050565b6000602082019050818103600083015261156181611525565b9050919050565b7f4f776e61626c653a2063616c6c6572206973206e6f7420746865206f776e6572600082015250565b600061159e6020836111dc565b91506115a982611568565b602082019050919050565b600060208201905081810360008301526115cd81611591565b9050919050565b7f5265656e7472616e637947756172643a207265656e7472616e742063616c6c00600082015250565b600061160a601f836111dc565b9150611615826115d4565b602082019050919050565b60006020820190508181036000830152611639816115fd565b9050919050565b61164981610f6b565b82525050565b60006040820190506116646000830185611116565b6116716020830184611640565b9392505050565b600081519050919050565b600081905092915050565b60005b838110156116ac578082015181840152602081019050611691565b838111156116bb576000848401525b50505050565b60006116cc82611678565b6116d68185611683565b93506116e681856020860161168e565b80840191505092915050565b60006116fe82846116c1565b915081905092915050565b60008115159050919050565b61171e81611709565b811461172957600080fd5b50565b60008151905061173b81611715565b92915050565b60006020828403121561175757611756610d7e565b5b60006117658482850161172c565b91505092915050565b7f5472616e7366657248656c7065723a205452414e534645525f4641494c454400600082015250565b60006117a4601f836111dc565b91506117af8261176e565b602082019050919050565b600060208201905081810360008301526117d381611797565b9050919050565b6000815190506117e981610f75565b92915050565b60006020828403121561180557611804610d7e565b5b6000611813848285016117da565b91505092915050565b7f496e697469616c697a61626c653a20636f6e7472616374206973206e6f74206960008201527f6e697469616c697a696e67000000000000000000000000000000000000000000602082015250565b6000611878602b836111dc565b91506118838261181c565b604082019050919050565b600060208201905081810360008301526118a78161186b565b9050919050565b60006060820190506118c36000830186611116565b6118d06020830185611116565b6118dd6040830184611640565b949350505050565b7f5472616e7366657248656c7065723a205452414e534645525f46524f4d5f464160008201527f494c454400000000000000000000000000000000000000000000000000000000602082015250565b60006119416024836111dc565b915061194c826118e5565b604082019050919050565b6000602082019050818103600083015261197081611934565b9050919050565b7f5472616e7366657248656c7065723a204554485f5452414e534645525f46414960008201527f4c45440000000000000000000000000000000000000000000000000000000000602082015250565b60006119d36023836111dc565b91506119de82611977565b604082019050919050565b60006020820190508181036000830152611a02816119c6565b905091905056fea26469706673582212207a010bbef1a634d1d28e972a66297a738c585a587f4a1418ef926ae5ae025d1564736f6c634300080d0033",
  "linkReferences": {},
  "deployedLinkReferences": {}
}