{
  "_format": "hh-sol-artifact-1",
  "contractName": "TokenBalanceChecker",
  "sourceName": "contracts/TokenBalanceChecker.sol",
  "abi": [
    {
      "anonymous": false,
      "inputs": [
        {
          "indexed": false,
          "internalType": "uint8",
          "name": "version",
          "type": "uint8"
        }
      ],
      "name": "Initialized",
      "type": "event"
    },
    {
      "anonymous": false,
      "inputs": [
        {
          "indexed": true,
          "internalType": "address",
          "name": "previousOwner",
          "type": "address"
        },
        {
          "indexed": true,
          "internalType": "address",
          "name": "newOwner",
          "type": "address"
        }
      ],
      "name": "OwnershipTransferred",
      "type": "event"
    },
    {
      "inputs": [
        {
          "internalType": "address",
          "name": "_tokenAddress",
          "type": "address"
        },
        {
          "internalType": "address[]",
          "name": "_addresses",
          "type": "address[]"
        }
      ],
      "name": "getBalances",
      "outputs": [
        {
          "internalType": "uint256[]",
          "name": "",
          "type": "uint256[]"
        }
      ],
      "stateMutability": "view",
      "type": "function"
    },
    {
      "inputs": [
        {
          "internalType": "address",
          "name": "_sThsTokenAddress",
          "type": "address"
        },
        {
          "internalType": "address",
          "name": "_stakingAddress",
          "type": "address"
        },
        {
          "internalType": "address[]",
          "name": "_addresses",
          "type": "address[]"
        }
      ],
      "name": "getStakedThsTokenAmount",
      "outputs": [
        {
          "internalType": "uint256[]",
          "name": "sThsTokens_",
          "type": "uint256[]"
        },
        {
          "internalType": "uint256[]",
          "name": "stakedThsTokens_",
          "type": "uint256[]"
        }
      ],
      "stateMutability": "view",
      "type": "function"
    },
    {
      "inputs": [],
      "name": "initialize",
      "outputs": [],
      "stateMutability": "nonpayable",
      "type": "function"
    },
    {
      "inputs": [],
      "name": "owner",
      "outputs": [
        {
          "internalType": "address",
          "name": "",
          "type": "address"
        }
      ],
      "stateMutability": "view",
      "type": "function"
    },
    {
      "inputs": [],
      "name": "renounceOwnership",
      "outputs": [],
      "stateMutability": "nonpayable",
      "type": "function"
    },
    {
      "inputs": [
        {
          "internalType": "address",
          "name": "newOwner",
          "type": "address"
        }
      ],
      "name": "transferOwnership",
      "outputs": [],
      "stateMutability": "nonpayable",
      "type": "function"
    }
  ],
  "bytecode": "0x608060405234801561001057600080fd5b50611083806100206000396000f3fe608060405234801561001057600080fd5b50600436106100625760003560e01c80636a385ae914610067578063715018a6146100975780638129fc1c146100a15780638da5cb5b146100ab578063b04e3e04146100c9578063f2fde38b146100fa575b600080fd5b610081600480360381019061007c9190610a6b565b610116565b60405161008e9190610b8f565b60405180910390f35b61009f610249565b005b6100a961025d565b005b6100b361039b565b6040516100c09190610bc0565b60405180910390f35b6100e360048036038101906100de9190610bdb565b6103c5565b6040516100f1929190610c4a565b60405180910390f35b610114600480360381019061010f9190610c81565b6105f4565b005b60606000825167ffffffffffffffff81111561013557610134610928565b5b6040519080825280602002602001820160405280156101635781602001602082028036833780820191505090505b509050600084905060005b845181101561023d578173ffffffffffffffffffffffffffffffffffffffff166370a082318683815181106101a6576101a5610cae565b5b60200260200101516040518263ffffffff1660e01b81526004016101ca9190610bc0565b602060405180830381865afa1580156101e7573d6000803e3d6000fd5b505050506040513d601f19601f8201168201806040525081019061020b9190610d09565b83828151811061021e5761021d610cae565b5b602002602001018181525050808061023590610d65565b91505061016e565b50819250505092915050565b610251610677565b61025b60006106f5565b565b60008060019054906101000a900460ff1615905080801561028e5750600160008054906101000a900460ff1660ff16105b806102bb575061029d306107bb565b1580156102ba5750600160008054906101000a900460ff1660ff16145b5b6102fa576040517f08c379a00000000000000000000000000000000000000000000000000000000081526004016102f190610e30565b60405180910390fd5b60016000806101000a81548160ff021916908360ff1602179055508015610337576001600060016101000a81548160ff0219169083151502179055505b61033f6107de565b80156103985760008060016101000a81548160ff0219169083151502179055507f7f26b83ff96e1f2b6a682f133852f6798a09c465da95921460cefb3847402498600160405161038f9190610ea2565b60405180910390a15b50565b6000603360009054906101000a900473ffffffffffffffffffffffffffffffffffffffff16905090565b606080825167ffffffffffffffff8111156103e3576103e2610928565b5b6040519080825280602002602001820160405280156104115781602001602082028036833780820191505090505b509150825167ffffffffffffffff81111561042f5761042e610928565b5b60405190808252806020026020018201604052801561045d5781602001602082028036833780820191505090505b509050600085905060005b84518110156105ea578173ffffffffffffffffffffffffffffffffffffffff166370a082318683815181106104a05761049f610cae565b5b60200260200101516040518263ffffffff1660e01b81526004016104c49190610bc0565b602060405180830381865afa1580156104e1573d6000803e3d6000fd5b505050506040513d601f19601f820116820180604052508101906105059190610d09565b84828151811061051857610517610cae565b5b6020026020010181815250508573ffffffffffffffffffffffffffffffffffffffff1663eab02ee086838151811061055357610552610cae565b5b60200260200101516040518263ffffffff1660e01b81526004016105779190610bc0565b602060405180830381865afa158015610594573d6000803e3d6000fd5b505050506040513d601f19601f820116820180604052508101906105b89190610d09565b8382815181106105cb576105ca610cae565b5b60200260200101818152505080806105e290610d65565b915050610468565b5050935093915050565b6105fc610677565b600073ffffffffffffffffffffffffffffffffffffffff168173ffffffffffffffffffffffffffffffffffffffff160361066b576040517f08c379a000000000000000000000000000000000000000000000000000000000815260040161066290610f2f565b60405180910390fd5b610674816106f5565b50565b61067f610837565b73ffffffffffffffffffffffffffffffffffffffff1661069d61039b565b73ffffffffffffffffffffffffffffffffffffffff16146106f3576040517f08c379a00000000000000000000000000000000000000000000000000000000081526004016106ea90610f9b565b60405180910390fd5b565b6000603360009054906101000a900473ffffffffffffffffffffffffffffffffffffffff16905081603360006101000a81548173ffffffffffffffffffffffffffffffffffffffff021916908373ffffffffffffffffffffffffffffffffffffffff1602179055508173ffffffffffffffffffffffffffffffffffffffff168173ffffffffffffffffffffffffffffffffffffffff167f8be0079c531659141344cd1fd0a4f28419497f9722a3daafe3b4186f6b6457e060405160405180910390a35050565b6000808273ffffffffffffffffffffffffffffffffffffffff163b119050919050565b600060019054906101000a900460ff1661082d576040517f08c379a00000000000000000000000000000000000000000000000000000000081526004016108249061102d565b60405180910390fd5b61083561083f565b565b600033905090565b600060019054906101000a900460ff1661088e576040517f08c379a00000000000000000000000000000000000000000000000000000000081526004016108859061102d565b60405180910390fd5b61089e610899610837565b6106f5565b565b6000604051905090565b600080fd5b600080fd5b600073ffffffffffffffffffffffffffffffffffffffff82169050919050565b60006108df826108b4565b9050919050565b6108ef816108d4565b81146108fa57600080fd5b50565b60008135905061090c816108e6565b92915050565b600080fd5b6000601f19601f8301169050919050565b7f4e487b7100000000000000000000000000000000000000000000000000000000600052604160045260246000fd5b61096082610917565b810181811067ffffffffffffffff8211171561097f5761097e610928565b5b80604052505050565b60006109926108a0565b905061099e8282610957565b919050565b600067ffffffffffffffff8211156109be576109bd610928565b5b602082029050602081019050919050565b600080fd5b60006109e76109e2846109a3565b610988565b90508083825260208201905060208402830185811115610a0a57610a096109cf565b5b835b81811015610a335780610a1f88826108fd565b845260208401935050602081019050610a0c565b5050509392505050565b600082601f830112610a5257610a51610912565b5b8135610a628482602086016109d4565b91505092915050565b60008060408385031215610a8257610a816108aa565b5b6000610a90858286016108fd565b925050602083013567ffffffffffffffff811115610ab157610ab06108af565b5b610abd85828601610a3d565b9150509250929050565b600081519050919050565b600082825260208201905092915050565b6000819050602082019050919050565b6000819050919050565b610b0681610af3565b82525050565b6000610b188383610afd565b60208301905092915050565b6000602082019050919050565b6000610b3c82610ac7565b610b468185610ad2565b9350610b5183610ae3565b8060005b83811015610b82578151610b698882610b0c565b9750610b7483610b24565b925050600181019050610b55565b5085935050505092915050565b60006020820190508181036000830152610ba98184610b31565b905092915050565b610bba816108d4565b82525050565b6000602082019050610bd56000830184610bb1565b92915050565b600080600060608486031215610bf457610bf36108aa565b5b6000610c02868287016108fd565b9350506020610c13868287016108fd565b925050604084013567ffffffffffffffff811115610c3457610c336108af565b5b610c4086828701610a3d565b9150509250925092565b60006040820190508181036000830152610c648185610b31565b90508181036020830152610c788184610b31565b90509392505050565b600060208284031215610c9757610c966108aa565b5b6000610ca5848285016108fd565b91505092915050565b7f4e487b7100000000000000000000000000000000000000000000000000000000600052603260045260246000fd5b610ce681610af3565b8114610cf157600080fd5b50565b600081519050610d0381610cdd565b92915050565b600060208284031215610d1f57610d1e6108aa565b5b6000610d2d84828501610cf4565b91505092915050565b7f4e487b7100000000000000000000000000000000000000000000000000000000600052601160045260246000fd5b6000610d7082610af3565b91507fffffffffffffffffffffffffffffffffffffffffffffffffffffffffffffffff8203610da257610da1610d36565b5b600182019050919050565b600082825260208201905092915050565b7f496e697469616c697a61626c653a20636f6e747261637420697320616c72656160008201527f647920696e697469616c697a6564000000000000000000000000000000000000602082015250565b6000610e1a602e83610dad565b9150610e2582610dbe565b604082019050919050565b60006020820190508181036000830152610e4981610e0d565b9050919050565b6000819050919050565b600060ff82169050919050565b6000819050919050565b6000610e8c610e87610e8284610e50565b610e67565b610e5a565b9050919050565b610e9c81610e71565b82525050565b6000602082019050610eb76000830184610e93565b92915050565b7f4f776e61626c653a206e6577206f776e657220697320746865207a65726f206160008201527f6464726573730000000000000000000000000000000000000000000000000000602082015250565b6000610f19602683610dad565b9150610f2482610ebd565b604082019050919050565b60006020820190508181036000830152610f4881610f0c565b9050919050565b7f4f776e61626c653a2063616c6c6572206973206e6f7420746865206f776e6572600082015250565b6000610f85602083610dad565b9150610f9082610f4f565b602082019050919050565b60006020820190508181036000830152610fb481610f78565b9050919050565b7f496e697469616c697a61626c653a20636f6e7472616374206973206e6f74206960008201527f6e697469616c697a696e67000000000000000000000000000000000000000000602082015250565b6000611017602b83610dad565b915061102282610fbb565b604082019050919050565b600060208201905081810360008301526110468161100a565b905091905056fea2646970667358221220563b1879ac0b30bde1f4be6fb1c927e786819f2cdecf222150ce09a394b7b1f164736f6c634300080d0033",
  "linkReferences": {},
  "deployedLinkReferences": {}
}