{
  "_format": "hh-sol-artifact-1",
  "contractName": "Treasury",
  "sourceName": "contracts/Treasury.sol",
  "abi": [
    {
      "anonymous": false,
      "inputs": [
        {
          "indexed": true,
          "internalType": "enum Treasury.MANAGING",
          "name": "managing",
          "type": "uint8"
        },
        {
          "indexed": false,
          "internalType": "address",
          "name": "activated",
          "type": "address"
        },
        {
          "indexed": false,
          "internalType": "bool",
          "name": "result",
          "type": "bool"
        }
      ],
      "name": "ChangeActivated",
      "type": "event"
    },
    {
      "anonymous": false,
      "inputs": [
        {
          "indexed": true,
          "internalType": "enum Treasury.MANAGING",
          "name": "managing",
          "type": "uint8"
        },
        {
          "indexed": false,
          "internalType": "address",
          "name": "queued",
          "type": "address"
        }
      ],
      "name": "ChangeQueued",
      "type": "event"
    },
    {
      "anonymous": false,
      "inputs": [
        {
          "indexed": true,
          "internalType": "address",
          "name": "debtor",
          "type": "address"
        },
        {
          "indexed": true,
          "internalType": "address",
          "name": "token",
          "type": "address"
        },
        {
          "indexed": false,
          "internalType": "uint256",
          "name": "amount",
          "type": "uint256"
        },
        {
          "indexed": false,
          "internalType": "uint256",
          "name": "value",
          "type": "uint256"
        }
      ],
      "name": "CreateDebt",
      "type": "event"
    },
    {
      "anonymous": false,
      "inputs": [
        {
          "indexed": true,
          "internalType": "address",
          "name": "token",
          "type": "address"
        },
        {
          "indexed": false,
          "internalType": "uint256",
          "name": "amount",
          "type": "uint256"
        },
        {
          "indexed": false,
          "internalType": "uint256",
          "name": "value",
          "type": "uint256"
        }
      ],
      "name": "Deposit",
      "type": "event"
    },
    {
      "anonymous": false,
      "inputs": [
        {
          "indexed": false,
          "internalType": "uint8",
          "name": "version",
          "type": "uint8"
        }
      ],
      "name": "Initialized",
      "type": "event"
    },
    {
      "anonymous": false,
      "inputs": [
        {
          "indexed": true,
          "internalType": "address",
          "name": "previousOwner",
          "type": "address"
        },
        {
          "indexed": true,
          "internalType": "address",
          "name": "newOwner",
          "type": "address"
        }
      ],
      "name": "OwnershipTransferred",
      "type": "event"
    },
    {
      "anonymous": false,
      "inputs": [
        {
          "indexed": true,
          "internalType": "address",
          "name": "debtor",
          "type": "address"
        },
        {
          "indexed": true,
          "internalType": "address",
          "name": "token",
          "type": "address"
        },
        {
          "indexed": false,
          "internalType": "uint256",
          "name": "amount",
          "type": "uint256"
        },
        {
          "indexed": false,
          "internalType": "uint256",
          "name": "value",
          "type": "uint256"
        }
      ],
      "name": "RepayDebt",
      "type": "event"
    },
    {
      "anonymous": false,
      "inputs": [
        {
          "indexed": true,
          "internalType": "uint256",
          "name": "totalReserves",
          "type": "uint256"
        }
      ],
      "name": "ReservesAudited",
      "type": "event"
    },
    {
      "anonymous": false,
      "inputs": [
        {
          "indexed": true,
          "internalType": "address",
          "name": "token",
          "type": "address"
        },
        {
          "indexed": false,
          "internalType": "uint256",
          "name": "amount",
          "type": "uint256"
        }
      ],
      "name": "ReservesManaged",
      "type": "event"
    },
    {
      "anonymous": false,
      "inputs": [
        {
          "indexed": true,
          "internalType": "uint256",
          "name": "totalReserves",
          "type": "uint256"
        }
      ],
      "name": "ReservesUpdated",
      "type": "event"
    },
    {
      "anonymous": false,
      "inputs": [
        {
          "indexed": true,
          "internalType": "address",
          "name": "caller",
          "type": "address"
        },
        {
          "indexed": true,
          "internalType": "address",
          "name": "recipient",
          "type": "address"
        },
        {
          "indexed": false,
          "internalType": "uint256",
          "name": "amount",
          "type": "uint256"
        }
      ],
      "name": "RewardsMinted",
      "type": "event"
    },
    {
      "anonymous": false,
      "inputs": [
        {
          "indexed": true,
          "internalType": "address",
          "name": "token",
          "type": "address"
        },
        {
          "indexed": false,
          "internalType": "uint256",
          "name": "amount",
          "type": "uint256"
        },
        {
          "indexed": false,
          "internalType": "uint256",
          "name": "value",
          "type": "uint256"
        }
      ],
      "name": "Withdrawal",
      "type": "event"
    },
    {
      "inputs": [
        {
          "internalType": "address",
          "name": "",
          "type": "address"
        }
      ],
      "name": "LiquidityDepositorQueue",
      "outputs": [
        {
          "internalType": "uint256",
          "name": "",
          "type": "uint256"
        }
      ],
      "stateMutability": "view",
      "type": "function"
    },
    {
      "inputs": [
        {
          "internalType": "address",
          "name": "",
          "type": "address"
        }
      ],
      "name": "LiquidityManagerQueue",
      "outputs": [
        {
          "internalType": "uint256",
          "name": "",
          "type": "uint256"
        }
      ],
      "stateMutability": "view",
      "type": "function"
    },
    {
      "inputs": [
        {
          "internalType": "address",
          "name": "",
          "type": "address"
        }
      ],
      "name": "LiquidityTokenQueue",
      "outputs": [
        {
          "internalType": "uint256",
          "name": "",
          "type": "uint256"
        }
      ],
      "stateMutability": "view",
      "type": "function"
    },
    {
      "inputs": [
        {
          "internalType": "address",
          "name": "",
          "type": "address"
        }
      ],
      "name": "ReserveManagerQueue",
      "outputs": [
        {
          "internalType": "uint256",
          "name": "",
          "type": "uint256"
        }
      ],
      "stateMutability": "view",
      "type": "function"
    },
    {
      "inputs": [],
      "name": "alreadyInited",
      "outputs": [
        {
          "internalType": "bool",
          "name": "",
          "type": "bool"
        }
      ],
      "stateMutability": "view",
      "type": "function"
    },
    {
      "inputs": [],
      "name": "auditReserves",
      "outputs": [],
      "stateMutability": "nonpayable",
      "type": "function"
    },
    {
      "inputs": [],
      "name": "blocksNeededForQueue",
      "outputs": [
        {
          "internalType": "uint256",
          "name": "",
          "type": "uint256"
        }
      ],
      "stateMutability": "view",
      "type": "function"
    },
    {
      "inputs": [
        {
          "internalType": "address",
          "name": "",
          "type": "address"
        }
      ],
      "name": "bondCalculator",
      "outputs": [
        {
          "internalType": "address",
          "name": "",
          "type": "address"
        }
      ],
      "stateMutability": "view",
      "type": "function"
    },
    {
      "inputs": [
        {
          "internalType": "address",
          "name": "",
          "type": "address"
        }
      ],
      "name": "debtorBalance",
      "outputs": [
        {
          "internalType": "uint256",
          "name": "",
          "type": "uint256"
        }
      ],
      "stateMutability": "view",
      "type": "function"
    },
    {
      "inputs": [
        {
          "internalType": "address",
          "name": "",
          "type": "address"
        }
      ],
      "name": "debtorQueue",
      "outputs": [
        {
          "internalType": "uint256",
          "name": "",
          "type": "uint256"
        }
      ],
      "stateMutability": "view",
      "type": "function"
    },
    {
      "inputs": [
        {
          "internalType": "uint256",
          "name": "",
          "type": "uint256"
        }
      ],
      "name": "debtors",
      "outputs": [
        {
          "internalType": "address",
          "name": "",
          "type": "address"
        }
      ],
      "stateMutability": "view",
      "type": "function"
    },
    {
      "inputs": [
        {
          "internalType": "uint256",
          "name": "_amount",
          "type": "uint256"
        },
        {
          "internalType": "address",
          "name": "_token",
          "type": "address"
        },
        {
          "internalType": "uint256",
          "name": "_profit",
          "type": "uint256"
        }
      ],
      "name": "deposit",
      "outputs": [],
      "stateMutability": "nonpayable",
      "type": "function"
    },
    {
      "inputs": [],
      "name": "excessReserves",
      "outputs": [
        {
          "internalType": "uint256",
          "name": "",
          "type": "uint256"
        }
      ],
      "stateMutability": "view",
      "type": "function"
    },
    {
      "inputs": [
        {
          "internalType": "uint256",
          "name": "_amount",
          "type": "uint256"
        },
        {
          "internalType": "address",
          "name": "_token",
          "type": "address"
        }
      ],
      "name": "incurDebt",
      "outputs": [],
      "stateMutability": "nonpayable",
      "type": "function"
    },
    {
      "inputs": [
        {
          "internalType": "address",
          "name": "_thsToken",
          "type": "address"
        },
        {
          "internalType": "address",
          "name": "_USDT",
          "type": "address"
        },
        {
          "internalType": "uint256",
          "name": "_blocksNeededForQueue",
          "type": "uint256"
        }
      ],
      "name": "initialize",
      "outputs": [],
      "stateMutability": "nonpayable",
      "type": "function"
    },
    {
      "inputs": [
        {
          "internalType": "address",
          "name": "",
          "type": "address"
        }
      ],
      "name": "isDebtor",
      "outputs": [
        {
          "internalType": "bool",
          "name": "",
          "type": "bool"
        }
      ],
      "stateMutability": "view",
      "type": "function"
    },
    {
      "inputs": [
        {
          "internalType": "address",
          "name": "",
          "type": "address"
        }
      ],
      "name": "isLiquidityDepositor",
      "outputs": [
        {
          "internalType": "bool",
          "name": "",
          "type": "bool"
        }
      ],
      "stateMutability": "view",
      "type": "function"
    },
    {
      "inputs": [
        {
          "internalType": "address",
          "name": "",
          "type": "address"
        }
      ],
      "name": "isLiquidityManager",
      "outputs": [
        {
          "internalType": "bool",
          "name": "",
          "type": "bool"
        }
      ],
      "stateMutability": "view",
      "type": "function"
    },
    {
      "inputs": [
        {
          "internalType": "address",
          "name": "",
          "type": "address"
        }
      ],
      "name": "isLiquidityToken",
      "outputs": [
        {
          "internalType": "bool",
          "name": "",
          "type": "bool"
        }
      ],
      "stateMutability": "view",
      "type": "function"
    },
    {
      "inputs": [
        {
          "internalType": "address",
          "name": "",
          "type": "address"
        }
      ],
      "name": "isReserveDepositor",
      "outputs": [
        {
          "internalType": "bool",
          "name": "",
          "type": "bool"
        }
      ],
      "stateMutability": "view",
      "type": "function"
    },
    {
      "inputs": [
        {
          "internalType": "address",
          "name": "",
          "type": "address"
        }
      ],
      "name": "isReserveManager",
      "outputs": [
        {
          "internalType": "bool",
          "name": "",
          "type": "bool"
        }
      ],
      "stateMutability": "view",
      "type": "function"
    },
    {
      "inputs": [
        {
          "internalType": "address",
          "name": "",
          "type": "address"
        }
      ],
      "name": "isReserveSpender",
      "outputs": [
        {
          "internalType": "bool",
          "name": "",
          "type": "bool"
        }
      ],
      "stateMutability": "view",
      "type": "function"
    },
    {
      "inputs": [
        {
          "internalType": "address",
          "name": "",
          "type": "address"
        }
      ],
      "name": "isReserveToken",
      "outputs": [
        {
          "internalType": "bool",
          "name": "",
          "type": "bool"
        }
      ],
      "stateMutability": "view",
      "type": "function"
    },
    {
      "inputs": [
        {
          "internalType": "address",
          "name": "",
          "type": "address"
        }
      ],
      "name": "isRewardManager",
      "outputs": [
        {
          "internalType": "bool",
          "name": "",
          "type": "bool"
        }
      ],
      "stateMutability": "view",
      "type": "function"
    },
    {
      "inputs": [
        {
          "internalType": "uint256",
          "name": "",
          "type": "uint256"
        }
      ],
      "name": "liquidityDepositors",
      "outputs": [
        {
          "internalType": "address",
          "name": "",
          "type": "address"
        }
      ],
      "stateMutability": "view",
      "type": "function"
    },
    {
      "inputs": [
        {
          "internalType": "uint256",
          "name": "",
          "type": "uint256"
        }
      ],
      "name": "liquidityManagers",
      "outputs": [
        {
          "internalType": "address",
          "name": "",
          "type": "address"
        }
      ],
      "stateMutability": "view",
      "type": "function"
    },
    {
      "inputs": [
        {
          "internalType": "uint256",
          "name": "",
          "type": "uint256"
        }
      ],
      "name": "liquidityTokens",
      "outputs": [
        {
          "internalType": "address",
          "name": "",
          "type": "address"
        }
      ],
      "stateMutability": "view",
      "type": "function"
    },
    {
      "inputs": [
        {
          "internalType": "address",
          "name": "_token",
          "type": "address"
        },
        {
          "internalType": "uint256",
          "name": "_amount",
          "type": "uint256"
        }
      ],
      "name": "manage",
      "outputs": [],
      "stateMutability": "nonpayable",
      "type": "function"
    },
    {
      "inputs": [
        {
          "internalType": "address",
          "name": "_recipient",
          "type": "address"
        },
        {
          "internalType": "uint256",
          "name": "_amount",
          "type": "uint256"
        }
      ],
      "name": "mintRewards",
      "outputs": [],
      "stateMutability": "nonpayable",
      "type": "function"
    },
    {
      "inputs": [],
      "name": "owner",
      "outputs": [
        {
          "internalType": "address",
          "name": "",
          "type": "address"
        }
      ],
      "stateMutability": "view",
      "type": "function"
    },
    {
      "inputs": [
        {
          "internalType": "enum Treasury.MANAGING",
          "name": "_managing",
          "type": "uint8"
        },
        {
          "internalType": "address",
          "name": "_address",
          "type": "address"
        }
      ],
      "name": "queue",
      "outputs": [
        {
          "internalType": "bool",
          "name": "",
          "type": "bool"
        }
      ],
      "stateMutability": "nonpayable",
      "type": "function"
    },
    {
      "inputs": [],
      "name": "renounceOwnership",
      "outputs": [],
      "stateMutability": "nonpayable",
      "type": "function"
    },
    {
      "inputs": [
        {
          "internalType": "uint256",
          "name": "_amount",
          "type": "uint256"
        },
        {
          "internalType": "address",
          "name": "_token",
          "type": "address"
        }
      ],
      "name": "repayDebtWithReserve",
      "outputs": [],
      "stateMutability": "nonpayable",
      "type": "function"
    },
    {
      "inputs": [
        {
          "internalType": "uint256",
          "name": "_amount",
          "type": "uint256"
        }
      ],
      "name": "repayDebtWithThsToken",
      "outputs": [],
      "stateMutability": "nonpayable",
      "type": "function"
    },
    {
      "inputs": [
        {
          "internalType": "address",
          "name": "",
          "type": "address"
        }
      ],
      "name": "reserveDepositorQueue",
      "outputs": [
        {
          "internalType": "uint256",
          "name": "",
          "type": "uint256"
        }
      ],
      "stateMutability": "view",
      "type": "function"
    },
    {
      "inputs": [
        {
          "internalType": "uint256",
          "name": "",
          "type": "uint256"
        }
      ],
      "name": "reserveDepositors",
      "outputs": [
        {
          "internalType": "address",
          "name": "",
          "type": "address"
        }
      ],
      "stateMutability": "view",
      "type": "function"
    },
    {
      "inputs": [
        {
          "internalType": "uint256",
          "name": "",
          "type": "uint256"
        }
      ],
      "name": "reserveManagers",
      "outputs": [
        {
          "internalType": "address",
          "name": "",
          "type": "address"
        }
      ],
      "stateMutability": "view",
      "type": "function"
    },
    {
      "inputs": [
        {
          "internalType": "address",
          "name": "",
          "type": "address"
        }
      ],
      "name": "reserveSpenderQueue",
      "outputs": [
        {
          "internalType": "uint256",
          "name": "",
          "type": "uint256"
        }
      ],
      "stateMutability": "view",
      "type": "function"
    },
    {
      "inputs": [
        {
          "internalType": "uint256",
          "name": "",
          "type": "uint256"
        }
      ],
      "name": "reserveSpenders",
      "outputs": [
        {
          "internalType": "address",
          "name": "",
          "type": "address"
        }
      ],
      "stateMutability": "view",
      "type": "function"
    },
    {
      "inputs": [
        {
          "internalType": "address",
          "name": "",
          "type": "address"
        }
      ],
      "name": "reserveTokenQueue",
      "outputs": [
        {
          "internalType": "uint256",
          "name": "",
          "type": "uint256"
        }
      ],
      "stateMutability": "view",
      "type": "function"
    },
    {
      "inputs": [
        {
          "internalType": "uint256",
          "name": "",
          "type": "uint256"
        }
      ],
      "name": "reserveTokens",
      "outputs": [
        {
          "internalType": "address",
          "name": "",
          "type": "address"
        }
      ],
      "stateMutability": "view",
      "type": "function"
    },
    {
      "inputs": [
        {
          "internalType": "address",
          "name": "",
          "type": "address"
        }
      ],
      "name": "rewardManagerQueue",
      "outputs": [
        {
          "internalType": "uint256",
          "name": "",
          "type": "uint256"
        }
      ],
      "stateMutability": "view",
      "type": "function"
    },
    {
      "inputs": [
        {
          "internalType": "uint256",
          "name": "",
          "type": "uint256"
        }
      ],
      "name": "rewardManagers",
      "outputs": [
        {
          "internalType": "address",
          "name": "",
          "type": "address"
        }
      ],
      "stateMutability": "view",
      "type": "function"
    },
    {
      "inputs": [],
      "name": "sThsToken",
      "outputs": [
        {
          "internalType": "address",
          "name": "",
          "type": "address"
        }
      ],
      "stateMutability": "view",
      "type": "function"
    },
    {
      "inputs": [],
      "name": "sThsTokenQueue",
      "outputs": [
        {
          "internalType": "uint256",
          "name": "",
          "type": "uint256"
        }
      ],
      "stateMutability": "view",
      "type": "function"
    },
    {
      "inputs": [],
      "name": "thsTokenAddr",
      "outputs": [
        {
          "internalType": "address",
          "name": "",
          "type": "address"
        }
      ],
      "stateMutability": "view",
      "type": "function"
    },
    {
      "inputs": [
        {
          "internalType": "enum Treasury.MANAGING",
          "name": "_managing",
          "type": "uint8"
        },
        {
          "internalType": "address",
          "name": "_address",
          "type": "address"
        },
        {
          "internalType": "address",
          "name": "_calculator",
          "type": "address"
        }
      ],
      "name": "toggle",
      "outputs": [
        {
          "internalType": "bool",
          "name": "",
          "type": "bool"
        }
      ],
      "stateMutability": "nonpayable",
      "type": "function"
    },
    {
      "inputs": [],
      "name": "totalDebt",
      "outputs": [
        {
          "internalType": "uint256",
          "name": "",
          "type": "uint256"
        }
      ],
      "stateMutability": "view",
      "type": "function"
    },
    {
      "inputs": [],
      "name": "totalReserves",
      "outputs": [
        {
          "internalType": "uint256",
          "name": "",
          "type": "uint256"
        }
      ],
      "stateMutability": "view",
      "type": "function"
    },
    {
      "inputs": [
        {
          "internalType": "address",
          "name": "newOwner",
          "type": "address"
        }
      ],
      "name": "transferOwnership",
      "outputs": [],
      "stateMutability": "nonpayable",
      "type": "function"
    },
    {
      "inputs": [
        {
          "internalType": "address",
          "name": "_token",
          "type": "address"
        },
        {
          "internalType": "uint256",
          "name": "_amount",
          "type": "uint256"
        }
      ],
      "name": "valueOfToken",
      "outputs": [
        {
          "internalType": "uint256",
          "name": "value_",
          "type": "uint256"
        }
      ],
      "stateMutability": "view",
      "type": "function"
    },
    {
      "inputs": [
        {
          "internalType": "uint256",
          "name": "_amount",
          "type": "uint256"
        },
        {
          "internalType": "address",
          "name": "_token",
          "type": "address"
        }
      ],
      "name": "withdraw",
      "outputs": [],
      "stateMutability": "nonpayable",
      "type": "function"
    }
  ],
  "bytecode": "0x608060405234801561001057600080fd5b5061348f806100206000396000f3fe608060405234801561001057600080fd5b506004361061034b5760003560e01c8063932cc8c3116101bd578063d796ffb8116100f9578063ee4e19a1116100a2578063fbfd393b1161007c578063fbfd393b146107f1578063fc7b9c1814610804578063fd1ec0101461080d578063fff9ee87146108205761034b565b8063ee4e19a11461079b578063f2fde38b146107be578063fb939588146107d15761034b565b8063e021c1f0116100d3578063e021c1f01461075c578063e83afee314610765578063ebd83cd8146107785761034b565b8063d796ffb814610713578063df05116f14610726578063df89b344146107395761034b565b8063bc0a88c611610166578063cd85641a11610140578063cd85641a146106c4578063d031370b146106e4578063d07f390f146106f7578063d1b317e5146107005761034b565b8063bc0a88c614610684578063bc157ac114610691578063c24ad43e146106a45761034b565b8063ab319c9a11610197578063ab319c9a14610631578063b1bd38b014610651578063b5b1d560146106715761034b565b8063932cc8c3146105cb578063a1210a2d146105eb578063a569e5711461060e5761034b565b80634e83423c1161028c578063788c6c01116102355780638da5cb5b1161020f5780638da5cb5b1461057e5780638f59c7271461058f5780638f6a7b57146105af5780638f840ddd146105c25761034b565b8063788c6c0114610528578063869871bf1461054857806387d67dff1461055b5761034b565b80636b5e40a7116102665780636b5e40a7146104fa57806370a0502a1461050d578063715018a6146105205761034b565b80634e83423c146104a157806368c31dd5146104c45780636a20de92146104e75761034b565b8063124154ca116102f95780631af4da70116102d35780631af4da701461044a5780632b7ce50014610473578063437f79121461047b578063450096fc1461048e5761034b565b8063124154ca146103f157806312422d23146104245780631794bb3c146104375761034b565b80630b0eee301161032a5780630b0eee30146103c35780630bc93f8e146103d65780630c3513a8146103e95761034b565b8062f714ce146103505780630619aff114610365578063094a865114610395575b600080fd5b61036361035e3660046131c1565b610840565b005b610378610373366004613191565b6109fa565b6040516001600160a01b0390911681526020015b60405180910390f35b6103b56103a336600461307f565b60806020526000908152604090205481565b60405190815260200161038c565b6103636103d13660046130d4565b610a24565b606554610378906001600160a01b031681565b6103b5610bd5565b6104146103ff36600461307f565b606b6020526000908152604090205460ff1681565b604051901515815260200161038c565b6103636104323660046131c1565b610c7a565b610363610445366004613099565b610f60565b61037861045836600461307f565b6076602052600090815260409020546001600160a01b031681565b610363611179565b610378610489366004613191565b611371565b61036361049c366004613191565b611381565b6104146104af36600461307f565b60826020526000908152604090205460ff1681565b6104146104d236600461307f565b60686020526000908152604090205460ff1681565b6103636104f53660046130d4565b6114bb565b610378610508366004613191565b61160a565b61037861051b366004613191565b61161a565b61036361162a565b6103b561053636600461307f565b60696020526000908152604090205481565b610378610556366004613191565b61163e565b61041461056936600461307f565b606e6020526000908152604090205460ff1681565b6033546001600160a01b0316610378565b6103b561059d36600461307f565b60726020526000908152604090205481565b6103786105bd366004613191565b61164e565b6103b560865481565b6103b56105d936600461307f565b606c6020526000908152604090205481565b6104146105f936600461307f565b60746020526000908152604090205460ff1681565b61041461061c36600461307f565b60716020526000908152604090205460ff1681565b6103b561063f36600461307f565b607c6020526000908152604090205481565b6103b561065f36600461307f565b60796020526000908152604090205481565b61037861067f366004613191565b61165e565b6088546104149060ff1681565b61036361069f3660046131e3565b61166e565b6103b56106b236600461307f565b606f6020526000908152604090205481565b6103b56106d236600461307f565b607f6020526000908152604090205481565b6103786106f2366004613191565b6118c5565b6103b560665481565b6103b561070e3660046130d4565b6118d5565b6103636107213660046131c1565b611b02565b608454610378906001600160a01b031681565b61041461074736600461307f565b607b6020526000908152604090205460ff1681565b6103b560855481565b61041461077336600461311d565b611c8b565b61041461078636600461307f565b60786020526000908152604090205460ff1681565b6104146107a936600461307f565b607e6020526000908152604090205460ff1681565b6103636107cc36600461307f565b612056565b6103b56107df36600461307f565b60836020526000908152604090205481565b6104146107ff36600461314f565b6120e6565b6103b560875481565b61037861081b366004613191565b612a38565b6103b561082e36600461307f565b60756020526000908152604090205481565b6001600160a01b03811660009081526068602052604090205460ff1661089c5760405162461bcd60e51b815260206004820152600c60248201526b139bdd081858d8d95c1d195960a21b60448201526064015b60405180910390fd5b336000908152606e602052604090205460ff1615156001146108ef5760405162461bcd60e51b815260206004820152600c60248201526b139bdd08185c1c1c9bdd995960a21b6044820152606401610893565b60006108fb82846118d5565b60655460405163079cc67960e41b8152336004820152602481018390529192506001600160a01b0316906379cc679090604401600060405180830381600087803b15801561094857600080fd5b505af115801561095c573d6000803e3d6000fd5b505060865461096e9250905082612a48565b60868190556040517f93bb8edd35984706eee1b92541281f7f62d33c01c5b2ec0929a113603bd21d6690600090a26109b06001600160a01b0383163385612a54565b60408051848152602081018390526001600160a01b038416917fdf273cb619d95419a9cd0ec88123a0538c85064229baa6363788f743fff90deb91015b60405180910390a2505050565b60778181548110610a0a57600080fd5b6000918252602090912001546001600160a01b0316905081565b6001600160a01b03821660009081526071602052604090205460ff1615610a9857336000908152607b602052604090205460ff16610a935760405162461bcd60e51b815260206004820152600c60248201526b139bdd08185c1c1c9bdd995960a21b6044820152606401610893565b610ae6565b3360009081526078602052604090205460ff16610ae65760405162461bcd60e51b815260206004820152600c60248201526b139bdd08185c1c1c9bdd995960a21b6044820152606401610893565b6000610af283836118d5565b9050610afc610bd5565b811115610b4b5760405162461bcd60e51b815260206004820152601560248201527f496e73756666696369656e7420726573657276657300000000000000000000006044820152606401610893565b608654610b589082612a48565b60868190556040517f93bb8edd35984706eee1b92541281f7f62d33c01c5b2ec0929a113603bd21d6690600090a2610b9a6001600160a01b0384163384612a54565b826001600160a01b03167f2bb2640731848fe9820ba48dbc978c1fc9bbd5f11b948bfab05b7dee3378fd80836040516109ed91815260200190565b6000610c75610c6c608754606560009054906101000a90046001600160a01b03166001600160a01b03166318160ddd6040518163ffffffff1660e01b815260040160206040518083038186803b158015610c2e57600080fd5b505afa158015610c42573d6000803e3d6000fd5b505050506040513d601f19601f82011682018060405250810190610c6691906131a9565b90612a48565b60865490612a48565b905090565b336000908152607e602052604090205460ff16610cc85760405162461bcd60e51b815260206004820152600c60248201526b139bdd08185c1c1c9bdd995960a21b6044820152606401610893565b6001600160a01b03811660009081526068602052604090205460ff16610d1f5760405162461bcd60e51b815260206004820152600c60248201526b139bdd081858d8d95c1d195960a21b6044820152606401610893565b6000610d2b82846118d5565b6084546040516370a0823160e01b81523360048201529192506000916001600160a01b03909116906370a082319060240160206040518083038186803b158015610d7457600080fd5b505afa158015610d88573d6000803e3d6000fd5b505050506040513d601f19601f82011682018060405250810190610dac91906131a9565b3360009081526080602052604081205491925090610dcb908390612a48565b905080831115610e1d5760405162461bcd60e51b815260206004820152601260248201527f457863656564732064656274206c696d697400000000000000000000000000006044820152606401610893565b33600090815260806020526040902054610e379084612ae9565b33600090815260806020526040902055608754610e549084612ae9565b608755608654610e649084612a48565b60868190556040517f93bb8edd35984706eee1b92541281f7f62d33c01c5b2ec0929a113603bd21d6690600090a260405163a9059cbb60e01b8152336004820152602481018690526001600160a01b0385169063a9059cbb90604401602060405180830381600087803b158015610eda57600080fd5b505af1158015610eee573d6000803e3d6000fd5b505050506040513d601f19601f82011682018060405250810190610f1291906130fd565b5060408051868152602081018590526001600160a01b0386169133917f7e1a939bed137a819b5d2979822c67f877689f7a863d5e4cb57cdca97b2977d6910160405180910390a35050505050565b600054610100900460ff1615808015610f805750600054600160ff909116105b80610fa15750610f8f30612af5565b158015610fa1575060005460ff166001145b6110135760405162461bcd60e51b815260206004820152602e60248201527f496e697469616c697a61626c653a20636f6e747261637420697320616c72656160448201527f647920696e697469616c697a65640000000000000000000000000000000000006064820152608401610893565b6000805460ff191660011790558015611036576000805461ff0019166101001790555b61103e612b08565b60885460ff16156110915760405162461bcd60e51b815260206004820152601160248201527f6461746120616c726561647920696e69740000000000000000000000000000006044820152606401610893565b6001600160a01b0384166110a457600080fd5b606580546001600160a01b038087166001600160a01b0319928316179092559084166000818152606860205260408120805460ff19908116600190811790925560678054808401825593527f9787eeb91fe3101235e4a76063c7023ecb40f923f97916639c598592fa30d6ae90920180549094169092179092556066849055608880549092161790558015611173576000805461ff0019169055604051600181527f7f26b83ff96e1f2b6a682f133852f6798a09c465da95921460cefb38474024989060200160405180910390a15b50505050565b611181612b7b565b6000805b60675481101561128f5761127b611274606783815481106111b657634e487b7160e01b600052603260045260246000fd5b600091825260209091200154606780546001600160a01b0390921691859081106111f057634e487b7160e01b600052603260045260246000fd5b6000918252602090912001546040516370a0823160e01b81523060048201526001600160a01b03909116906370a082319060240160206040518083038186803b15801561123c57600080fd5b505afa158015611250573d6000803e3d6000fd5b505050506040513d601f19601f8201168201806040525081019061070e91906131a9565b8390612ae9565b91508061128781613428565b915050611185565b5060005b607054811015611312576112fe611274607083815481106112c457634e487b7160e01b600052603260045260246000fd5b600091825260209091200154607080546001600160a01b0390921691859081106111f057634e487b7160e01b600052603260045260246000fd5b91508061130a81613428565b915050611293565b50608681905560405181907f93bb8edd35984706eee1b92541281f7f62d33c01c5b2ec0929a113603bd21d6690600090a260405181907fec691f09f6924b27932253f85caf99bacc30360cc0e50a1cc4d2acc24601446690600090a250565b606d8181548110610a0a57600080fd5b336000908152607e602052604090205460ff166113cf5760405162461bcd60e51b815260206004820152600c60248201526b139bdd08185c1c1c9bdd995960a21b6044820152606401610893565b60655460405163079cc67960e41b8152336004820152602481018390526001600160a01b03909116906379cc679090604401600060405180830381600087803b15801561141b57600080fd5b505af115801561142f573d6000803e3d6000fd5b50503360009081526080602052604090205461144e9250905082612a48565b3360009081526080602052604090205560875461146b9082612a48565b60875560655460408051838152602081018490526001600160a01b039092169133917fc6d98eecfc9c78ab62c89a82950079b54874749f1f6f24090f7acc758bc2f309910160405180910390a350565b3360009081526082602052604090205460ff166115095760405162461bcd60e51b815260206004820152600c60248201526b139bdd08185c1c1c9bdd995960a21b6044820152606401610893565b611511610bd5565b8111156115605760405162461bcd60e51b815260206004820152601560248201527f496e73756666696369656e7420726573657276657300000000000000000000006044820152606401610893565b6065546040516340c10f1960e01b81526001600160a01b03848116600483015260248201849052909116906340c10f1990604401600060405180830381600087803b1580156115ae57600080fd5b505af11580156115c2573d6000803e3d6000fd5b50506040518381526001600160a01b03851692503391507ffa8ccab40e7da8146c2304cd0950334fd30a6ba093abe86261aa13911fed849c9060200160405180910390a35050565b606a8181548110610a0a57600080fd5b607a8181548110610a0a57600080fd5b611632612b7b565b61163c6000612bd5565b565b607d8181548110610a0a57600080fd5b60738181548110610a0a57600080fd5b60818181548110610a0a57600080fd5b6001600160a01b03821660009081526068602052604090205460ff16806116ad57506001600160a01b03821660009081526071602052604090205460ff165b6116e85760405162461bcd60e51b815260206004820152600c60248201526b139bdd081858d8d95c1d195960a21b6044820152606401610893565b6116fd6001600160a01b038316333086612c27565b6001600160a01b03821660009081526068602052604090205460ff161561177157336000908152606b602052604090205460ff1661176c5760405162461bcd60e51b815260206004820152600c60248201526b139bdd08185c1c1c9bdd995960a21b6044820152606401610893565b6117bf565b3360009081526074602052604090205460ff166117bf5760405162461bcd60e51b815260206004820152600c60248201526b139bdd08185c1c1c9bdd995960a21b6044820152606401610893565b60006117cb83856118d5565b905060006117d98284612a48565b6065546040516340c10f1960e01b8152336004820152602481018390529192506001600160a01b0316906340c10f1990604401600060405180830381600087803b15801561182657600080fd5b505af115801561183a573d6000803e3d6000fd5b505060865461184c9250905083612ae9565b60868190556040517f93bb8edd35984706eee1b92541281f7f62d33c01c5b2ec0929a113603bd21d6690600090a260408051868152602081018490526001600160a01b038616917f90890809c654f11d6e72a28fa60149770a0d11ec6c92319d6ceb2bb0a4ea1a15910160405180910390a25050505050565b60678181548110610a0a57600080fd5b6001600160a01b03821660009081526068602052604081205460ff1615611a2b57611a24836001600160a01b031663313ce5676040518163ffffffff1660e01b815260040160206040518083038186803b15801561193257600080fd5b505afa158015611946573d6000803e3d6000fd5b505050506040513d601f19601f8201168201806040525081019061196a9190613207565b61197590600a6132f5565b606554604080517f313ce5670000000000000000000000000000000000000000000000000000000081529051611a1e926001600160a01b03169163313ce567916004808301926020929190829003018186803b1580156119d457600080fd5b505afa1580156119e8573d6000803e3d6000fd5b505050506040513d601f19601f82011682018060405250810190611a0c9190613207565b611a1790600a6132f5565b8590612c78565b90612c84565b9050611afc565b6001600160a01b03831660009081526071602052604090205460ff1615611afc576001600160a01b03838116600081815260766020526040908190205490517f4249719f00000000000000000000000000000000000000000000000000000000815260048101929092526024820185905290911690634249719f9060440160206040518083038186803b158015611ac157600080fd5b505afa158015611ad5573d6000803e3d6000fd5b505050506040513d601f19601f82011682018060405250810190611af991906131a9565b90505b92915050565b336000908152607e602052604090205460ff16611b505760405162461bcd60e51b815260206004820152600c60248201526b139bdd08185c1c1c9bdd995960a21b6044820152606401610893565b6001600160a01b03811660009081526068602052604090205460ff16611ba75760405162461bcd60e51b815260206004820152600c60248201526b139bdd081858d8d95c1d195960a21b6044820152606401610893565b611bbc6001600160a01b038216333085612c27565b6000611bc882846118d5565b33600090815260806020526040902054909150611be59082612a48565b33600090815260806020526040902055608754611c029082612a48565b608755608654611c129082612ae9565b60868190556040517f93bb8edd35984706eee1b92541281f7f62d33c01c5b2ec0929a113603bd21d6690600090a260408051848152602081018390526001600160a01b0384169133917fc6d98eecfc9c78ab62c89a82950079b54874749f1f6f24090f7acc758bc2f309910160405180910390a3505050565b6000611c95612b7b565b6001600160a01b038216611ca857600080fd5b6000836009811115611cca57634e487b7160e01b600052602160045260246000fd5b1415611cfc57606654611cde904390612ae9565b6001600160a01b0383166000908152606c6020526040902055611ff1565b6001836009811115611d1e57634e487b7160e01b600052602160045260246000fd5b1415611d5057606654611d32904390612ae9565b6001600160a01b0383166000908152606f6020526040902055611ff1565b6002836009811115611d7257634e487b7160e01b600052602160045260246000fd5b1415611da457606654611d86904390612ae9565b6001600160a01b038316600090815260696020526040902055611ff1565b6003836009811115611dc657634e487b7160e01b600052602160045260246000fd5b1415611e0357606654611de590611dde906002612c78565b4390612ae9565b6001600160a01b038316600090815260796020526040902055611ff1565b6004836009811115611e2557634e487b7160e01b600052602160045260246000fd5b1415611e5757606654611e39904390612ae9565b6001600160a01b038316600090815260756020526040902055611ff1565b6005836009811115611e7957634e487b7160e01b600052602160045260246000fd5b1415611eab57606654611e8d904390612ae9565b6001600160a01b038316600090815260726020526040902055611ff1565b6006836009811115611ecd57634e487b7160e01b600052602160045260246000fd5b1415611f0357606654611ee590611dde906002612c78565b6001600160a01b0383166000908152607c6020526040902055611ff1565b6007836009811115611f2557634e487b7160e01b600052602160045260246000fd5b1415611f5757606654611f39904390612ae9565b6001600160a01b0383166000908152607f6020526040902055611ff1565b6008836009811115611f7957634e487b7160e01b600052602160045260246000fd5b1415611fab57606654611f8d904390612ae9565b6001600160a01b038316600090815260836020526040902055611ff1565b6009836009811115611fcd57634e487b7160e01b600052602160045260246000fd5b1415611fe957606654611fe1904390612ae9565b608555611ff1565b506000611afc565b82600981111561201157634e487b7160e01b600052602160045260246000fd5b6040516001600160a01b03841681527f0e4f2c4b5bc209d509bc3d49348c787fefadc66a79351b470599ac0f5be52eaf9060200160405180910390a250600192915050565b61205e612b7b565b6001600160a01b0381166120da5760405162461bcd60e51b815260206004820152602660248201527f4f776e61626c653a206e6577206f776e657220697320746865207a65726f206160448201527f64647265737300000000000000000000000000000000000000000000000000006064820152608401610893565b6120e381612bd5565b50565b60006120f0612b7b565b6001600160a01b03831661210357600080fd5b60008085600981111561212657634e487b7160e01b600052602160045260246000fd5b14156121e257612139606c606b86612c90565b156121b2576001600160a01b0384166000908152606c6020526040812055612162606a85612d8f565b6121b257606a80546001810182556000919091527f116fea137db6e131133e7f2bab296045d8f41cc5607279db17b218cab0929a510180546001600160a01b0319166001600160a01b0386161790555b506001600160a01b0383166000908152606b60205260409020805460ff81161560ff1990911681179091556129c8565b600185600981111561220457634e487b7160e01b600052602160045260246000fd5b14156122c057612217606f606e86612c90565b15612290576001600160a01b0384166000908152606f6020526040812055612240606d85612d8f565b61229057606d80546001810182556000919091527f5006b838207c6a9ae9b84d68f467dd4bb5c305fbfb6b04eab8faaabeec1e18d80180546001600160a01b0319166001600160a01b0386161790555b506001600160a01b0383166000908152606e60205260409020805460ff81161560ff1990911681179091556129c8565b60028560098111156122e257634e487b7160e01b600052602160045260246000fd5b141561239e576122f56069606886612c90565b1561236e576001600160a01b03841660009081526069602052604081205561231e606785612d8f565b61236e57606780546001810182556000919091527f9787eeb91fe3101235e4a76063c7023ecb40f923f97916639c598592fa30d6ae0180546001600160a01b0319166001600160a01b0386161790555b506001600160a01b0383166000908152606860205260409020805460ff81161560ff1990911681179091556129c8565b60038560098111156123c057634e487b7160e01b600052602160045260246000fd5b14156124b9576123d36079607886612c90565b1561248957607780546001810182557f7901cb5addcae2d210a531c604a76a660d77039093bac314de0816a16392aff10180546001600160a01b0319166001600160a01b0387169081179091556000908152607960205260408120556124399085612d8f565b61248957607780546001810182556000919091527f7901cb5addcae2d210a531c604a76a660d77039093bac314de0816a16392aff10180546001600160a01b0319166001600160a01b0386161790555b506001600160a01b0383166000908152607860205260409020805460ff81161560ff1990911681179091556129c8565b60048560098111156124db57634e487b7160e01b600052602160045260246000fd5b14156125d4576124ee6075607486612c90565b156125a457607380546001810182557ff79bde9ddd17963ebce6f7d021d60de7c2bd0db944d23c900c0c0e775f5300520180546001600160a01b0319166001600160a01b0387169081179091556000908152607560205260408120556125549085612d8f565b6125a457607380546001810182556000919091527ff79bde9ddd17963ebce6f7d021d60de7c2bd0db944d23c900c0c0e775f5300520180546001600160a01b0319166001600160a01b0386161790555b506001600160a01b0383166000908152607460205260409020805460ff81161560ff1990911681179091556129c8565b60058560098111156125f657634e487b7160e01b600052602160045260246000fd5b14156126d4576126096072607186612c90565b15612682576001600160a01b038416600090815260726020526040812055612632607085612d8f565b61268257607080546001810182556000919091527f8f6b23ffa15f0465e3176e15ca644cf24f86dc1312fe715484e3c4aead5eb78b0180546001600160a01b0319166001600160a01b0386161790555b506001600160a01b038381166000908152607160209081526040808320805460ff81161560ff199091168117909155607690925290912080546001600160a01b031916928516929092179091556129c8565b60068560098111156126f657634e487b7160e01b600052602160045260246000fd5b14156127b257612709607c607b86612c90565b15612782576001600160a01b0384166000908152607c6020526040812055612732607a85612d8f565b61278257607a80546001810182556000919091527ff0440771a29e57e18c66727944770b82cc77924aef333c927ce6bdd2cdb3ae030180546001600160a01b0319166001600160a01b0386161790555b506001600160a01b0383166000908152607b60205260409020805460ff81161560ff1990911681179091556129c8565b60078560098111156127d457634e487b7160e01b600052602160045260246000fd5b1415612890576127e7607f607e86612c90565b15612860576001600160a01b0384166000908152607f6020526040812055612810607d85612d8f565b61286057607d80546001810182556000919091527fa913c8ac5320dae1c4a00ff23343947ed0fdf88d251e9bd2a5519d3d6162d2220180546001600160a01b0319166001600160a01b0386161790555b506001600160a01b0383166000908152607e60205260409020805460ff81161560ff1990911681179091556129c8565b60088560098111156128b257634e487b7160e01b600052602160045260246000fd5b141561296e576128c56083608286612c90565b1561293e576001600160a01b0384166000908152608360205260408120556128ee608185612d8f565b61293e57608180546001810182556000919091527f76fce494794d92ac286b20d6126fc49ecb9cca2fa94b5c726f6ec1109b8914140180546001600160a01b0319166001600160a01b0386161790555b506001600160a01b0383166000908152608260205260409020805460ff81161560ff1990911681179091556129c8565b600985600981111561299057634e487b7160e01b600052602160045260246000fd5b14156129be57506000608555608480546001600160a01b0319166001600160a01b03851617905560016129c8565b6000915050612a31565b8460098111156129e857634e487b7160e01b600052602160045260246000fd5b604080516001600160a01b038716815283151560208201527f0dcacb7e392f3d6a216ed2660e3dcfd40b7793d33591db2ba185a6b8e44fc477910160405180910390a260019150505b9392505050565b60708181548110610a0a57600080fd5b6000611af982846133e5565b6040516001600160a01b038316602482015260448101829052612ae490849063a9059cbb60e01b906064015b60408051601f198184030181529190526020810180517bffffffffffffffffffffffffffffffffffffffffffffffffffffffff167fffffffff0000000000000000000000000000000000000000000000000000000090931692909217909152612dfd565b505050565b6000611af98284613277565b6001600160a01b0381163b15155b919050565b600054610100900460ff16612b735760405162461bcd60e51b815260206004820152602b60248201527f496e697469616c697a61626c653a20636f6e7472616374206973206e6f74206960448201526a6e697469616c697a696e6760a81b6064820152608401610893565b61163c612ee2565b6033546001600160a01b0316331461163c5760405162461bcd60e51b815260206004820181905260248201527f4f776e61626c653a2063616c6c6572206973206e6f7420746865206f776e65726044820152606401610893565b603380546001600160a01b038381166001600160a01b0319831681179093556040519116919082907f8be0079c531659141344cd1fd0a4f28419497f9722a3daafe3b4186f6b6457e090600090a35050565b6040516001600160a01b03808516602483015283166044820152606481018290526111739085907f23b872dd0000000000000000000000000000000000000000000000000000000090608401612a80565b6000611af982846133c6565b6000611af9828461328f565b6001600160a01b03811660009081526020839052604081205460ff16612d85576001600160a01b038216600090815260208590526040902054612d155760405162461bcd60e51b815260206004820152600a60248201527f4d757374207175657565000000000000000000000000000000000000000000006044820152606401610893565b6001600160a01b038216600090815260208590526040902054431015612d7d5760405162461bcd60e51b815260206004820152601160248201527f5175657565206e6f7420657870697265640000000000000000000000000000006044820152606401610893565b506001612a31565b5060009392505050565b6000805b8354811015612d8557826001600160a01b0316848281548110612dc657634e487b7160e01b600052603260045260246000fd5b6000918252602090912001546001600160a01b03161415612deb576001915050611afc565b80612df581613428565b915050612d93565b6000612e52826040518060400160405280602081526020017f5361666545524332303a206c6f772d6c6576656c2063616c6c206661696c6564815250856001600160a01b0316612f569092919063ffffffff16565b805190915015612ae45780806020019051810190612e7091906130fd565b612ae45760405162461bcd60e51b815260206004820152602a60248201527f5361666545524332303a204552433230206f7065726174696f6e20646964206e60448201527f6f742073756363656564000000000000000000000000000000000000000000006064820152608401610893565b600054610100900460ff16612f4d5760405162461bcd60e51b815260206004820152602b60248201527f496e697469616c697a61626c653a20636f6e7472616374206973206e6f74206960448201526a6e697469616c697a696e6760a81b6064820152608401610893565b61163c33612bd5565b6060612f658484600085612f6d565b949350505050565b6060843b612fbd5760405162461bcd60e51b815260206004820152601d60248201527f416464726573733a2063616c6c20746f206e6f6e2d636f6e74726163740000006044820152606401610893565b600080866001600160a01b03168587604051612fd99190613228565b60006040518083038185875af1925050503d8060008114613016576040519150601f19603f3d011682016040523d82523d6000602084013e61301b565b606091505b5091509150811561302f579150612f659050565b80511561303f5780518082602001fd5b8360405162461bcd60e51b81526004016108939190613244565b80356001600160a01b0381168114612b0357600080fd5b8035600a8110612b0357600080fd5b600060208284031215613090578081fd5b611af982613059565b6000806000606084860312156130ad578182fd5b6130b684613059565b92506130c460208501613059565b9150604084013590509250925092565b600080604083850312156130e6578182fd5b6130ef83613059565b946020939093013593505050565b60006020828403121561310e578081fd5b81518015158114612a31578182fd5b6000806040838503121561312f578182fd5b61313883613070565b915061314660208401613059565b90509250929050565b600080600060608486031215613163578283fd5b61316c84613070565b925061317a60208501613059565b915061318860408501613059565b90509250925092565b6000602082840312156131a2578081fd5b5035919050565b6000602082840312156131ba578081fd5b5051919050565b600080604083850312156131d3578182fd5b8235915061314660208401613059565b6000806000606084860312156131f7578283fd5b833592506130c460208501613059565b600060208284031215613218578081fd5b815160ff81168114612a31578182fd5b6000825161323a8184602087016133fc565b9190910192915050565b60006020825282518060208401526132638160408501602087016133fc565b601f01601f19169190910160400192915050565b6000821982111561328a5761328a613443565b500190565b6000826132aa57634e487b7160e01b81526012600452602481fd5b500490565b80825b60018086116132c157506132ec565b8187048211156132d3576132d3613443565b808616156132e057918102915b9490941c9380026132b2565b94509492505050565b6000611af960001960ff85168460008261331157506001612a31565b8161331e57506000612a31565b8160018114613334576002811461333e5761336b565b6001915050612a31565b60ff84111561334f5761334f613443565b6001841b91508482111561336557613365613443565b50612a31565b5060208310610133831016604e8410600b841016171561339e575081810a8381111561339957613399613443565b612a31565b6133ab84848460016132af565b8086048211156133bd576133bd613443565b02949350505050565b60008160001904831182151516156133e0576133e0613443565b500290565b6000828210156133f7576133f7613443565b500390565b60005b838110156134175781810151838201526020016133ff565b838111156111735750506000910152565b600060001982141561343c5761343c613443565b5060010190565b634e487b7160e01b600052601160045260246000fdfea2646970667358221220d14845057473600cd95fcc276dd4db44af6199d32308c5ecbcb5189b4007725d64736f6c63430008020033",
  "linkReferences": {},
  "deployedLinkReferences": {}
}