{
  "_format": "hh-sol-artifact-1",
  "contractName": "Vault",
  "sourceName": "contracts/core/Vault.sol",
  "abi": [
    {
      "inputs": [],
      "stateMutability": "nonpayable",
      "type": "constructor"
    },
    {
      "anonymous": false,
      "inputs": [
        {
          "indexed": false,
          "internalType": "address",
          "name": "account",
          "type": "address"
        },
        {
          "indexed": false,
          "internalType": "address",
          "name": "token",
          "type": "address"
        },
        {
          "indexed": false,
          "internalType": "uint256",
          "name": "tokenAmount",
          "type": "uint256"
        },
        {
          "indexed": false,
          "internalType": "uint256",
          "name": "usdgAmount",
          "type": "uint256"
        },
        {
          "indexed": false,
          "internalType": "uint256",
          "name": "feeBasisPoints",
          "type": "uint256"
        }
      ],
      "name": "BuyUSDG",
      "type": "event"
    },
    {
      "anonymous": false,
      "inputs": [
        {
          "indexed": false,
          "internalType": "bytes32",
          "name": "key",
          "type": "bytes32"
        },
        {
          "indexed": false,
          "internalType": "uint256",
          "name": "size",
          "type": "uint256"
        },
        {
          "indexed": false,
          "internalType": "uint256",
          "name": "collateral",
          "type": "uint256"
        },
        {
          "indexed": false,
          "internalType": "uint256",
          "name": "averagePrice",
          "type": "uint256"
        },
        {
          "indexed": false,
          "internalType": "uint256",
          "name": "entryFundingRate",
          "type": "uint256"
        },
        {
          "indexed": false,
          "internalType": "uint256",
          "name": "reserveAmount",
          "type": "uint256"
        },
        {
          "indexed": false,
          "internalType": "int256",
          "name": "realisedPnl",
          "type": "int256"
        }
      ],
      "name": "ClosePosition",
      "type": "event"
    },
    {
      "anonymous": false,
      "inputs": [
        {
          "indexed": false,
          "internalType": "address",
          "name": "token",
          "type": "address"
        },
        {
          "indexed": false,
          "internalType": "uint256",
          "name": "feeUsd",
          "type": "uint256"
        },
        {
          "indexed": false,
          "internalType": "uint256",
          "name": "feeTokens",
          "type": "uint256"
        }
      ],
      "name": "CollectMarginFees",
      "type": "event"
    },
    {
      "anonymous": false,
      "inputs": [
        {
          "indexed": false,
          "internalType": "address",
          "name": "token",
          "type": "address"
        },
        {
          "indexed": false,
          "internalType": "uint256",
          "name": "feeUsd",
          "type": "uint256"
        },
        {
          "indexed": false,
          "internalType": "uint256",
          "name": "feeTokens",
          "type": "uint256"
        }
      ],
      "name": "CollectSwapFees",
      "type": "event"
    },
    {
      "anonymous": false,
      "inputs": [
        {
          "indexed": false,
          "internalType": "address",
          "name": "token",
          "type": "address"
        },
        {
          "indexed": false,
          "internalType": "uint256",
          "name": "amount",
          "type": "uint256"
        }
      ],
      "name": "DecreaseGuaranteedUsd",
      "type": "event"
    },
    {
      "anonymous": false,
      "inputs": [
        {
          "indexed": false,
          "internalType": "address",
          "name": "token",
          "type": "address"
        },
        {
          "indexed": false,
          "internalType": "uint256",
          "name": "amount",
          "type": "uint256"
        }
      ],
      "name": "DecreasePoolAmount",
      "type": "event"
    },
    {
      "anonymous": false,
      "inputs": [
        {
          "indexed": false,
          "internalType": "bytes32",
          "name": "key",
          "type": "bytes32"
        },
        {
          "indexed": false,
          "internalType": "address",
          "name": "account",
          "type": "address"
        },
        {
          "indexed": false,
          "internalType": "address",
          "name": "collateralToken",
          "type": "address"
        },
        {
          "indexed": false,
          "internalType": "address",
          "name": "indexToken",
          "type": "address"
        },
        {
          "indexed": false,
          "internalType": "uint256",
          "name": "collateralDelta",
          "type": "uint256"
        },
        {
          "indexed": false,
          "internalType": "uint256",
          "name": "sizeDelta",
          "type": "uint256"
        },
        {
          "indexed": false,
          "internalType": "bool",
          "name": "isLong",
          "type": "bool"
        },
        {
          "indexed": false,
          "internalType": "uint256",
          "name": "price",
          "type": "uint256"
        },
        {
          "indexed": false,
          "internalType": "uint256",
          "name": "fee",
          "type": "uint256"
        }
      ],
      "name": "DecreasePosition",
      "type": "event"
    },
    {
      "anonymous": false,
      "inputs": [
        {
          "indexed": false,
          "internalType": "address",
          "name": "token",
          "type": "address"
        },
        {
          "indexed": false,
          "internalType": "uint256",
          "name": "amount",
          "type": "uint256"
        }
      ],
      "name": "DecreaseReservedAmount",
      "type": "event"
    },
    {
      "anonymous": false,
      "inputs": [
        {
          "indexed": false,
          "internalType": "address",
          "name": "token",
          "type": "address"
        },
        {
          "indexed": false,
          "internalType": "uint256",
          "name": "amount",
          "type": "uint256"
        }
      ],
      "name": "DecreaseUsdgAmount",
      "type": "event"
    },
    {
      "anonymous": false,
      "inputs": [
        {
          "indexed": false,
          "internalType": "address",
          "name": "token",
          "type": "address"
        },
        {
          "indexed": false,
          "internalType": "uint256",
          "name": "amount",
          "type": "uint256"
        }
      ],
      "name": "DirectPoolDeposit",
      "type": "event"
    },
    {
      "anonymous": false,
      "inputs": [
        {
          "indexed": false,
          "internalType": "address",
          "name": "token",
          "type": "address"
        },
        {
          "indexed": false,
          "internalType": "uint256",
          "name": "amount",
          "type": "uint256"
        }
      ],
      "name": "IncreaseGuaranteedUsd",
      "type": "event"
    },
    {
      "anonymous": false,
      "inputs": [
        {
          "indexed": false,
          "internalType": "address",
          "name": "token",
          "type": "address"
        },
        {
          "indexed": false,
          "internalType": "uint256",
          "name": "amount",
          "type": "uint256"
        }
      ],
      "name": "IncreasePoolAmount",
      "type": "event"
    },
    {
      "anonymous": false,
      "inputs": [
        {
          "indexed": false,
          "internalType": "bytes32",
          "name": "key",
          "type": "bytes32"
        },
        {
          "indexed": false,
          "internalType": "address",
          "name": "account",
          "type": "address"
        },
        {
          "indexed": false,
          "internalType": "address",
          "name": "collateralToken",
          "type": "address"
        },
        {
          "indexed": false,
          "internalType": "address",
          "name": "indexToken",
          "type": "address"
        },
        {
          "indexed": false,
          "internalType": "uint256",
          "name": "collateralDelta",
          "type": "uint256"
        },
        {
          "indexed": false,
          "internalType": "uint256",
          "name": "sizeDelta",
          "type": "uint256"
        },
        {
          "indexed": false,
          "internalType": "bool",
          "name": "isLong",
          "type": "bool"
        },
        {
          "indexed": false,
          "internalType": "uint256",
          "name": "price",
          "type": "uint256"
        },
        {
          "indexed": false,
          "internalType": "uint256",
          "name": "fee",
          "type": "uint256"
        }
      ],
      "name": "IncreasePosition",
      "type": "event"
    },
    {
      "anonymous": false,
      "inputs": [
        {
          "indexed": false,
          "internalType": "address",
          "name": "token",
          "type": "address"
        },
        {
          "indexed": false,
          "internalType": "uint256",
          "name": "amount",
          "type": "uint256"
        }
      ],
      "name": "IncreaseReservedAmount",
      "type": "event"
    },
    {
      "anonymous": false,
      "inputs": [
        {
          "indexed": false,
          "internalType": "address",
          "name": "token",
          "type": "address"
        },
        {
          "indexed": false,
          "internalType": "uint256",
          "name": "amount",
          "type": "uint256"
        }
      ],
      "name": "IncreaseUsdgAmount",
      "type": "event"
    },
    {
      "anonymous": false,
      "inputs": [
        {
          "indexed": false,
          "internalType": "bytes32",
          "name": "key",
          "type": "bytes32"
        },
        {
          "indexed": false,
          "internalType": "address",
          "name": "account",
          "type": "address"
        },
        {
          "indexed": false,
          "internalType": "address",
          "name": "collateralToken",
          "type": "address"
        },
        {
          "indexed": false,
          "internalType": "address",
          "name": "indexToken",
          "type": "address"
        },
        {
          "indexed": false,
          "internalType": "bool",
          "name": "isLong",
          "type": "bool"
        },
        {
          "indexed": false,
          "internalType": "uint256",
          "name": "size",
          "type": "uint256"
        },
        {
          "indexed": false,
          "internalType": "uint256",
          "name": "collateral",
          "type": "uint256"
        },
        {
          "indexed": false,
          "internalType": "uint256",
          "name": "reserveAmount",
          "type": "uint256"
        },
        {
          "indexed": false,
          "internalType": "int256",
          "name": "realisedPnl",
          "type": "int256"
        },
        {
          "indexed": false,
          "internalType": "uint256",
          "name": "markPrice",
          "type": "uint256"
        }
      ],
      "name": "LiquidatePosition",
      "type": "event"
    },
    {
      "anonymous": false,
      "inputs": [
        {
          "indexed": false,
          "internalType": "address",
          "name": "account",
          "type": "address"
        },
        {
          "indexed": false,
          "internalType": "address",
          "name": "token",
          "type": "address"
        },
        {
          "indexed": false,
          "internalType": "uint256",
          "name": "usdgAmount",
          "type": "uint256"
        },
        {
          "indexed": false,
          "internalType": "uint256",
          "name": "tokenAmount",
          "type": "uint256"
        },
        {
          "indexed": false,
          "internalType": "uint256",
          "name": "feeBasisPoints",
          "type": "uint256"
        }
      ],
      "name": "SellUSDG",
      "type": "event"
    },
    {
      "anonymous": false,
      "inputs": [
        {
          "indexed": false,
          "internalType": "address",
          "name": "account",
          "type": "address"
        },
        {
          "indexed": false,
          "internalType": "address",
          "name": "tokenIn",
          "type": "address"
        },
        {
          "indexed": false,
          "internalType": "address",
          "name": "tokenOut",
          "type": "address"
        },
        {
          "indexed": false,
          "internalType": "uint256",
          "name": "amountIn",
          "type": "uint256"
        },
        {
          "indexed": false,
          "internalType": "uint256",
          "name": "amountOut",
          "type": "uint256"
        },
        {
          "indexed": false,
          "internalType": "uint256",
          "name": "amountOutAfterFees",
          "type": "uint256"
        },
        {
          "indexed": false,
          "internalType": "uint256",
          "name": "feeBasisPoints",
          "type": "uint256"
        }
      ],
      "name": "Swap",
      "type": "event"
    },
    {
      "anonymous": false,
      "inputs": [
        {
          "indexed": false,
          "internalType": "address",
          "name": "token",
          "type": "address"
        },
        {
          "indexed": false,
          "internalType": "uint256",
          "name": "fundingRate",
          "type": "uint256"
        }
      ],
      "name": "UpdateFundingRate",
      "type": "event"
    },
    {
      "anonymous": false,
      "inputs": [
        {
          "indexed": false,
          "internalType": "bytes32",
          "name": "key",
          "type": "bytes32"
        },
        {
          "indexed": false,
          "internalType": "bool",
          "name": "hasProfit",
          "type": "bool"
        },
        {
          "indexed": false,
          "internalType": "uint256",
          "name": "delta",
          "type": "uint256"
        }
      ],
      "name": "UpdatePnl",
      "type": "event"
    },
    {
      "anonymous": false,
      "inputs": [
        {
          "indexed": false,
          "internalType": "bytes32",
          "name": "key",
          "type": "bytes32"
        },
        {
          "indexed": false,
          "internalType": "uint256",
          "name": "size",
          "type": "uint256"
        },
        {
          "indexed": false,
          "internalType": "uint256",
          "name": "collateral",
          "type": "uint256"
        },
        {
          "indexed": false,
          "internalType": "uint256",
          "name": "averagePrice",
          "type": "uint256"
        },
        {
          "indexed": false,
          "internalType": "uint256",
          "name": "entryFundingRate",
          "type": "uint256"
        },
        {
          "indexed": false,
          "internalType": "uint256",
          "name": "reserveAmount",
          "type": "uint256"
        },
        {
          "indexed": false,
          "internalType": "int256",
          "name": "realisedPnl",
          "type": "int256"
        },
        {
          "indexed": false,
          "internalType": "uint256",
          "name": "markPrice",
          "type": "uint256"
        }
      ],
      "name": "UpdatePosition",
      "type": "event"
    },
    {
      "inputs": [],
      "name": "BASIS_POINTS_DIVISOR",
      "outputs": [
        {
          "internalType": "uint256",
          "name": "",
          "type": "uint256"
        }
      ],
      "stateMutability": "view",
      "type": "function"
    },
    {
      "inputs": [],
      "name": "FUNDING_RATE_PRECISION",
      "outputs": [
        {
          "internalType": "uint256",
          "name": "",
          "type": "uint256"
        }
      ],
      "stateMutability": "view",
      "type": "function"
    },
    {
      "inputs": [],
      "name": "MAX_FEE_BASIS_POINTS",
      "outputs": [
        {
          "internalType": "uint256",
          "name": "",
          "type": "uint256"
        }
      ],
      "stateMutability": "view",
      "type": "function"
    },
    {
      "inputs": [],
      "name": "MAX_FUNDING_RATE_FACTOR",
      "outputs": [
        {
          "internalType": "uint256",
          "name": "",
          "type": "uint256"
        }
      ],
      "stateMutability": "view",
      "type": "function"
    },
    {
      "inputs": [],
      "name": "MAX_LIQUIDATION_FEE_USD",
      "outputs": [
        {
          "internalType": "uint256",
          "name": "",
          "type": "uint256"
        }
      ],
      "stateMutability": "view",
      "type": "function"
    },
    {
      "inputs": [],
      "name": "MIN_FUNDING_RATE_INTERVAL",
      "outputs": [
        {
          "internalType": "uint256",
          "name": "",
          "type": "uint256"
        }
      ],
      "stateMutability": "view",
      "type": "function"
    },
    {
      "inputs": [],
      "name": "MIN_LEVERAGE",
      "outputs": [
        {
          "internalType": "uint256",
          "name": "",
          "type": "uint256"
        }
      ],
      "stateMutability": "view",
      "type": "function"
    },
    {
      "inputs": [],
      "name": "PRICE_PRECISION",
      "outputs": [
        {
          "internalType": "uint256",
          "name": "",
          "type": "uint256"
        }
      ],
      "stateMutability": "view",
      "type": "function"
    },
    {
      "inputs": [],
      "name": "USDG_DECIMALS",
      "outputs": [
        {
          "internalType": "uint256",
          "name": "",
          "type": "uint256"
        }
      ],
      "stateMutability": "view",
      "type": "function"
    },
    {
      "inputs": [
        {
          "internalType": "address",
          "name": "_router",
          "type": "address"
        }
      ],
      "name": "addRouter",
      "outputs": [],
      "stateMutability": "nonpayable",
      "type": "function"
    },
    {
      "inputs": [
        {
          "internalType": "uint256",
          "name": "_amount",
          "type": "uint256"
        },
        {
          "internalType": "address",
          "name": "_tokenDiv",
          "type": "address"
        },
        {
          "internalType": "address",
          "name": "_tokenMul",
          "type": "address"
        }
      ],
      "name": "adjustForDecimals",
      "outputs": [
        {
          "internalType": "uint256",
          "name": "",
          "type": "uint256"
        }
      ],
      "stateMutability": "view",
      "type": "function"
    },
    {
      "inputs": [
        {
          "internalType": "uint256",
          "name": "",
          "type": "uint256"
        }
      ],
      "name": "allWhitelistedTokens",
      "outputs": [
        {
          "internalType": "address",
          "name": "",
          "type": "address"
        }
      ],
      "stateMutability": "view",
      "type": "function"
    },
    {
      "inputs": [],
      "name": "allWhitelistedTokensLength",
      "outputs": [
        {
          "internalType": "uint256",
          "name": "",
          "type": "uint256"
        }
      ],
      "stateMutability": "view",
      "type": "function"
    },
    {
      "inputs": [
        {
          "internalType": "address",
          "name": "",
          "type": "address"
        },
        {
          "internalType": "address",
          "name": "",
          "type": "address"
        }
      ],
      "name": "approvedRouters",
      "outputs": [
        {
          "internalType": "bool",
          "name": "",
          "type": "bool"
        }
      ],
      "stateMutability": "view",
      "type": "function"
    },
    {
      "inputs": [
        {
          "internalType": "address",
          "name": "",
          "type": "address"
        }
      ],
      "name": "bufferAmounts",
      "outputs": [
        {
          "internalType": "uint256",
          "name": "",
          "type": "uint256"
        }
      ],
      "stateMutability": "view",
      "type": "function"
    },
    {
      "inputs": [
        {
          "internalType": "address",
          "name": "_token",
          "type": "address"
        },
        {
          "internalType": "address",
          "name": "_receiver",
          "type": "address"
        }
      ],
      "name": "buyUSDG",
      "outputs": [
        {
          "internalType": "uint256",
          "name": "",
          "type": "uint256"
        }
      ],
      "stateMutability": "nonpayable",
      "type": "function"
    },
    {
      "inputs": [
        {
          "internalType": "address",
          "name": "_token",
          "type": "address"
        }
      ],
      "name": "clearTokenConfig",
      "outputs": [],
      "stateMutability": "nonpayable",
      "type": "function"
    },
    {
      "inputs": [
        {
          "internalType": "address",
          "name": "",
          "type": "address"
        }
      ],
      "name": "cumulativeFundingRates",
      "outputs": [
        {
          "internalType": "uint256",
          "name": "",
          "type": "uint256"
        }
      ],
      "stateMutability": "view",
      "type": "function"
    },
    {
      "inputs": [
        {
          "internalType": "address",
          "name": "_account",
          "type": "address"
        },
        {
          "internalType": "address",
          "name": "_collateralToken",
          "type": "address"
        },
        {
          "internalType": "address",
          "name": "_indexToken",
          "type": "address"
        },
        {
          "internalType": "uint256",
          "name": "_collateralDelta",
          "type": "uint256"
        },
        {
          "internalType": "uint256",
          "name": "_sizeDelta",
          "type": "uint256"
        },
        {
          "internalType": "bool",
          "name": "_isLong",
          "type": "bool"
        },
        {
          "internalType": "address",
          "name": "_receiver",
          "type": "address"
        }
      ],
      "name": "decreasePosition",
      "outputs": [
        {
          "internalType": "uint256",
          "name": "",
          "type": "uint256"
        }
      ],
      "stateMutability": "nonpayable",
      "type": "function"
    },
    {
      "inputs": [
        {
          "internalType": "address",
          "name": "_token",
          "type": "address"
        }
      ],
      "name": "directPoolDeposit",
      "outputs": [],
      "stateMutability": "nonpayable",
      "type": "function"
    },
    {
      "inputs": [],
      "name": "errorController",
      "outputs": [
        {
          "internalType": "address",
          "name": "",
          "type": "address"
        }
      ],
      "stateMutability": "view",
      "type": "function"
    },
    {
      "inputs": [
        {
          "internalType": "uint256",
          "name": "",
          "type": "uint256"
        }
      ],
      "name": "errors",
      "outputs": [
        {
          "internalType": "string",
          "name": "",
          "type": "string"
        }
      ],
      "stateMutability": "view",
      "type": "function"
    },
    {
      "inputs": [
        {
          "internalType": "address",
          "name": "",
          "type": "address"
        }
      ],
      "name": "feeReserves",
      "outputs": [
        {
          "internalType": "uint256",
          "name": "",
          "type": "uint256"
        }
      ],
      "stateMutability": "view",
      "type": "function"
    },
    {
      "inputs": [],
      "name": "fundingInterval",
      "outputs": [
        {
          "internalType": "uint256",
          "name": "",
          "type": "uint256"
        }
      ],
      "stateMutability": "view",
      "type": "function"
    },
    {
      "inputs": [],
      "name": "fundingRateFactor",
      "outputs": [
        {
          "internalType": "uint256",
          "name": "",
          "type": "uint256"
        }
      ],
      "stateMutability": "view",
      "type": "function"
    },
    {
      "inputs": [
        {
          "internalType": "address",
          "name": "_indexToken",
          "type": "address"
        },
        {
          "internalType": "uint256",
          "name": "_size",
          "type": "uint256"
        },
        {
          "internalType": "uint256",
          "name": "_averagePrice",
          "type": "uint256"
        },
        {
          "internalType": "bool",
          "name": "_isLong",
          "type": "bool"
        },
        {
          "internalType": "uint256",
          "name": "_lastIncreasedTime",
          "type": "uint256"
        }
      ],
      "name": "getDelta",
      "outputs": [
        {
          "internalType": "bool",
          "name": "",
          "type": "bool"
        },
        {
          "internalType": "uint256",
          "name": "",
          "type": "uint256"
        }
      ],
      "stateMutability": "view",
      "type": "function"
    },
    {
      "inputs": [
        {
          "internalType": "address",
          "name": "_collateralToken",
          "type": "address"
        },
        {
          "internalType": "address",
          "name": "_indexToken",
          "type": "address"
        },
        {
          "internalType": "bool",
          "name": "_isLong",
          "type": "bool"
        }
      ],
      "name": "getEntryFundingRate",
      "outputs": [
        {
          "internalType": "uint256",
          "name": "",
          "type": "uint256"
        }
      ],
      "stateMutability": "view",
      "type": "function"
    },
    {
      "inputs": [
        {
          "internalType": "address",
          "name": "_token",
          "type": "address"
        },
        {
          "internalType": "uint256",
          "name": "_usdgDelta",
          "type": "uint256"
        },
        {
          "internalType": "uint256",
          "name": "_feeBasisPoints",
          "type": "uint256"
        },
        {
          "internalType": "uint256",
          "name": "_taxBasisPoints",
          "type": "uint256"
        },
        {
          "internalType": "bool",
          "name": "_increment",
          "type": "bool"
        }
      ],
      "name": "getFeeBasisPoints",
      "outputs": [
        {
          "internalType": "uint256",
          "name": "",
          "type": "uint256"
        }
      ],
      "stateMutability": "view",
      "type": "function"
    },
    {
      "inputs": [
        {
          "internalType": "address",
          "name": "_account",
          "type": "address"
        },
        {
          "internalType": "address",
          "name": "_collateralToken",
          "type": "address"
        },
        {
          "internalType": "address",
          "name": "_indexToken",
          "type": "address"
        },
        {
          "internalType": "bool",
          "name": "_isLong",
          "type": "bool"
        },
        {
          "internalType": "uint256",
          "name": "_size",
          "type": "uint256"
        },
        {
          "internalType": "uint256",
          "name": "_entryFundingRate",
          "type": "uint256"
        }
      ],
      "name": "getFundingFee",
      "outputs": [
        {
          "internalType": "uint256",
          "name": "",
          "type": "uint256"
        }
      ],
      "stateMutability": "view",
      "type": "function"
    },
    {
      "inputs": [
        {
          "internalType": "address",
          "name": "_token",
          "type": "address"
        }
      ],
      "name": "getGlobalShortDelta",
      "outputs": [
        {
          "internalType": "bool",
          "name": "",
          "type": "bool"
        },
        {
          "internalType": "uint256",
          "name": "",
          "type": "uint256"
        }
      ],
      "stateMutability": "view",
      "type": "function"
    },
    {
      "inputs": [
        {
          "internalType": "address",
          "name": "_token",
          "type": "address"
        }
      ],
      "name": "getMaxPrice",
      "outputs": [
        {
          "internalType": "uint256",
          "name": "",
          "type": "uint256"
        }
      ],
      "stateMutability": "view",
      "type": "function"
    },
    {
      "inputs": [
        {
          "internalType": "address",
          "name": "_token",
          "type": "address"
        }
      ],
      "name": "getMinPrice",
      "outputs": [
        {
          "internalType": "uint256",
          "name": "",
          "type": "uint256"
        }
      ],
      "stateMutability": "view",
      "type": "function"
    },
    {
      "inputs": [
        {
          "internalType": "address",
          "name": "_indexToken",
          "type": "address"
        },
        {
          "internalType": "uint256",
          "name": "_size",
          "type": "uint256"
        },
        {
          "internalType": "uint256",
          "name": "_averagePrice",
          "type": "uint256"
        },
        {
          "internalType": "bool",
          "name": "_isLong",
          "type": "bool"
        },
        {
          "internalType": "uint256",
          "name": "_nextPrice",
          "type": "uint256"
        },
        {
          "internalType": "uint256",
          "name": "_sizeDelta",
          "type": "uint256"
        },
        {
          "internalType": "uint256",
          "name": "_lastIncreasedTime",
          "type": "uint256"
        }
      ],
      "name": "getNextAveragePrice",
      "outputs": [
        {
          "internalType": "uint256",
          "name": "",
          "type": "uint256"
        }
      ],
      "stateMutability": "view",
      "type": "function"
    },
    {
      "inputs": [
        {
          "internalType": "address",
          "name": "_token",
          "type": "address"
        }
      ],
      "name": "getNextFundingRate",
      "outputs": [
        {
          "internalType": "uint256",
          "name": "",
          "type": "uint256"
        }
      ],
      "stateMutability": "view",
      "type": "function"
    },
    {
      "inputs": [
        {
          "internalType": "address",
          "name": "_indexToken",
          "type": "address"
        },
        {
          "internalType": "uint256",
          "name": "_nextPrice",
          "type": "uint256"
        },
        {
          "internalType": "uint256",
          "name": "_sizeDelta",
          "type": "uint256"
        }
      ],
      "name": "getNextGlobalShortAveragePrice",
      "outputs": [
        {
          "internalType": "uint256",
          "name": "",
          "type": "uint256"
        }
      ],
      "stateMutability": "view",
      "type": "function"
    },
    {
      "inputs": [
        {
          "internalType": "address",
          "name": "_account",
          "type": "address"
        },
        {
          "internalType": "address",
          "name": "_collateralToken",
          "type": "address"
        },
        {
          "internalType": "address",
          "name": "_indexToken",
          "type": "address"
        },
        {
          "internalType": "bool",
          "name": "_isLong",
          "type": "bool"
        }
      ],
      "name": "getPosition",
      "outputs": [
        {
          "internalType": "uint256",
          "name": "",
          "type": "uint256"
        },
        {
          "internalType": "uint256",
          "name": "",
          "type": "uint256"
        },
        {
          "internalType": "uint256",
          "name": "",
          "type": "uint256"
        },
        {
          "internalType": "uint256",
          "name": "",
          "type": "uint256"
        },
        {
          "internalType": "uint256",
          "name": "",
          "type": "uint256"
        },
        {
          "internalType": "uint256",
          "name": "",
          "type": "uint256"
        },
        {
          "internalType": "bool",
          "name": "",
          "type": "bool"
        },
        {
          "internalType": "uint256",
          "name": "",
          "type": "uint256"
        }
      ],
      "stateMutability": "view",
      "type": "function"
    },
    {
      "inputs": [
        {
          "internalType": "address",
          "name": "_account",
          "type": "address"
        },
        {
          "internalType": "address",
          "name": "_collateralToken",
          "type": "address"
        },
        {
          "internalType": "address",
          "name": "_indexToken",
          "type": "address"
        },
        {
          "internalType": "bool",
          "name": "_isLong",
          "type": "bool"
        }
      ],
      "name": "getPositionDelta",
      "outputs": [
        {
          "internalType": "bool",
          "name": "",
          "type": "bool"
        },
        {
          "internalType": "uint256",
          "name": "",
          "type": "uint256"
        }
      ],
      "stateMutability": "view",
      "type": "function"
    },
    {
      "inputs": [
        {
          "internalType": "address",
          "name": "_account",
          "type": "address"
        },
        {
          "internalType": "address",
          "name": "_collateralToken",
          "type": "address"
        },
        {
          "internalType": "address",
          "name": "_indexToken",
          "type": "address"
        },
        {
          "internalType": "bool",
          "name": "_isLong",
          "type": "bool"
        },
        {
          "internalType": "uint256",
          "name": "_sizeDelta",
          "type": "uint256"
        }
      ],
      "name": "getPositionFee",
      "outputs": [
        {
          "internalType": "uint256",
          "name": "",
          "type": "uint256"
        }
      ],
      "stateMutability": "view",
      "type": "function"
    },
    {
      "inputs": [
        {
          "internalType": "address",
          "name": "_account",
          "type": "address"
        },
        {
          "internalType": "address",
          "name": "_collateralToken",
          "type": "address"
        },
        {
          "internalType": "address",
          "name": "_indexToken",
          "type": "address"
        },
        {
          "internalType": "bool",
          "name": "_isLong",
          "type": "bool"
        }
      ],
      "name": "getPositionKey",
      "outputs": [
        {
          "internalType": "bytes32",
          "name": "",
          "type": "bytes32"
        }
      ],
      "stateMutability": "pure",
      "type": "function"
    },
    {
      "inputs": [
        {
          "internalType": "address",
          "name": "_account",
          "type": "address"
        },
        {
          "internalType": "address",
          "name": "_collateralToken",
          "type": "address"
        },
        {
          "internalType": "address",
          "name": "_indexToken",
          "type": "address"
        },
        {
          "internalType": "bool",
          "name": "_isLong",
          "type": "bool"
        }
      ],
      "name": "getPositionLeverage",
      "outputs": [
        {
          "internalType": "uint256",
          "name": "",
          "type": "uint256"
        }
      ],
      "stateMutability": "view",
      "type": "function"
    },
    {
      "inputs": [
        {
          "internalType": "address",
          "name": "_token",
          "type": "address"
        },
        {
          "internalType": "uint256",
          "name": "_usdgAmount",
          "type": "uint256"
        }
      ],
      "name": "getRedemptionAmount",
      "outputs": [
        {
          "internalType": "uint256",
          "name": "",
          "type": "uint256"
        }
      ],
      "stateMutability": "view",
      "type": "function"
    },
    {
      "inputs": [
        {
          "internalType": "address",
          "name": "_token",
          "type": "address"
        }
      ],
      "name": "getRedemptionCollateral",
      "outputs": [
        {
          "internalType": "uint256",
          "name": "",
          "type": "uint256"
        }
      ],
      "stateMutability": "view",
      "type": "function"
    },
    {
      "inputs": [
        {
          "internalType": "address",
          "name": "_token",
          "type": "address"
        }
      ],
      "name": "getRedemptionCollateralUsd",
      "outputs": [
        {
          "internalType": "uint256",
          "name": "",
          "type": "uint256"
        }
      ],
      "stateMutability": "view",
      "type": "function"
    },
    {
      "inputs": [
        {
          "internalType": "address",
          "name": "_token",
          "type": "address"
        }
      ],
      "name": "getTargetUsdgAmount",
      "outputs": [
        {
          "internalType": "uint256",
          "name": "",
          "type": "uint256"
        }
      ],
      "stateMutability": "view",
      "type": "function"
    },
    {
      "inputs": [
        {
          "internalType": "address",
          "name": "_token",
          "type": "address"
        }
      ],
      "name": "getUtilisation",
      "outputs": [
        {
          "internalType": "uint256",
          "name": "",
          "type": "uint256"
        }
      ],
      "stateMutability": "view",
      "type": "function"
    },
    {
      "inputs": [
        {
          "internalType": "address",
          "name": "",
          "type": "address"
        }
      ],
      "name": "globalShortAveragePrices",
      "outputs": [
        {
          "internalType": "uint256",
          "name": "",
          "type": "uint256"
        }
      ],
      "stateMutability": "view",
      "type": "function"
    },
    {
      "inputs": [
        {
          "internalType": "address",
          "name": "",
          "type": "address"
        }
      ],
      "name": "globalShortSizes",
      "outputs": [
        {
          "internalType": "uint256",
          "name": "",
          "type": "uint256"
        }
      ],
      "stateMutability": "view",
      "type": "function"
    },
    {
      "inputs": [],
      "name": "gov",
      "outputs": [
        {
          "internalType": "address",
          "name": "",
          "type": "address"
        }
      ],
      "stateMutability": "view",
      "type": "function"
    },
    {
      "inputs": [
        {
          "internalType": "address",
          "name": "",
          "type": "address"
        }
      ],
      "name": "guaranteedUsd",
      "outputs": [
        {
          "internalType": "uint256",
          "name": "",
          "type": "uint256"
        }
      ],
      "stateMutability": "view",
      "type": "function"
    },
    {
      "inputs": [],
      "name": "hasDynamicFees",
      "outputs": [
        {
          "internalType": "bool",
          "name": "",
          "type": "bool"
        }
      ],
      "stateMutability": "view",
      "type": "function"
    },
    {
      "inputs": [],
      "name": "inManagerMode",
      "outputs": [
        {
          "internalType": "bool",
          "name": "",
          "type": "bool"
        }
      ],
      "stateMutability": "view",
      "type": "function"
    },
    {
      "inputs": [],
      "name": "inPrivateLiquidationMode",
      "outputs": [
        {
          "internalType": "bool",
          "name": "",
          "type": "bool"
        }
      ],
      "stateMutability": "view",
      "type": "function"
    },
    {
      "inputs": [],
      "name": "includeAmmPrice",
      "outputs": [
        {
          "internalType": "bool",
          "name": "",
          "type": "bool"
        }
      ],
      "stateMutability": "view",
      "type": "function"
    },
    {
      "inputs": [
        {
          "internalType": "address",
          "name": "_account",
          "type": "address"
        },
        {
          "internalType": "address",
          "name": "_collateralToken",
          "type": "address"
        },
        {
          "internalType": "address",
          "name": "_indexToken",
          "type": "address"
        },
        {
          "internalType": "uint256",
          "name": "_sizeDelta",
          "type": "uint256"
        },
        {
          "internalType": "bool",
          "name": "_isLong",
          "type": "bool"
        }
      ],
      "name": "increasePosition",
      "outputs": [],
      "stateMutability": "nonpayable",
      "type": "function"
    },
    {
      "inputs": [
        {
          "internalType": "address",
          "name": "_router",
          "type": "address"
        },
        {
          "internalType": "address",
          "name": "_usdg",
          "type": "address"
        },
        {
          "internalType": "address",
          "name": "_priceFeed",
          "type": "address"
        },
        {
          "internalType": "uint256",
          "name": "_liquidationFeeUsd",
          "type": "uint256"
        },
        {
          "internalType": "uint256",
          "name": "_fundingRateFactor",
          "type": "uint256"
        },
        {
          "internalType": "uint256",
          "name": "_stableFundingRateFactor",
          "type": "uint256"
        }
      ],
      "name": "initialize",
      "outputs": [],
      "stateMutability": "nonpayable",
      "type": "function"
    },
    {
      "inputs": [],
      "name": "isInitialized",
      "outputs": [
        {
          "internalType": "bool",
          "name": "",
          "type": "bool"
        }
      ],
      "stateMutability": "view",
      "type": "function"
    },
    {
      "inputs": [],
      "name": "isLeverageEnabled",
      "outputs": [
        {
          "internalType": "bool",
          "name": "",
          "type": "bool"
        }
      ],
      "stateMutability": "view",
      "type": "function"
    },
    {
      "inputs": [
        {
          "internalType": "address",
          "name": "",
          "type": "address"
        }
      ],
      "name": "isLiquidator",
      "outputs": [
        {
          "internalType": "bool",
          "name": "",
          "type": "bool"
        }
      ],
      "stateMutability": "view",
      "type": "function"
    },
    {
      "inputs": [
        {
          "internalType": "address",
          "name": "",
          "type": "address"
        }
      ],
      "name": "isManager",
      "outputs": [
        {
          "internalType": "bool",
          "name": "",
          "type": "bool"
        }
      ],
      "stateMutability": "view",
      "type": "function"
    },
    {
      "inputs": [],
      "name": "isSwapEnabled",
      "outputs": [
        {
          "internalType": "bool",
          "name": "",
          "type": "bool"
        }
      ],
      "stateMutability": "view",
      "type": "function"
    },
    {
      "inputs": [
        {
          "internalType": "address",
          "name": "",
          "type": "address"
        }
      ],
      "name": "lastFundingTimes",
      "outputs": [
        {
          "internalType": "uint256",
          "name": "",
          "type": "uint256"
        }
      ],
      "stateMutability": "view",
      "type": "function"
    },
    {
      "inputs": [
        {
          "internalType": "address",
          "name": "_account",
          "type": "address"
        },
        {
          "internalType": "address",
          "name": "_collateralToken",
          "type": "address"
        },
        {
          "internalType": "address",
          "name": "_indexToken",
          "type": "address"
        },
        {
          "internalType": "bool",
          "name": "_isLong",
          "type": "bool"
        },
        {
          "internalType": "address",
          "name": "_feeReceiver",
          "type": "address"
        }
      ],
      "name": "liquidatePosition",
      "outputs": [],
      "stateMutability": "nonpayable",
      "type": "function"
    },
    {
      "inputs": [],
      "name": "liquidationFeeUsd",
      "outputs": [
        {
          "internalType": "uint256",
          "name": "",
          "type": "uint256"
        }
      ],
      "stateMutability": "view",
      "type": "function"
    },
    {
      "inputs": [],
      "name": "marginFeeBasisPoints",
      "outputs": [
        {
          "internalType": "uint256",
          "name": "",
          "type": "uint256"
        }
      ],
      "stateMutability": "view",
      "type": "function"
    },
    {
      "inputs": [],
      "name": "maxGasPrice",
      "outputs": [
        {
          "internalType": "uint256",
          "name": "",
          "type": "uint256"
        }
      ],
      "stateMutability": "view",
      "type": "function"
    },
    {
      "inputs": [
        {
          "internalType": "address",
          "name": "",
          "type": "address"
        }
      ],
      "name": "maxGlobalShortSizes",
      "outputs": [
        {
          "internalType": "uint256",
          "name": "",
          "type": "uint256"
        }
      ],
      "stateMutability": "view",
      "type": "function"
    },
    {
      "inputs": [],
      "name": "maxLeverage",
      "outputs": [
        {
          "internalType": "uint256",
          "name": "",
          "type": "uint256"
        }
      ],
      "stateMutability": "view",
      "type": "function"
    },
    {
      "inputs": [
        {
          "internalType": "address",
          "name": "",
          "type": "address"
        }
      ],
      "name": "maxUsdgAmounts",
      "outputs": [
        {
          "internalType": "uint256",
          "name": "",
          "type": "uint256"
        }
      ],
      "stateMutability": "view",
      "type": "function"
    },
    {
      "inputs": [
        {
          "internalType": "address",
          "name": "",
          "type": "address"
        }
      ],
      "name": "minProfitBasisPoints",
      "outputs": [
        {
          "internalType": "uint256",
          "name": "",
          "type": "uint256"
        }
      ],
      "stateMutability": "view",
      "type": "function"
    },
    {
      "inputs": [],
      "name": "minProfitTime",
      "outputs": [
        {
          "internalType": "uint256",
          "name": "",
          "type": "uint256"
        }
      ],
      "stateMutability": "view",
      "type": "function"
    },
    {
      "inputs": [],
      "name": "mintBurnFeeBasisPoints",
      "outputs": [
        {
          "internalType": "uint256",
          "name": "",
          "type": "uint256"
        }
      ],
      "stateMutability": "view",
      "type": "function"
    },
    {
      "inputs": [
        {
          "internalType": "address",
          "name": "",
          "type": "address"
        }
      ],
      "name": "poolAmounts",
      "outputs": [
        {
          "internalType": "uint256",
          "name": "",
          "type": "uint256"
        }
      ],
      "stateMutability": "view",
      "type": "function"
    },
    {
      "inputs": [
        {
          "internalType": "bytes32",
          "name": "",
          "type": "bytes32"
        }
      ],
      "name": "positions",
      "outputs": [
        {
          "internalType": "uint256",
          "name": "size",
          "type": "uint256"
        },
        {
          "internalType": "uint256",
          "name": "collateral",
          "type": "uint256"
        },
        {
          "internalType": "uint256",
          "name": "averagePrice",
          "type": "uint256"
        },
        {
          "internalType": "uint256",
          "name": "entryFundingRate",
          "type": "uint256"
        },
        {
          "internalType": "uint256",
          "name": "reserveAmount",
          "type": "uint256"
        },
        {
          "internalType": "int256",
          "name": "realisedPnl",
          "type": "int256"
        },
        {
          "internalType": "uint256",
          "name": "lastIncreasedTime",
          "type": "uint256"
        }
      ],
      "stateMutability": "view",
      "type": "function"
    },
    {
      "inputs": [],
      "name": "priceFeed",
      "outputs": [
        {
          "internalType": "address",
          "name": "",
          "type": "address"
        }
      ],
      "stateMutability": "view",
      "type": "function"
    },
    {
      "inputs": [
        {
          "internalType": "address",
          "name": "_router",
          "type": "address"
        }
      ],
      "name": "removeRouter",
      "outputs": [],
      "stateMutability": "nonpayable",
      "type": "function"
    },
    {
      "inputs": [
        {
          "internalType": "address",
          "name": "",
          "type": "address"
        }
      ],
      "name": "reservedAmounts",
      "outputs": [
        {
          "internalType": "uint256",
          "name": "",
          "type": "uint256"
        }
      ],
      "stateMutability": "view",
      "type": "function"
    },
    {
      "inputs": [],
      "name": "router",
      "outputs": [
        {
          "internalType": "address",
          "name": "",
          "type": "address"
        }
      ],
      "stateMutability": "view",
      "type": "function"
    },
    {
      "inputs": [
        {
          "internalType": "address",
          "name": "_token",
          "type": "address"
        },
        {
          "internalType": "address",
          "name": "_receiver",
          "type": "address"
        }
      ],
      "name": "sellUSDG",
      "outputs": [
        {
          "internalType": "uint256",
          "name": "",
          "type": "uint256"
        }
      ],
      "stateMutability": "nonpayable",
      "type": "function"
    },
    {
      "inputs": [
        {
          "internalType": "address",
          "name": "_token",
          "type": "address"
        },
        {
          "internalType": "uint256",
          "name": "_amount",
          "type": "uint256"
        }
      ],
      "name": "setBufferAmount",
      "outputs": [],
      "stateMutability": "nonpayable",
      "type": "function"
    },
    {
      "inputs": [
        {
          "internalType": "uint256",
          "name": "_errorCode",
          "type": "uint256"
        },
        {
          "internalType": "string",
          "name": "_error",
          "type": "string"
        }
      ],
      "name": "setError",
      "outputs": [],
      "stateMutability": "nonpayable",
      "type": "function"
    },
    {
      "inputs": [
        {
          "internalType": "address",
          "name": "_errorController",
          "type": "address"
        }
      ],
      "name": "setErrorController",
      "outputs": [],
      "stateMutability": "nonpayable",
      "type": "function"
    },
    {
      "inputs": [
        {
          "internalType": "uint256",
          "name": "_taxBasisPoints",
          "type": "uint256"
        },
        {
          "internalType": "uint256",
          "name": "_stableTaxBasisPoints",
          "type": "uint256"
        },
        {
          "internalType": "uint256",
          "name": "_mintBurnFeeBasisPoints",
          "type": "uint256"
        },
        {
          "internalType": "uint256",
          "name": "_swapFeeBasisPoints",
          "type": "uint256"
        },
        {
          "internalType": "uint256",
          "name": "_stableSwapFeeBasisPoints",
          "type": "uint256"
        },
        {
          "internalType": "uint256",
          "name": "_marginFeeBasisPoints",
          "type": "uint256"
        },
        {
          "internalType": "uint256",
          "name": "_liquidationFeeUsd",
          "type": "uint256"
        },
        {
          "internalType": "uint256",
          "name": "_minProfitTime",
          "type": "uint256"
        },
        {
          "internalType": "bool",
          "name": "_hasDynamicFees",
          "type": "bool"
        }
      ],
      "name": "setFees",
      "outputs": [],
      "stateMutability": "nonpayable",
      "type": "function"
    },
    {
      "inputs": [
        {
          "internalType": "uint256",
          "name": "_fundingInterval",
          "type": "uint256"
        },
        {
          "internalType": "uint256",
          "name": "_fundingRateFactor",
          "type": "uint256"
        },
        {
          "internalType": "uint256",
          "name": "_stableFundingRateFactor",
          "type": "uint256"
        }
      ],
      "name": "setFundingRate",
      "outputs": [],
      "stateMutability": "nonpayable",
      "type": "function"
    },
    {
      "inputs": [
        {
          "internalType": "address",
          "name": "_gov",
          "type": "address"
        }
      ],
      "name": "setGov",
      "outputs": [],
      "stateMutability": "nonpayable",
      "type": "function"
    },
    {
      "inputs": [
        {
          "internalType": "bool",
          "name": "_inManagerMode",
          "type": "bool"
        }
      ],
      "name": "setInManagerMode",
      "outputs": [],
      "stateMutability": "nonpayable",
      "type": "function"
    },
    {
      "inputs": [
        {
          "internalType": "bool",
          "name": "_inPrivateLiquidationMode",
          "type": "bool"
        }
      ],
      "name": "setInPrivateLiquidationMode",
      "outputs": [],
      "stateMutability": "nonpayable",
      "type": "function"
    },
    {
      "inputs": [
        {
          "internalType": "bool",
          "name": "_isLeverageEnabled",
          "type": "bool"
        }
      ],
      "name": "setIsLeverageEnabled",
      "outputs": [],
      "stateMutability": "nonpayable",
      "type": "function"
    },
    {
      "inputs": [
        {
          "internalType": "bool",
          "name": "_isSwapEnabled",
          "type": "bool"
        }
      ],
      "name": "setIsSwapEnabled",
      "outputs": [],
      "stateMutability": "nonpayable",
      "type": "function"
    },
    {
      "inputs": [
        {
          "internalType": "address",
          "name": "_liquidator",
          "type": "address"
        },
        {
          "internalType": "bool",
          "name": "_isActive",
          "type": "bool"
        }
      ],
      "name": "setLiquidator",
      "outputs": [],
      "stateMutability": "nonpayable",
      "type": "function"
    },
    {
      "inputs": [
        {
          "internalType": "address",
          "name": "_manager",
          "type": "address"
        },
        {
          "internalType": "bool",
          "name": "_isManager",
          "type": "bool"
        }
      ],
      "name": "setManager",
      "outputs": [],
      "stateMutability": "nonpayable",
      "type": "function"
    },
    {
      "inputs": [
        {
          "internalType": "uint256",
          "name": "_maxGasPrice",
          "type": "uint256"
        }
      ],
      "name": "setMaxGasPrice",
      "outputs": [],
      "stateMutability": "nonpayable",
      "type": "function"
    },
    {
      "inputs": [
        {
          "internalType": "address",
          "name": "_token",
          "type": "address"
        },
        {
          "internalType": "uint256",
          "name": "_amount",
          "type": "uint256"
        }
      ],
      "name": "setMaxGlobalShortSize",
      "outputs": [],
      "stateMutability": "nonpayable",
      "type": "function"
    },
    {
      "inputs": [
        {
          "internalType": "uint256",
          "name": "_maxLeverage",
          "type": "uint256"
        }
      ],
      "name": "setMaxLeverage",
      "outputs": [],
      "stateMutability": "nonpayable",
      "type": "function"
    },
    {
      "inputs": [
        {
          "internalType": "address",
          "name": "_priceFeed",
          "type": "address"
        }
      ],
      "name": "setPriceFeed",
      "outputs": [],
      "stateMutability": "nonpayable",
      "type": "function"
    },
    {
      "inputs": [
        {
          "internalType": "address",
          "name": "_token",
          "type": "address"
        },
        {
          "internalType": "uint256",
          "name": "_tokenDecimals",
          "type": "uint256"
        },
        {
          "internalType": "uint256",
          "name": "_tokenWeight",
          "type": "uint256"
        },
        {
          "internalType": "uint256",
          "name": "_minProfitBps",
          "type": "uint256"
        },
        {
          "internalType": "uint256",
          "name": "_maxUsdgAmount",
          "type": "uint256"
        },
        {
          "internalType": "bool",
          "name": "_isStable",
          "type": "bool"
        },
        {
          "internalType": "bool",
          "name": "_isShortable",
          "type": "bool"
        }
      ],
      "name": "setTokenConfig",
      "outputs": [],
      "stateMutability": "nonpayable",
      "type": "function"
    },
    {
      "inputs": [
        {
          "internalType": "address",
          "name": "_token",
          "type": "address"
        },
        {
          "internalType": "uint256",
          "name": "_amount",
          "type": "uint256"
        }
      ],
      "name": "setUsdgAmount",
      "outputs": [],
      "stateMutability": "nonpayable",
      "type": "function"
    },
    {
      "inputs": [
        {
          "internalType": "contract IVaultUtils",
          "name": "_vaultUtils",
          "type": "address"
        }
      ],
      "name": "setVaultUtils",
      "outputs": [],
      "stateMutability": "nonpayable",
      "type": "function"
    },
    {
      "inputs": [
        {
          "internalType": "address",
          "name": "",
          "type": "address"
        }
      ],
      "name": "shortableTokens",
      "outputs": [
        {
          "internalType": "bool",
          "name": "",
          "type": "bool"
        }
      ],
      "stateMutability": "view",
      "type": "function"
    },
    {
      "inputs": [],
      "name": "stableFundingRateFactor",
      "outputs": [
        {
          "internalType": "uint256",
          "name": "",
          "type": "uint256"
        }
      ],
      "stateMutability": "view",
      "type": "function"
    },
    {
      "inputs": [],
      "name": "stableSwapFeeBasisPoints",
      "outputs": [
        {
          "internalType": "uint256",
          "name": "",
          "type": "uint256"
        }
      ],
      "stateMutability": "view",
      "type": "function"
    },
    {
      "inputs": [],
      "name": "stableTaxBasisPoints",
      "outputs": [
        {
          "internalType": "uint256",
          "name": "",
          "type": "uint256"
        }
      ],
      "stateMutability": "view",
      "type": "function"
    },
    {
      "inputs": [
        {
          "internalType": "address",
          "name": "",
          "type": "address"
        }
      ],
      "name": "stableTokens",
      "outputs": [
        {
          "internalType": "bool",
          "name": "",
          "type": "bool"
        }
      ],
      "stateMutability": "view",
      "type": "function"
    },
    {
      "inputs": [
        {
          "internalType": "address",
          "name": "_tokenIn",
          "type": "address"
        },
        {
          "internalType": "address",
          "name": "_tokenOut",
          "type": "address"
        },
        {
          "internalType": "address",
          "name": "_receiver",
          "type": "address"
        }
      ],
      "name": "swap",
      "outputs": [
        {
          "internalType": "uint256",
          "name": "",
          "type": "uint256"
        }
      ],
      "stateMutability": "nonpayable",
      "type": "function"
    },
    {
      "inputs": [],
      "name": "swapFeeBasisPoints",
      "outputs": [
        {
          "internalType": "uint256",
          "name": "",
          "type": "uint256"
        }
      ],
      "stateMutability": "view",
      "type": "function"
    },
    {
      "inputs": [],
      "name": "taxBasisPoints",
      "outputs": [
        {
          "internalType": "uint256",
          "name": "",
          "type": "uint256"
        }
      ],
      "stateMutability": "view",
      "type": "function"
    },
    {
      "inputs": [
        {
          "internalType": "address",
          "name": "",
          "type": "address"
        }
      ],
      "name": "tokenBalances",
      "outputs": [
        {
          "internalType": "uint256",
          "name": "",
          "type": "uint256"
        }
      ],
      "stateMutability": "view",
      "type": "function"
    },
    {
      "inputs": [
        {
          "internalType": "address",
          "name": "",
          "type": "address"
        }
      ],
      "name": "tokenDecimals",
      "outputs": [
        {
          "internalType": "uint256",
          "name": "",
          "type": "uint256"
        }
      ],
      "stateMutability": "view",
      "type": "function"
    },
    {
      "inputs": [
        {
          "internalType": "address",
          "name": "_token",
          "type": "address"
        },
        {
          "internalType": "uint256",
          "name": "_tokenAmount",
          "type": "uint256"
        }
      ],
      "name": "tokenToUsdMin",
      "outputs": [
        {
          "internalType": "uint256",
          "name": "",
          "type": "uint256"
        }
      ],
      "stateMutability": "view",
      "type": "function"
    },
    {
      "inputs": [
        {
          "internalType": "address",
          "name": "",
          "type": "address"
        }
      ],
      "name": "tokenWeights",
      "outputs": [
        {
          "internalType": "uint256",
          "name": "",
          "type": "uint256"
        }
      ],
      "stateMutability": "view",
      "type": "function"
    },
    {
      "inputs": [],
      "name": "totalTokenWeights",
      "outputs": [
        {
          "internalType": "uint256",
          "name": "",
          "type": "uint256"
        }
      ],
      "stateMutability": "view",
      "type": "function"
    },
    {
      "inputs": [
        {
          "internalType": "address",
          "name": "_collateralToken",
          "type": "address"
        },
        {
          "internalType": "address",
          "name": "_indexToken",
          "type": "address"
        }
      ],
      "name": "updateCumulativeFundingRate",
      "outputs": [],
      "stateMutability": "nonpayable",
      "type": "function"
    },
    {
      "inputs": [
        {
          "internalType": "address",
          "name": "_newVault",
          "type": "address"
        },
        {
          "internalType": "address",
          "name": "_token",
          "type": "address"
        },
        {
          "internalType": "uint256",
          "name": "_amount",
          "type": "uint256"
        }
      ],
      "name": "upgradeVault",
      "outputs": [],
      "stateMutability": "nonpayable",
      "type": "function"
    },
    {
      "inputs": [
        {
          "internalType": "address",
          "name": "_token",
          "type": "address"
        },
        {
          "internalType": "uint256",
          "name": "_usdAmount",
          "type": "uint256"
        },
        {
          "internalType": "uint256",
          "name": "_price",
          "type": "uint256"
        }
      ],
      "name": "usdToToken",
      "outputs": [
        {
          "internalType": "uint256",
          "name": "",
          "type": "uint256"
        }
      ],
      "stateMutability": "view",
      "type": "function"
    },
    {
      "inputs": [
        {
          "internalType": "address",
          "name": "_token",
          "type": "address"
        },
        {
          "internalType": "uint256",
          "name": "_usdAmount",
          "type": "uint256"
        }
      ],
      "name": "usdToTokenMax",
      "outputs": [
        {
          "internalType": "uint256",
          "name": "",
          "type": "uint256"
        }
      ],
      "stateMutability": "view",
      "type": "function"
    },
    {
      "inputs": [
        {
          "internalType": "address",
          "name": "_token",
          "type": "address"
        },
        {
          "internalType": "uint256",
          "name": "_usdAmount",
          "type": "uint256"
        }
      ],
      "name": "usdToTokenMin",
      "outputs": [
        {
          "internalType": "uint256",
          "name": "",
          "type": "uint256"
        }
      ],
      "stateMutability": "view",
      "type": "function"
    },
    {
      "inputs": [],
      "name": "usdg",
      "outputs": [
        {
          "internalType": "address",
          "name": "",
          "type": "address"
        }
      ],
      "stateMutability": "view",
      "type": "function"
    },
    {
      "inputs": [
        {
          "internalType": "address",
          "name": "",
          "type": "address"
        }
      ],
      "name": "usdgAmounts",
      "outputs": [
        {
          "internalType": "uint256",
          "name": "",
          "type": "uint256"
        }
      ],
      "stateMutability": "view",
      "type": "function"
    },
    {
      "inputs": [],
      "name": "useSwapPricing",
      "outputs": [
        {
          "internalType": "bool",
          "name": "",
          "type": "bool"
        }
      ],
      "stateMutability": "view",
      "type": "function"
    },
    {
      "inputs": [
        {
          "internalType": "address",
          "name": "_account",
          "type": "address"
        },
        {
          "internalType": "address",
          "name": "_collateralToken",
          "type": "address"
        },
        {
          "internalType": "address",
          "name": "_indexToken",
          "type": "address"
        },
        {
          "internalType": "bool",
          "name": "_isLong",
          "type": "bool"
        },
        {
          "internalType": "bool",
          "name": "_raise",
          "type": "bool"
        }
      ],
      "name": "validateLiquidation",
      "outputs": [
        {
          "internalType": "uint256",
          "name": "",
          "type": "uint256"
        },
        {
          "internalType": "uint256",
          "name": "",
          "type": "uint256"
        }
      ],
      "stateMutability": "view",
      "type": "function"
    },
    {
      "inputs": [],
      "name": "vaultUtils",
      "outputs": [
        {
          "internalType": "contract IVaultUtils",
          "name": "",
          "type": "address"
        }
      ],
      "stateMutability": "view",
      "type": "function"
    },
    {
      "inputs": [],
      "name": "whitelistedTokenCount",
      "outputs": [
        {
          "internalType": "uint256",
          "name": "",
          "type": "uint256"
        }
      ],
      "stateMutability": "view",
      "type": "function"
    },
    {
      "inputs": [
        {
          "internalType": "address",
          "name": "",
          "type": "address"
        }
      ],
      "name": "whitelistedTokens",
      "outputs": [
        {
          "internalType": "bool",
          "name": "",
          "type": "bool"
        }
      ],
      "stateMutability": "view",
      "type": "function"
    },
    {
      "inputs": [
        {
          "internalType": "address",
          "name": "_token",
          "type": "address"
        },
        {
          "internalType": "address",
          "name": "_receiver",
          "type": "address"
        }
      ],
      "name": "withdrawFees",
      "outputs": [
        {
          "internalType": "uint256",
          "name": "",
          "type": "uint256"
        }
      ],
      "stateMutability": "nonpayable",
      "type": "function"
    }
  ],
  "bytecode": "0x60806040526001805462ff00001961ff00199091166101001716620100001781556207a1206008556032600a9081556014600b55601e600c819055600d556004600e55600f556011805460ff199081169091556170806012556016805463ffffff0019921690921716905534801561007657600080fd5b506001600055600680546001600160a01b03191633179055615f83806200009e6000396000f3fe608060405234801561001057600080fd5b50600436106105995760003560e01c80638585f4d2116102e9578063c7e074c31161018f578063c7e074c314611225578063cea0c32814611265578063cfad57a21461129b578063d2fa635e146112c1578063d3127e63146112de578063d54d5a9f146112fb578063d66b000d1461135a578063d8f897c314611386578063d9ac4225146113ac578063da76524c146113b4578063daf9c210146113fe578063db3555fb14611424578063db97495f1461144a578063dc8f5fac14611496578063de2ea9481461149e578063df73a267146114e6578063e124e6d2146114ee578063e468baf014611514578063e67f59a714611531578063efa10a6e14611557578063f07456ce14611583578063f07bbf77146115a9578063f2555278146115c8578063f3ae2415146115f6578063f5b91b7b1461161c578063f887ea4014611624578063fa12dbc01461162c578063fbfded6d1461165e578063fce28c101461168c578063fdaf6ac314611694578063fed1a606146116d857610599565b80638585f4d214610e90578063870d917c14610ebc57806388b1fbdf14610ec45780638a27d46814610eea5780638a39735a1461061a5780638a78daa814610f135780638ee573ac14610f395780638f7b840414610f5f5780639060b1ca14610f855780639331621214610f8d57806395082d2514610fc55780639698d25a14610fcd5780639849e41214610ff35780639899cd0214610ffb5780639d7432ca146110275780639f392eb314611059578063a22f239214611061578063a42ab3d214611069578063a5e90eee14611095578063a93acac2146110c3578063ab08c1c6146110e9578063ab2f3ad4146110f1578063ad1e4f8d14611117578063ae3302c21461113d578063b06423f314611145578063b136ca491461114d578063b1cc53ab14611173578063b364accb146111ab578063c3c7b9e9146111d1578063c4f718bf146111f7578063c65bc7b1146111ff57610599565b80634453a3741161044e5780634453a3741461097057806345a6f3701461099e57806348d91abf146109f757806348f35cbb14610a3b5780634a3f088d14610a435780634a993ee914610ac45780634befe2ca14610aea5780634d47b30414610af2578063514ea4bf14610afa57806351723e8214610b4f578063523fba7f14610b8d578063529a356f14610bb357806352f55eed14610bd95780635c07eaab14610bff5780635f7bc11914610c3f5780636092219914610c6557806362287a3214610c935780636274980314610c9b5780636abbe0c814610cc15780636ae0b15414610cc95780636be6026b14610cef57806371089f4d14610cf7578063711e619014610d1d578063724e78da14610d4b578063728cdbca14610d71578063741bef1a14610db95780637a210a2b14610dc15780637c2eb9f714610dc9578063817bb85714610de857806381a612d614610e1657806382a0849014610e3c57610599565b806304fef1db1461059e57806307c58752146105d65780630842b076146105de5780630a48d5a9146105e657806310eb56c214610612578063126082cf1461061a57806312d43a5114610622578063134ca63b14610646578063174d26941461064e578063181e210e146106565780631aa4ace5146106725780631ce9cb8f1461069857806324b0c04d146106be57806324ca984e146106df57806328e67be51461070557806329ff96151461077a5780632c668ec1146107a05780632d4b0576146107cc57806330455ede1461080a578063318bc6891461082957806334c1557d1461061a578063351a964d14610831578063392e53cd146108395780633a05dcc1146108415780633c5a6e35146108675780633de39c11146108b55780633e72a262146108bd57806340eb3802146108c5578063421528731461091657806342b60b031461094a575b600080fd5b6105c4600480360360208110156105b457600080fd5b50356001600160a01b031661176a565b60408051918252519081900360200190f35b6105c46117cd565b6105c46117de565b6105c4600480360360408110156105fc57600080fd5b506001600160a01b0381351690602001356117e4565b6105c4611837565b6105c461183d565b61062a611843565b604080516001600160a01b039092168252519081900360200190f35b6105c4611852565b6105c4611858565b61065e61185e565b604080519115158252519081900360200190f35b6105c46004803603602081101561068857600080fd5b50356001600160a01b031661186e565b6105c4600480360360208110156106ae57600080fd5b50356001600160a01b0316611880565b6106dd600480360360208110156106d457600080fd5b50351515611892565b005b6106dd600480360360208110156106f557600080fd5b50356001600160a01b03166118b6565b6106dd6004803603604081101561071b57600080fd5b81359190810190604081016020820135600160201b81111561073c57600080fd5b82018360208201111561074e57600080fd5b803590602001918460018302840111600160201b8311171561076f57600080fd5b5090925090506118e7565b6105c46004803603602081101561079057600080fd5b50356001600160a01b0316611965565b6105c4600480360360408110156107b657600080fd5b506001600160a01b038135169060200135611979565b6105c4600480360360808110156107e257600080fd5b506001600160a01b0381358116916020810135821691604082013516906060013515156119be565b6106dd6004803603602081101561082057600080fd5b50351515611a14565b6105c4611a36565b61065e611a3c565b61065e611a4a565b6105c46004803603602081101561085757600080fd5b50356001600160a01b0316611a53565b6106dd600480360360e081101561087d57600080fd5b506001600160a01b038135169060208101359060408101359060608101359060808101359060a081013515159060c001351515611b13565b6105c4611c55565b61065e611c5b565b6106dd60048036036101208110156108dc57600080fd5b5080359060208101359060408101359060608101359060808101359060a08101359060c08101359060e08101359061010001351515611c6a565b6105c46004803603606081101561092c57600080fd5b508035906001600160a01b0360208201358116916040013516611d24565b61065e6004803603602081101561096057600080fd5b50356001600160a01b0316611dc6565b6106dd6004803603604081101561098657600080fd5b506001600160a01b0381351690602001351515611ddb565b6109dc600480360360808110156109b457600080fd5b506001600160a01b038135811691602081013582169160408201351690606001351515611e0e565b60408051921515835260208301919091528051918290030190f35b6106dd600480360360a0811015610a0d57600080fd5b506001600160a01b038135811691602081013582169160408201351690606081013590608001351515611eac565b61062a6122e4565b610a8160048036036080811015610a5957600080fd5b506001600160a01b0381358116916020810135821691604082013516906060013515156122f3565b604080519889526020890197909752878701959095526060870193909352608086019190915260a0850152151560c084015260e083015251908190036101000190f35b6105c460048036036020811015610ada57600080fd5b50356001600160a01b03166123f2565b6105c4612404565b6105c461240a565b610b1760048036036020811015610b1057600080fd5b5035612410565b604080519788526020880196909652868601949094526060860192909252608085015260a084015260c0830152519081900360e00190f35b6105c460048036036080811015610b6557600080fd5b506001600160a01b03813581169160208101358216916040820135169060600135151561244d565b6105c460048036036020811015610ba357600080fd5b50356001600160a01b03166124f3565b61065e60048036036020811015610bc957600080fd5b50356001600160a01b0316612505565b6105c460048036036020811015610bef57600080fd5b50356001600160a01b031661251a565b6109dc600480360360a0811015610c1557600080fd5b506001600160a01b038135169060208101359060408101359060608101351515906080013561252c565b6106dd60048036036020811015610c5557600080fd5b50356001600160a01b0316612624565b61065e60048036036040811015610c7b57600080fd5b506001600160a01b0381358116916020013516612707565b6105c4612727565b6105c460048036036020811015610cb157600080fd5b50356001600160a01b031661272d565b61062a61273f565b6106dd60048036036020811015610cdf57600080fd5b50356001600160a01b0316612755565b6105c4612783565b6106dd60048036036020811015610d0d57600080fd5b50356001600160a01b031661278a565b6105c460048036036040811015610d3357600080fd5b506001600160a01b03813581169160200135166127be565b6106dd60048036036020811015610d6157600080fd5b50356001600160a01b0316612a52565b6106dd600480360360c0811015610d8757600080fd5b506001600160a01b03813581169160208101358216916040820135169060608101359060808101359060a00135612a7c565b61062a612af3565b6105c4612b02565b6106dd60048036036020811015610ddf57600080fd5b50351515612b08565b6105c460048036036040811015610dfe57600080fd5b506001600160a01b0381358116916020013516612b2c565b6105c460048036036020811015610e2c57600080fd5b50356001600160a01b0316612dfc565b6105c4600480360360e0811015610e5257600080fd5b506001600160a01b0381358116916020810135821691604082013581169160608101359160808201359160a081013515159160c09091013516612ea7565b6106dd60048036036040811015610ea657600080fd5b506001600160a01b038135169060200135612f25565b6105c4612f49565b6105c460048036036020811015610eda57600080fd5b50356001600160a01b0316612f4e565b6106dd60048036036060811015610f0057600080fd5b5080359060208101359060400135612f60565b6105c460048036036020811015610f2957600080fd5b50356001600160a01b0316612fa6565b6105c460048036036020811015610f4f57600080fd5b50356001600160a01b0316612fb8565b6106dd60048036036020811015610f7557600080fd5b50356001600160a01b0316612fca565b61065e612ff4565b6105c460048036036060811015610fa357600080fd5b506001600160a01b038135811691602081013582169160409091013516613003565b6105c46132eb565b6105c460048036036020811015610fe357600080fd5b50356001600160a01b03166132fb565b6105c461330d565b6105c46004803603604081101561101157600080fd5b506001600160a01b038135169060200135613313565b6105c46004803603606081101561103d57600080fd5b506001600160a01b038135169060208101359060400135613335565b61065e6133de565b6105c46133e7565b6105c46004803603604081101561107f57600080fd5b506001600160a01b0381351690602001356133ed565b6106dd600480360360408110156110ab57600080fd5b506001600160a01b038135169060200135151561340a565b6105c4600480360360208110156110d957600080fd5b50356001600160a01b031661343d565b61065e61353b565b6105c46004803603602081101561110757600080fd5b50356001600160a01b0316613544565b6105c46004803603602081101561112d57600080fd5b50356001600160a01b0316613556565b6105c4613568565b61065e61356e565b6105c46004803603602081101561116357600080fd5b50356001600160a01b031661357c565b6105c46004803603606081101561118957600080fd5b506001600160a01b03813581169160208101359091169060400135151561361d565b6109dc600480360360208110156111c157600080fd5b50356001600160a01b03166136b8565b6105c4600480360360208110156111e757600080fd5b50356001600160a01b0316613750565b6105c4613762565b6105c46004803603602081101561121557600080fd5b50356001600160a01b0316613768565b6105c4600480360360a081101561123b57600080fd5b506001600160a01b038135169060208101359060408101359060608101359060800135151561377a565b6106dd6004803603606081101561127b57600080fd5b506001600160a01b03813581169160208101359091169060400135613824565b6106dd600480360360208110156112b157600080fd5b50356001600160a01b0316613845565b6106dd600480360360208110156112d757600080fd5b503561386f565b6106dd600480360360208110156112f457600080fd5b503561387c565b611341600480360360a081101561131157600080fd5b506001600160a01b0381358116916020810135821691604082013516906060810135151590608001351515613898565b6040805192835260208301919091528051918290030190f35b6106dd6004803603604081101561137057600080fd5b506001600160a01b03813516906020013561394f565b6105c46004803603602081101561139c57600080fd5b50356001600160a01b03166139a8565b6105c46139ba565b6105c4600480360360c08110156113ca57600080fd5b506001600160a01b038135811691602081013582169160408201351690606081013515159060808101359060a001356139c0565b61065e6004803603602081101561141457600080fd5b50356001600160a01b0316613a74565b61065e6004803603602081101561143a57600080fd5b50356001600160a01b0316613a89565b6105c4600480360360e081101561146057600080fd5b506001600160a01b0381351690602081013590604081013590606081013515159060808101359060a08101359060c00135613a9d565b6105c4613b2e565b6106dd600480360360a08110156114b457600080fd5b506001600160a01b03813581169160208101358216916040820135811691606081013515159160809091013516613b34565b6105c4613efa565b6105c46004803603602081101561150457600080fd5b50356001600160a01b0316613f00565b61062a6004803603602081101561152a57600080fd5b5035613f78565b6106dd6004803603602081101561154757600080fd5b50356001600160a01b0316613f9f565b6106dd6004803603604081101561156d57600080fd5b506001600160a01b038135169060200135614072565b6105c46004803603602081101561159957600080fd5b50356001600160a01b0316614096565b6106dd600480360360208110156115bf57600080fd5b503515156140a8565b6105c4600480360360408110156115de57600080fd5b506001600160a01b03813581169160200135166140ce565b61065e6004803603602081101561160c57600080fd5b50356001600160a01b0316614124565b61062a614139565b61062a614148565b6105c46004803603606081101561164257600080fd5b506001600160a01b038135169060208101359060400135614157565b6106dd6004803603604081101561167457600080fd5b506001600160a01b0381358116916020013516614191565b6105c461436a565b6105c4600480360360a08110156116aa57600080fd5b506001600160a01b038135811691602081013582169160408201351690606081013515159060800135614370565b6116f5600480360360208110156116ee57600080fd5b50356143e6565b6040805160208082528351818301528351919283929083019185019080838360005b8381101561172f578181015183820152602001611717565b50505050905090810190601f16801561175c5780820380516001836020036101000a031916815260200191505b509250505060405180910390f35b6001600160a01b038116600090815260256020526040812054806117925760009150506117c8565b6001600160a01b0383166000908152602660205260409020546117c49082906117be90620f4240614481565b906144da565b9150505b919050565b6904ee2d6d415b85acef8160201b81565b601b5490565b6000816117f357506000611831565b60006117fe84612dfc565b6001600160a01b0385166000908152601d602052604090205490915061182c600a82900a6117be8685614481565b925050505b92915050565b600b5481565b61271081565b6006546001600160a01b031681565b60145481565b60095481565b6016546301000000900460ff1681565b60236020526000908152604090205481565b602c6020526000908152604090205481565b61189a614519565b60168054911515620100000262ff000019909216919091179055565b3360009081526018602090815260408083206001600160a01b0394909416835292905220805460ff19166001179055565b6002546001600160a01b03163314611946576040805162461bcd60e51b815260206004820152601e60248201527f5661756c743a20696e76616c6964206572726f72436f6e74726f6c6c65720000604482015290519081900360640190fd5b600083815260306020526040902061195f908383615d92565b50505050565b6000611831826119748461357c565b6117e4565b60008061198584613f00565b905060006119a3826117be8668327cb2734119d3b7a9601e1b614481565b60055490915061182c9082906001600160a01b031687611d24565b604080516001600160601b0319606096871b811660208084019190915295871b811660348301529390951b9092166048850152151560f81b605c8401528051603d818503018152605d9093019052815191012090565b611a1c614519565b600180549115156101000261ff0019909216919091179055565b600f5481565b600154610100900460ff1681565b60015460ff1681565b600080600560009054906101000a90046001600160a01b03166001600160a01b03166318160ddd6040518163ffffffff1660e01b815260040160206040518083038186803b158015611aa457600080fd5b505afa158015611ab8573d6000803e3d6000fd5b505050506040513d6020811015611ace57600080fd5b5051905080611ae15760009150506117c8565b6001600160a01b038316600090815260226020526040902054601554611b0b906117be8385614481565b949350505050565b611b1b614519565b6001600160a01b0387166000908152601c602052604090205460ff16611b9857600754611b49906001614534565b600755601b80546001810182556000919091527f3ad8aa4f87544323a9d1e5dd902f40c356527a7955687113db5f9a85ad579dc10180546001600160a01b0319166001600160a01b0389161790555b6015546001600160a01b038816600090815260226020526040902054611bbf90829061458c565b6001600160a01b0389166000908152601c602090815260408083208054600160ff1991821617909155601d83528184208c9055602283528184208b9055601e83528184208a905560248352818420899055601f83528184208054821689151517905591805290912080549091168415151790559050611c3e8187614534565b601555611c4a88613f00565b505050505050505050565b60175481565b60015462010000900460ff1681565b611c72614519565b611c826101f48a111560036145ce565b611c926101f489111560046145ce565b611ca26101f488111560056145ce565b611cb26101f487111560066145ce565b611cc26101f486111560076145ce565b611cd26101f485111560086145ce565b611ced6904ee2d6d415b85acef8160201b84111560096145ce565b600a98909855600b96909655600c94909455600d92909255600e55600f556009556010556011805460ff1916911515919091179055565b60055460009081906001600160a01b03858116911614611d5c576001600160a01b0384166000908152601d6020526040902054611d5f565b60125b6005549091506000906001600160a01b03858116911614611d98576001600160a01b0384166000908152601d6020526040902054611d9b565b60125b9050611dba82600a0a6117be83600a0a8961448190919063ffffffff16565b925050505b9392505050565b601f6020526000908152604090205460ff1681565b611de3614519565b6001600160a01b03919091166000908152601960205260409020805460ff1916911515919091179055565b6000806000611e1f878787876119be565b9050611e29615e10565b506000818152602b6020908152604091829020825160e081018452815480825260018301549382019390935260028201549381018490526003820154606082015260048201546080820152600582015460a082015260069091015460c082018190529092611e9d928992909190899061252c565b93509350505094509492505050565b60026000541415611ef2576040805162461bcd60e51b815260206004820152601f6024820152600080516020615e63833981519152604482015290519081900360640190fd5b6002600055600154611f0e9062010000900460ff16601c6145ce565b611f1661467a565b611f1f85614696565b611f2a8484836146f9565b60015460408051634eae147d60e11b81526001600160a01b038881166004830152878116602483015286811660448301526064820186905284151560848301529151630100000090930490911691639d5c28fa9160a480820192600092909190829003018186803b158015611f9e57600080fd5b505afa158015611fb2573d6000803e3d6000fd5b50505050611fc08484614191565b6000611fce868686856119be565b6000818152602b60205260409020909150611fe88261480e565b600083611ffd57611ff886612dfc565b612006565b61200686613f00565b825490915061201757600282018190555b8154158015906120275750600085115b1561204d57612047868360000154846002015487858a8860060154613a9d565b60028301555b6000612066898989888a8860000154896003015461484f565b905060006120738961490b565b905060006120818a836117e4565b60018601549091506120939082614534565b600186018190556120a890841115601d6145ce565b60018501546120b7908461458c565b60018601556120c78a8a8961361d565b600386015584546120d89089614534565b8086554260068701556120ee901515601e6145ce565b612100856000015486600101546149b8565b61210e8b8b8b8a6001613898565b5050600061211c8b8a6133ed565b600487015490915061212e9082614534565b600487015561213d8b826149dc565b8715612182576121568b6121518b87614534565b614a7c565b6121608b83614afb565b61216a8b84614b7a565b61217d8b6121788d87613313565b614c92565b6121ee565b6001600160a01b038a166000908152602d60205260409020546121bf576001600160a01b038a166000908152602e602052604090208590556121e4565b6121ca8a868b613335565b6001600160a01b038b166000908152602e60205260409020555b6121ee8a8a614d65565b604080518881526001600160a01b03808f166020830152808e16828401528c1660608201526080810184905260a081018b905289151560c082015260e08101879052610100810186905290517f2fe68525253654c21998f35787a8d0f361905ef647c854092430ab65f2f15022918190036101200190a1855460018701546002880154600389015460048a015460058b0154604080518e81526020810197909752868101959095526060860193909352608085019190915260a084015260c083015260e0820187905251600080516020615e83833981519152918190036101000190a15050600160005550505050505050505050565b6002546001600160a01b031681565b600080600080600080600080600061230d8d8d8d8d6119be565b90506123188161480e565b612320615e10565b602b60008381526020019081526020016000206040518060e001604052908160008201548152602001600182015481526020016002820154815260200160038201548152602001600482015481526020016005820154815260200160068201548152505090506000808260a00151136123a0578160a001516000036123a6565b8160a001515b9050816000015182602001518360400151846060015185608001518560008860a0015112158860c001519a509a509a509a509a509a509a509a5050505094995094995094999196509450565b60276020526000908152604090205481565b6101f481565b600c5481565b602b602052600090815260409020805460018201546002830154600384015460048501546005860154600690960154949593949293919290919087565b60008061245c868686866119be565b9050612466615e10565b506000818152602b6020908152604091829020825160e0810184528154815260018201549281018390526002820154938101939093526003810154606084015260048101546080840152600581015460a08401526006015460c08301526124d090151560256145ce565b602081015181516124e891906117be90612710614481565b979650505050505050565b60216020526000908152604090205481565b60196020526000908152604090205460ff1681565b60256020526000908152604090205481565b60008061253d6000861160266145ce565b6000846125525761254d88613f00565b61255b565b61255b88612dfc565b9050600081871161257557612570828861458c565b61257f565b61257f878361458c565b90506000612591886117be8b85614481565b9050600087156125a457508783116125a9565b508288115b60006125c06010548961453490919063ffffffff16565b42116125e4576001600160a01b038c166000908152601e60205260409020546125e7565b60005b905081801561260a57506125fb8b82614481565b61260784612710614481565b11155b1561261457600092505b509a909950975050505050505050565b6002600054141561266a576040805162461bcd60e51b815260206004820152601f6024820152600080516020615e63833981519152604482015290519081900360640190fd5b600260009081556001600160a01b0382168152601c60205260409020546126959060ff16600e6145ce565b60006126a08261490b565b90506126b060008211600f6145ce565b6126ba8282614b7a565b604080516001600160a01b03841681526020810183905281517fa5a389190ebf6170a133bda5c769b77f4d6715b8aa172ec0ddf8473d0b4944bd929181900390910190a150506001600055565b601860209081526000928352604080842090915290825290205460ff1681565b60075481565b602e6020526000908152604090205481565b600154630100000090046001600160a01b031681565b3360009081526018602090815260408083206001600160a01b0394909416835292905220805460ff19169055565b620f424081565b612792614519565b600180546001600160a01b039092166301000000026301000000600160b81b0319909216919091179055565b600060026000541415612806576040805162461bcd60e51b815260206004820152601f6024820152600080516020615e63833981519152604482015290519081900360640190fd5b6002600055612813614e1d565b6001600160a01b0383166000908152601c602052604090205461283a9060ff1660136145ce565b6016805461ff001916610100179055600554600090612861906001600160a01b031661490b565b90506128716000821160146145ce565b61287b8485614191565b60006128878583611979565b90506128976000821160156145ce565b6128a18583614e4c565b6128ab8582614c92565b60055460408051632770a7eb60e21b81523060048201526024810185905290516001600160a01b0390921691639dc29fac9160448082019260009290919082900301818387803b1580156128fe57600080fd5b505af1158015612912573d6000803e3d6000fd5b505060055461292c92506001600160a01b03169050614f0a565b6001546040805163eb0835bf60e01b81526001600160a01b038881166004830152602482018690529151600093630100000090049092169163eb0835bf91604480820192602092909190829003018186803b15801561298a57600080fd5b505afa15801561299e573d6000803e3d6000fd5b505050506040513d60208110156129b457600080fd5b5051905060006129c5878484614fa5565b90506129d56000821160166145ce565b6129e087828861506d565b604080516001600160a01b03808916825289166020820152808201869052606081018390526080810184905290517fd732b7828fa6cee72c285eac756fc66a7477e3dc22e22e7c432f1c265d40b4839181900360a00190a16016805461ff001916905560016000559695505050505050565b612a5a614519565b600480546001600160a01b0319166001600160a01b0392909216919091179055565b612a84614519565b60018054612a989160ff90911615906145ce565b6001805460ff191681179055600380546001600160a01b03199081166001600160a01b039889161790915560058054821696881696909617909555600480549095169390951692909217909255600991909155601355601455565b6004546001600160a01b031681565b600a5481565b612b10614519565b60018054911515620100000262ff000019909216919091179055565b600060026000541415612b74576040805162461bcd60e51b815260206004820152601f6024820152600080516020615e63833981519152604482015290519081900360640190fd5b6002600055612b81614e1d565b6001600160a01b0383166000908152601c6020526040902054612ba89060ff1660106145ce565b6016805461ff0019166101001790556000612bc28461490b565b9050612bd26000821160116145ce565b612bdc8485614191565b6000612be785612dfc565b90506000612c0568327cb2734119d3b7a9601e1b6117be8585614481565b600554909150612c2190829088906001600160a01b0316611d24565b9050612c316000821160126145ce565b6001546040805163256f6ee360e11b81526001600160a01b0389811660048301526024820185905291516000936301000000900490921691634adeddc691604480820192602092909190829003018186803b158015612c8f57600080fd5b505afa158015612ca3573d6000803e3d6000fd5b505050506040513d6020811015612cb957600080fd5b505190506000612cca888684614fa5565b90506000612ce868327cb2734119d3b7a9601e1b6117be8488614481565b600554909150612d049082908b906001600160a01b0316611d24565b9050612d108982615114565b612d1a8983614b7a565b600554604080516340c10f1960e01b81526001600160a01b038b8116600483015260248201859052915191909216916340c10f1991604480830192600092919082900301818387803b158015612d6f57600080fd5b505af1158015612d83573d6000803e3d6000fd5b5050604080516001600160a01b03808d1682528d1660208201528082018a9052606081018590526080810187905290517fab4c77c74cd32c85f35416cf03e7ce9e2d4387f7b7f2c1f4bf53daaecf8ea72d93509081900360a0019150a16016805461ff0019169055600160005598975050505050505050565b60048054601654604080516317e1d38560e11b81526001600160a01b038681169582019590955260006024820181905260ff80851615156044840152610100909404909316151560648201529051919390921691632fc3a70a916084808301926020929190829003018186803b158015612e7557600080fd5b505afa158015612e89573d6000803e3d6000fd5b505050506040513d6020811015612e9f57600080fd5b505192915050565b600060026000541415612eef576040805162461bcd60e51b815260206004820152601f6024820152600080516020615e63833981519152604482015290519081900360640190fd5b6002600055612efc61467a565b612f0588614696565b612f14888888888888886151d2565b600160005598975050505050505050565b612f2d614519565b6001600160a01b03909116600090815260276020526040902055565b601281565b601e6020526000908152604090205481565b612f68614519565b612f78610e10841015600a6145ce565b612f88612710831115600b6145ce565b612f98612710821115600c6145ce565b601292909255601355601455565b602d6020526000908152604090205481565b601d6020526000908152604090205481565b612fd2614519565b600280546001600160a01b0319166001600160a01b0392909216919091179055565b60165462010000900460ff1681565b60006002600054141561304b576040805162461bcd60e51b815260206004820152601f6024820152600080516020615e63833981519152604482015290519081900360640190fd5b600260005560015461306690610100900460ff1660176145ce565b6001600160a01b0384166000908152601c602052604090205461308d9060ff1660186145ce565b6001600160a01b0383166000908152601c60205260409020546130b49060ff1660196145ce565b6130d4836001600160a01b0316856001600160a01b03161415601a6145ce565b6016805461ff0019166101001790556130ed8480614191565b6130f78384614191565b60006131028561490b565b905061311260008211601b6145ce565b600061311d86612dfc565b9050600061312a86613f00565b9050600061313c826117be8686614481565b9050613149818989611d24565b9050600061316768327cb2734119d3b7a9601e1b6117be8787614481565b6005549091506131839082908b906001600160a01b0316611d24565b60015460408051636d099c0b60e11b81526001600160a01b038d811660048301528c8116602483015260448201859052915193945060009363010000009093049091169163da13381691606480820192602092909190829003018186803b1580156131ed57600080fd5b505afa158015613201573d6000803e3d6000fd5b505050506040513d602081101561321757600080fd5b5051905060006132288a8584614fa5565b90506132348b84615114565b61323e8a84614e4c565b6132488b88614b7a565b6132528a85614c92565b61325b8a61565f565b6132668a828b61506d565b604080516001600160a01b03808c168252808e1660208301528c1681830152606081018990526080810186905260a0810183905260c0810184905290517f0874b2d545cb271cdbda4e093020c452328b24af12382ed62c4d00f5c26709db9181900360e00190a16016805461ff001916905560016000559a9950505050505050505050565b68327cb2734119d3b7a9601e1b81565b602f6020526000908152604090205481565b60125481565b60008161332257506000611831565b611dbf838361333086613f00565b614157565b6001600160a01b0383166000908152602d6020908152604080832054602e909252822054828582116133705761336b868361458c565b61337a565b61337a828761458c565b9050600061338c836117be8685614481565b9050868311600061339d8689614534565b90506000826133b5576133b08285614534565b6133bf565b6133bf828561458c565b90506133cf816117be8c85614481565b9b9a5050505050505050505050565b60115460ff1681565b600d5481565b6000816133fc57506000611831565b611dbf838361333086612dfc565b613412614519565b6001600160a01b03919091166000908152601a60205260409020805460ff1916911515919091179055565b6012546001600160a01b0382166000908152602a60205260408120549091429161346691614534565b1115613474575060006117c8565b6012546001600160a01b0383166000908152602a602052604081205490916134a1916117be90429061458c565b6001600160a01b038416600090815260256020526040902054909150806134cd576000925050506117c8565b6001600160a01b0384166000908152601f602052604081205460ff166134f5576013546134f9565b6014545b6001600160a01b0386166000908152602660205260409020549091506135329083906117be90869061352c908690614481565b90614481565b95945050505050565b60165460ff1681565b60226020526000908152604090205481565b60246020526000908152604090205481565b60085481565b601654610100900460ff1681565b6001600160a01b0381166000908152601f602052604081205460ff16156135bc57506001600160a01b0381166000908152602560205260409020546117c8565b6001600160a01b0382166000908152602860205260408120546135e0908490613313565b6001600160a01b0384166000908152602660209081526040808320546025909252909120549192506117c491613617908490614534565b9061458c565b6001546040805163b1cc53ab60e01b81526001600160a01b038681166004830152858116602483015284151560448301529151600093630100000090049092169163b1cc53ab91606480820192602092909190829003018186803b15801561368457600080fd5b505afa158015613698573d6000803e3d6000fd5b505050506040513d60208110156136ae57600080fd5b5051949350505050565b6001600160a01b0381166000908152602d60205260408120548190806136e557600080925092505061374b565b60006136f085613f00565b6001600160a01b0386166000908152602e60205260408120549192508282116137225761371d838361458c565b61372c565b61372c828461458c565b9050600061373e836117be8785614481565b9390921195509193505050505b915091565b60266020526000908152604090205481565b60135481565b60296020526000908152604090205481565b6001546040805163c7e074c360e01b81526001600160a01b03888116600483015260248201889052604482018790526064820186905284151560848301529151600093630100000090049092169163c7e074c39160a480820192602092909190829003018186803b1580156137ee57600080fd5b505afa158015613802573d6000803e3d6000fd5b505050506040513d602081101561381857600080fd5b50519695505050505050565b61382c614519565b6138406001600160a01b03831684836156d4565b505050565b61384d614519565b600680546001600160a01b0319166001600160a01b0392909216919091179055565b613877614519565b601755565b613884614519565b613893612710821160026145ce565b600855565b6001546040805163d54d5a9f60e01b81526001600160a01b03888116600483015287811660248301528681166044830152851515606483015284151560848301528251600094859463010000009091049092169263d54d5a9f9260a4808301939192829003018186803b15801561390e57600080fd5b505afa158015613922573d6000803e3d6000fd5b505050506040513d604081101561393857600080fd5b508051602090910151909890975095505050505050565b613957614519565b6001600160a01b038216600090815260236020526040902054808211156139915761398b83613986848461458c565b615114565b506139a4565b6138408361399f838561458c565b614e4c565b5050565b602a6020526000908152604090205481565b60105481565b6001546040805163369d949360e21b81526001600160a01b0389811660048301528881166024830152878116604483015286151560648301526084820186905260a482018590529151600093630100000090049092169163da76524c9160c480820192602092909190829003018186803b158015613a3d57600080fd5b505afa158015613a51573d6000803e3d6000fd5b505050506040513d6020811015613a6757600080fd5b5051979650505050505050565b601c6020526000908152604090205460ff1681565b602080526000908152604090205460ff1681565b6000806000613aaf8a8a8a8a8861252c565b90925090506000613ac08a87614534565b905060008815613aef5783613ade57613ad9828461458c565b613ae8565b613ae88284614534565b9050613b10565b83613b0357613afe8284614534565b613b0d565b613b0d828461458c565b90505b613b1e816117be8a85614481565b9c9b505050505050505050505050565b60155481565b60026000541415613b7a576040805162461bcd60e51b815260206004820152601f6024820152600080516020615e63833981519152604482015290519081900360640190fd5b60026000556016546301000000900460ff1615613baf5733600090815260196020526040902054613baf9060ff1660226145ce565b6016805460ff19169055613bc38484614191565b6000613bd1868686866119be565b9050613bdb615e10565b506000818152602b6020908152604091829020825160e08101845281548082526001830154938201939093526002820154938101939093526003810154606084015260048101546080840152600581015460a08401526006015460c0830152613c4790151560236145ce565b600080613c58898989896000613898565b91509150613c6b826000141560246145ce565b8160021415613ca057613c88898989600087600001518b8f6151d2565b50506016805460ff1916600117905550613eee915050565b6000613cac8983613313565b6001600160a01b038a166000908152602c6020526040902054909150613cd29082614534565b6001600160a01b038a166000818152602c60209081526040918290209390935580519182529181018490528082018390529051600080516020615f2e8339815191529181900360600190a1613d2b898560800151615726565b8615613d5a5760208401518451613d4c918b91613d479161458c565b614afb565b613d5a896121788b85613313565b600087613d6f57613d6a89613f00565b613d78565b613d7889612dfc565b90507f2e1f85a64a2f22cf2f0c42584e7c919ed4abe8d53675cff0f62bf1e95a1c676f868c8c8c8c8a600001518b602001518c608001518d60a001518a604051808b81526020018a6001600160a01b03168152602001896001600160a01b03168152602001886001600160a01b0316815260200187151581526020018681526020018581526020018481526020018381526020018281526020019a505050505050505050505060405180910390a187158015613e375750846020015183105b15613e65576020850151600090613e4e908561458c565b9050613e638b613e5e8d84613313565b614b7a565b505b87613e7857613e788986600001516157db565b6000868152602b60205260408120818155600181018290556002810182905560038101829055600481018290556005810182905560060155600954613ec4908b90612178908290613313565b613eda8a613ed48c600954613313565b8961506d565b50506016805460ff19166001179055505050505b50506001600055505050565b600e5481565b60048054601654604080516317e1d38560e11b81526001600160a01b03868116958201959095526001602482015260ff80841615156044830152610100909304909216151560648301525160009390921691632fc3a70a91608480820192602092909190829003018186803b158015612e7557600080fd5b601b8181548110613f8557fe5b6000918252602090912001546001600160a01b0316905081565b613fa7614519565b6001600160a01b0381166000908152601c6020526040902054613fce9060ff16600d6145ce565b6001600160a01b038116600090815260226020526040902054601554613ff39161458c565b6015556001600160a01b0381166000908152601c60209081526040808320805460ff19908116909155601d835281842084905560228352818420849055601e835281842084905560248352818420849055601f83528184208054821690559180529091208054909116905560075461406c90600161458c565b60075550565b61407a614519565b6001600160a01b039091166000908152602f6020526040902055565b60286020526000908152604090205481565b6140b0614519565b6016805491151563010000000263ff00000019909216919091179055565b60006140d8614519565b6001600160a01b0383166000908152602c602052604090205480614100576000915050611831565b6001600160a01b0384166000908152602c6020526040812055611dbf84828561506d565b601a6020526000908152604090205460ff1681565b6005546001600160a01b031681565b6003546001600160a01b031681565b60008261416657506000611dbf565b6001600160a01b0384166000908152601d6020526040902054613532836117be86600a85900a614481565b6001546040805163fbfded6d60e01b81526001600160a01b03858116600483015284811660248301529151600093630100000090049092169163fbfded6d9160448082019260209290919082900301818787803b1580156141f157600080fd5b505af1158015614205573d6000803e3d6000fd5b505050506040513d602081101561421b57600080fd5b505190508061422a57506139a4565b6001600160a01b0383166000908152602a6020526040902054614277576012546142589061352c42826144da565b6001600160a01b0384166000908152602a6020526040902055506139a4565b6012546001600160a01b0384166000908152602a6020526040902054429161429f9190614534565b11156142ab57506139a4565b60006142b68461343d565b6001600160a01b0385166000908152602960205260409020549091506142dc9082614534565b6001600160a01b0385166000908152602960205260409020556012546143069061352c42826144da565b6001600160a01b0385166000818152602a602090815260408083209490945560298152908390205483519283529082015281517fa146fc154e1913322e9817d49f0d5c37466c24326e15de10e739a948be815eab929181900390910190a150505050565b610e1081565b6001546040805163fdaf6ac360e01b81526001600160a01b038881166004830152878116602483015286811660448301528515156064830152608482018590529151600093630100000090049092169163fdaf6ac39160a480820192602092909190829003018186803b1580156137ee57600080fd5b60306020908152600091825260409182902080548351601f6002600019610100600186161502019093169290920491820184900484028101840190945280845290918301828280156144795780601f1061444e57610100808354040283529160200191614479565b820191906000526020600020905b81548152906001019060200180831161445c57829003601f168201915b505050505081565b60008261449057506000611831565b8282028284828161449d57fe5b0414611dbf5760405162461bcd60e51b8152600401808060200182810382526021815260200180615ec36021913960400191505060405180910390fd5b6000611dbf83836040518060400160405280601a815260200179536166654d6174683a206469766973696f6e206279207a65726f60301b815250615843565b600654614532906001600160a01b0316331460356145ce565b565b600082820183811015611dbf576040805162461bcd60e51b815260206004820152601b60248201527a536166654d6174683a206164646974696f6e206f766572666c6f7760281b604482015290519081900360640190fd5b6000611dbf83836040518060400160405280601e81526020017f536166654d6174683a207375627472616374696f6e206f766572666c6f7700008152506158e5565b6000818152603060205260409020826138405760405162461bcd60e51b815260206004820190815282546002600019610100600184161502019091160460248301819052909182916044909101908490801561466b5780601f106146405761010080835404028352916020019161466b565b820191906000526020600020905b81548152906001019060200180831161464e57829003601f168201915b50509250505060405180910390fd5b60175461468657614532565b6145326017543a111560376145ce565b336001600160a01b03821614156146ac576146f6565b6003546001600160a01b03163314156146c4576146f6565b6001600160a01b03811660009081526018602090815260408083203384529091529020546146f69060ff1660296145ce565b50565b80156147725761471e826001600160a01b0316846001600160a01b031614602a6145ce565b6001600160a01b0383166000908152601c60205260409020546147459060ff16602b6145ce565b6001600160a01b0383166000908152601f602052604090205461476d9060ff1615602c6145ce565b613840565b6001600160a01b0383166000908152601c60205260409020546147999060ff16602d6145ce565b6001600160a01b0383166000908152601f60205260409020546147c09060ff16602e6145ce565b6001600160a01b0382166000908152601f60205260409020546147e89060ff1615602f6145ce565b6001600160a01b03821660009081526020805260409020546138409060ff1660306145ce565b6040805160248082018490528251808303909101815260449091019091526020810180516001600160e01b03166327b7cf8560e01b1790526146f69061593f565b60008061485f8989898989614370565b905060006148718a8a8a8a89896139c0565b905061487d8282614534565b9150600061488b8a84613313565b6001600160a01b038b166000908152602c60205260409020549091506148b19082614534565b6001600160a01b038b166000818152602c60209081526040918290209390935580519182529181018590528082018390529051600080516020615f2e8339815191529181900360600190a150909998505050505050505050565b6001600160a01b03811660008181526021602090815260408083205481516370a0823160e01b8152306004820152915193949093859391926370a08231926024808301939192829003018186803b15801561496557600080fd5b505afa158015614979573d6000803e3d6000fd5b505050506040513d602081101561498f57600080fd5b50516001600160a01b03851660009081526021602052604090208190559050611b0b818361458c565b816149ce576149c9811560276145ce565b6139a4565b6139a48183101560286145ce565b6001600160a01b0382166000908152602660205260409020546149ff9082614534565b6001600160a01b038316600090815260266020818152604080842085905560258252909220549152614a3491111560346145ce565b604080516001600160a01b03841681526020810183905281517faa5649d82f5462be9d19b0f2b31a59b2259950a6076550bac9f3a1c07db9f66d929181900390910190a15050565b6001600160a01b038216600090815260286020526040902054614a9f9082614534565b6001600160a01b03831660008181526028602090815260409182902093909355805191825291810183905281517fd9d4761f75e0d0103b5cbeab941eeb443d7a56a35b5baf2a0787c03f03f4e474929181900390910190a15050565b6001600160a01b038216600090815260286020526040902054614b1e908261458c565b6001600160a01b03831660008181526028602090815260409182902093909355805191825291810183905281517f34e07158b9db50df5613e591c44ea2ebc82834eff4a4dc3a46e000e608261d68929181900390910190a15050565b6001600160a01b038216600090815260256020526040902054614b9d9082614534565b6001600160a01b03831660008181526025602090815260408083209490945583516370a0823160e01b8152306004820152935191936370a082319260248083019392829003018186803b158015614bf357600080fd5b505afa158015614c07573d6000803e3d6000fd5b505050506040513d6020811015614c1d57600080fd5b50516001600160a01b038416600090815260256020526040902054909150614c499082101560316145ce565b604080516001600160a01b03851681526020810184905281517f976177fbe09a15e5e43f848844963a42b41ef919ef17ff21a17a5421de8f4737929181900390910190a1505050565b604080518082018252601a81527915985d5b1d0e881c1bdbdb105b5bdd5b9d08195e18d95959195960321b6020808301919091526001600160a01b038516600090815260259091529190912054614cea9183906158e5565b6001600160a01b03831660009081526025602090815260408083208490556026909152902054614d1d91101560326145ce565b604080516001600160a01b03841681526020810183905281517f112726233fbeaeed0f5b1dba5cb0b2b81883dee49fb35ff99fd98ed9f6d31eb0929181900390910190a15050565b6001600160a01b0382166000908152602d6020526040902054614d889082614534565b6001600160a01b0383166000908152602d6020908152604080832093909355602f905220548015613840576001600160a01b0383166000908152602d6020526040902054811015613840576040805162461bcd60e51b815260206004820152601a60248201527915985d5b1d0e881b585e081cda1bdc9d1cc8195e18d95959195960321b604482015290519081900360640190fd5b60165462010000900460ff161561453257336000908152601a60205260409020546145329060ff1660366145ce565b6001600160a01b038216600090815260236020526040902054818111614eb5576001600160a01b038316600081815260236020908152604080832092909255815192835282018390528051600080516020615ee48339815191529281900390910190a1506139a4565b614ebf818361458c565b6001600160a01b0384166000818152602360209081526040918290209390935580519182529181018490528151600080516020615ee4833981519152929181900390910190a1505050565b6000816001600160a01b03166370a08231306040518263ffffffff1660e01b815260040180826001600160a01b0316815260200191505060206040518083038186803b158015614f5957600080fd5b505afa158015614f6d573d6000803e3d6000fd5b505050506040513d6020811015614f8357600080fd5b50516001600160a01b0390921660009081526021602052604090209190915550565b600080614fc26127106117be614fbb828761458c565b8790614481565b90506000614fd0858361458c565b6001600160a01b0387166000908152602c6020526040902054909150614ff69082614534565b6001600160a01b0387166000908152602c60205260409020557f47cd9dda0e50ce30bcaaacd0488452b596221c07ac402a581cfae4d3933cac2b8661503b81846117e4565b604080516001600160a01b0390931683526020830191909152818101849052519081900360600190a150949350505050565b6150816001600160a01b03841682846156d4565b604080516370a0823160e01b815230600482015290516001600160a01b038516916370a08231916024808301926020929190829003018186803b1580156150c757600080fd5b505afa1580156150db573d6000803e3d6000fd5b505050506040513d60208110156150f157600080fd5b50516001600160a01b039093166000908152602160205260409020929092555050565b6001600160a01b0382166000908152602360205260409020546151379082614534565b6001600160a01b0383166000908152602360209081526040808320939093556024905220548015615189576001600160a01b0383166000908152602360205260409020546151899082101560336145ce565b604080516001600160a01b03851681526020810184905281517f64243679a443432e2293343b77d411ff6144370404618f00ca0d2025d9ca9882929181900390910190a1505050565b600154604080516381d11a2360e01b81526001600160a01b038a8116600483015289811660248301528881166044830152606482018890526084820187905285151560a483015284811660c4830152915160009363010000009004909216916381d11a239160e4808201928692909190829003018186803b15801561525657600080fd5b505afa15801561526a573d6000803e3d6000fd5b505050506152788787614191565b6000615286898989876119be565b6000818152602b602052604090208054919250906152a7901515601f6145ce565b6152b9868260000154101560206145ce565b6152cb878260010154101560216145ce565b6001810154815460048301546000916152e8916117be908b614481565b60048401549091506152fa908261458c565b60048401556153098b82615726565b5060008061531b8d8d8d8d8d8d615960565b85549193509150891461549b576153338c8c8a61361d565b60038501558354615344908a61458c565b808555600185015461535691906149b8565b6153648d8d8d8b6001613898565b50508715615391576153878c61215186600101548661458c90919063ffffffff16565b6153918c8a614afb565b6000886153a6576153a18c613f00565b6153af565b6153af8c612dfc565b9050600080516020615ea3833981519152868f8f8f8f8f8f886153d28c8c61458c565b60408051998a526001600160a01b0398891660208b015296881689880152949096166060880152608087019290925260a0860152151560c085015260e084019290925261010083019190915251908190036101200190a18454600186015460028701546003880154600489015460058a0154604080518d81526020810197909752868101959095526060860193909352608085019190915260a084015260c083015260e0820183905251600080516020615e83833981519152918190036101000190a1506155fd565b87156154b5576154ab8c84614a7c565b6154b58c8a614afb565b6000886154ca576154c58c613f00565b6154d3565b6154d38c612dfc565b9050600080516020615ea3833981519152868f8f8f8f8f8f886154f68c8c61458c565b60408051998a526001600160a01b0398891660208b015296881689880152949096166060880152608087019290925260a0860152151560c085015260e084019290925261010083019190915251908190036101200190a18454600186015460028701546003880154600489015460058a0154604080518d81526020810197909752868101959095526060860193909352608085019190915260a084015260c0830152517f73af1d417d82c240fdb6d319b34ad884487c6bf2845d98980cc52ad9171cb4559181900360e00190a1506000858152602b602052604081208181556001810182905560028101829055600381018290556004810182905560058101829055600601555b8761560c5761560c8b8a6157db565b811561564c578715615626576156268c6121788e85613313565b60006156328d83613313565b905061563f8d828a61506d565b95506124e8945050505050565b5060009c9b505050505050505050505050565b6001600160a01b03811660009081526027602090815260408083205460259092529091205410156146f6576040805162461bcd60e51b815260206004820152601a6024820152792b30bab63a1d103837b7b620b6b7bab73a101e10313ab33332b960311b604482015290519081900360640190fd5b604080516001600160a01b038416602482015260448082018490528251808303909101815260649091019091526020810180516001600160e01b031663a9059cbb60e01b179052613840908490615b5a565b604080518082018252601b81527a5661756c743a20696e73756666696369656e74207265736572766560281b6020808301919091526001600160a01b03851660009081526026909152919091205461577f9183906158e5565b6001600160a01b03831660008181526026602090815260409182902093909355805191825291810183905281517f533cb5ed32be6a90284e96b5747a1bfc2d38fdb5768a6b5f67ff7d62144ed67b929181900390910190a15050565b6001600160a01b0382166000908152602d60205260409020548082111561581b57506001600160a01b0382166000908152602d60205260408120556139a4565b615825818361458c565b6001600160a01b0384166000908152602d6020526040902055505050565b600081836158cf5760405162461bcd60e51b81526004018080602001828103825283818151815260200191508051906020019080838360005b8381101561589457818101518382015260200161587c565b50505050905090810190601f1680156158c15780820380516001836020036101000a031916815260200191505b509250505060405180910390fd5b5060008385816158db57fe5b0495945050505050565b600081848411156159375760405162461bcd60e51b815260206004820181815283516024840152835190928392604490910191908501908083836000831561589457818101518382015260200161587c565b505050900390565b80516a636f6e736f6c652e6c6f67602083016000808483855afa5050505050565b6000806000615971898989876119be565b6000818152602b6020526040812080546003820154939450909261599e918d918d918d918b918d9161484f565b90506000806000806159bf8d876000015488600201548d8a6006015461252c565b875491955085935091506159d7906117be8d84614481565b9250505060008280156159ea5750600082115b15615a1a5750600584018054820190558088615a1a576000615a0c8e84613313565b9050615a188e82614c92565b505b82158015615a285750600082115b15615a6c576001850154615a3c908361458c565b600186015588615a60576000615a528e84613313565b9050615a5e8e82614b7a565b505b60058501805483900390555b8a15615a9457615a7c818c614534565b6001860154909150615a8e908c61458c565b60018601555b84548a1415615ab7576001850154615aad908290614534565b6000600187015590505b8084811115615ad157615aca828661458c565b9050615b05565b6001860154615ae0908661458c565b60018701558915615b05576000615af78f87613313565b9050615b038f82614c92565b505b60408051888152851515602082015280820185905290517f3ff41bdde87755b687ae83d0221a232b6be51a803330ed9661c1b5d0105e0d8a9181900360600190a1909e909d509b505050505050505050505050565b6060615baf826040518060400160405280602081526020017f5361666545524332303a206c6f772d6c6576656c2063616c6c206661696c6564815250856001600160a01b0316615c0b9092919063ffffffff16565b80519091501561384057808060200190516020811015615bce57600080fd5b50516138405760405162461bcd60e51b815260040180806020018281038252602a815260200180615f04602a913960400191505060405180910390fd5b6060611b0b848460008585615c1f85615d26565b615c70576040805162461bcd60e51b815260206004820152601d60248201527f416464726573733a2063616c6c20746f206e6f6e2d636f6e7472616374000000604482015290519081900360640190fd5b60006060866001600160a01b031685876040518082805190602001908083835b60208310615caf5780518252601f199092019160209182019101615c90565b6001836020036101000a03801982511681845116808217855250505050505090500191505060006040518083038185875af1925050503d8060008114615d11576040519150601f19603f3d011682016040523d82523d6000602084013e615d16565b606091505b50915091506124e8828286615d2c565b3b151590565b60608315615d3b575081611dbf565b825115615d4b5782518084602001fd5b60405162461bcd60e51b815260206004820181815284516024840152845185939192839260440191908501908083836000831561589457818101518382015260200161587c565b828054600181600116156101000203166002900490600052602060002090601f016020900481019282601f10615dd35782800160ff19823516178555615e00565b82800160010185558215615e00579182015b82811115615e00578235825591602001919060010190615de5565b50615e0c929150615e4d565b5090565b6040518060e00160405280600081526020016000815260200160008152602001600081526020016000815260200160008152602001600081525090565b5b80821115615e0c5760008155600101615e4e56fe5265656e7472616e637947756172643a207265656e7472616e742063616c6c0020853733b590dce729d9f4628682ebd9a34d2354e72679e66f43a008fc03b77393d75d64d1f84fc6f430a64fc578bdd4c1e090e90ea2d51773e626d19de56d30536166654d6174683a206d756c7469706c69636174696f6e206f766572666c6f77e1e812596aac93a06ecc4ca627014d18e30f5c33b825160cc9d5c0ba61e452275361666545524332303a204552433230206f7065726174696f6e20646964206e6f7420737563636565645d0c0019d3d45fadeb74eff9d2c9924d146d000ac6bcf3c28bf0ac3c9baa011aa264697066735822122019c03c5eadc7e9e8738a9b9956702e1c6b0168b6f24e45a92e1fae0b6b27dd2664736f6c634300060c0033",
  "linkReferences": {},
  "deployedLinkReferences": {}
}